:020000040000FA
:100000008FEF15F012001200E4EF19F01200C69AFB
:020010001200DC
:10001800ECEF19F01200CDAB000000000000010069
:100028007A2B0000E10000001E0000000001B6511C
:100038000DE1030EE66EBE0EE66E8F0EE66EE2EC86
:100048000BF0E552E552E5520001B66F12009394A9
:100058009386A36AA46AF29EF29CF29CDCEF0BF0F2
:10006800EDEC0AF000016F8910681168126A136AD2
:10007800E15065EC0BF01016EE501116EE5012160A
:10008800EE501316100E1F0B07E0D89010361136DD
:1000980012361336E806F9E1105000016F131150BB
:1000A80070131250711313507213FB0EDBCF73F0E1
:1000B800FC0EDBCF74F0FD0EDBCF75F0FE0EDBCF50
:1000C80076F0756B766BF2EF0AF000016F99716B41
:1000D800726B736B746B756B766B1200EDEC0AF0D8
:1000E800FB0EDBCF6FF0FC0EDBCF70F0FD0EDBCF2D
:1000F80071F0FE0EDBCF72F00001735174117511AF
:1001080076110EE073C0E6FF74C0E6FF75C0E6FF27
:1001180076C0E6FFA5DFE552E552E552E55201D08B
:10012800D4DFF2EF0AF00001696BD9EC14F004C0D7
:1001380064F005C065F006C066F007C067F000010E
:10014800686B020EE66EE66AE66AE66AC7DFE552A3
:10015800E552E552E552030EE66EE66A5DEC14F0F0
:10016800E552E55200016A6F736B746B756B766BC1
:10017800D0EC0AF00101300E2E6F750E2F6F306B28
:10018800AE0EE66E000E10EC0BF00101A00E2E6F05
:10019800860E2F6F010E306FAA0EE66E000E10EC61
:1001A8000BF00101800E2E6F840E2F6F1E0E306F24
:1001B800B20EE66E000E10EC0BF04CEC0BF0DD0E00
:1001C800E66E000E10EC0BF0BEEC0BF00001B66B07
:1001D800010E776F796F786F2BEF00F0D6EC0BF08C
:1001E800FE0EDBCF10F0000E10C0DFFF03EC0BF0AB
:1001F800D9EC0AF064C010F0ADEC0BF065C010F05B
:10020800ADEC0BF066C010F0D9EC0BF0020EE76E07
:10021800B6EC0AF0FDE167C010F0C0EC0AF002E2AB
:10022800E16AE552E16EF2EF0AF0D6EC0BF0FC0E53
:10023800DBCF10F0D9EC0BF00D0EE76EB6EC0AF040
:10024800FDE1FD0EDBCF10F0FE0EDBCF11F0A5ECCB
:100258000AF0060EE76EB6EC0AF0FDE16AC010F08F
:10026800D9EC0BF0070EE76EB6EC0AF0FDE169C0B9
:1002780010F0C0EC0AF002E2E16AE552E16EF2EF3A
:100288000AF0EDEC0AF0040EE12600018F511C0B78
:10029800E842E842106EDF6E03EC0BF0070EE76EE3
:1002A800B6EC0AF0FDE11F0E00018D15040DF3CF29
:1002B80014F0060E8CC0E7FF070B04E0E742E79E48
:1002C800E806FCE1E7501410FDEC0AF0060EE76EB4
:1002D800B6EC0AF0FDE13F0E00018C15FDEC0AF0CA
:1002E800070EE76EB6EC0AF0FDE169C010F0D9EC34
:1002F8000BF0060EE76EB6EC0AF0FDE16AC010F0EE
:10030800C0EC0AF002E2E16AE552E16EF2EF0AF0AF
:10031800040E6CEC0BF088EC0BF0B5EC0BF010E174
:1003280028EC0BF0B5EC0BF00BE028EC0BF0BAEC7A
:100338000BF06AC0E6FF030E57EC0BF0A2EC0BF0D3
:100348001200D9CFE6FFE1CFD9FF0A0EE126030E4E
:100358000001985DE76E070EE7CFDBFF0D0E1F0B60
:100368008CC010F08DC011F08EC012F08FC013F049
:1003780007E0D8901332123211321032E806F9E150
:100388003F0E1016116A126A136A080E10C0DBFFBE
:10039800130E1F0B8CC010F08DC011F08EC012F020
:1003A8008FC013F007E0D890133212321132103296
:1003B800E806F9E1109E116A126A136A090E10C064
:1003C800DBFF080EDB500001845D05E1090EDB5000
:1003D8000001855D02E00D0E4FD200017B51000146
:1003E800915D02E0020E48D292C0DFFFDF500001AB
:1003F800875D02E00E0E40D200017AA323D00001EF
:100408007B0504E0030E00017B5D19E1040E000189
:100418007A1515E188C010F089C011F08AC012F071
:100428008BC013F01006000E115A000E125A000E5F
:10043800135A10C0F6FF11C0F7FF12C0F8FF0001F1
:100448007A8528D000017AAD23D000017B0504E02D
:10045800030E00017B5D19E1800E00017A1515E19C
:1004680088C010F089C011F08AC012F08BC013F058
:100478001006000E115A000E125A000E135A10C020
:10048800F6FF11C0F7FF12C0F8FF00017A8F02D003
:10049800050EF2D1070EDB5002E1FF0EEDD100018F
:1004A8007B51020A01E14AD1030A03E0020A01E092
:1004B800D3D100017AA3EED0070EDBCF10F0116A7A
:1004C800126A136A800EE96E000EEA6EEE5010266C
:1004D800EE501122EE501222EE501322020E10C0DE
:1004E800DBFF030E11C0DBFF040E12C0DBFF050E9D
:1004F80013C0DBFF070EDB5000018725E76E060EF1
:10050800E7CFDBFF060EDB50400802E2140EB4D141
:10051800D950020FE96EDACFEAFF00018851EE5C8C
:10052800106E00018951EE58116E00018A51EE5883
:10053800126E00018B51EE58136E105000017C5D55
:10054800115000017D59125000017E5913500001CD
:100558007F5902E2130E90D1010EDB6A070EDB50C1
:10056800F36E010EDBCFF4FFF350F45C0EE2010EE4
:10057800DB50030FEA6A900FE96E000EEA22EF5093
:10058800F56E0F00010EDB2AE9D7060EDB50400896
:1005980026E2D950020FE96EDACFEAFF000188514E
:1005A800EE5C106E00018951EE58116E00018A51FF
:1005B800EE58126E00018B51EE58136E1050000168
:1005C8007C190CE1115000017D1908E1125000015D
:1005D8007E1904E1135000017F1900E158E1060E6D
:1005E800DB50400826E0D950020FE96EDACFEAFF67
:1005F80000018851EE5C106E00018951EE58116EB1
:1006080000018A51EE58126E00018B51EE58136E9C
:10061800105000017C190CE1115000017D1908E10E
:10062800125000017E1904E1135000017F1900E106
:100638001CE1840EA66E550EA76EAA0EA76EA682A2
:100648000000A6B2FED7A6940001876B020EDBCF8E
:1006580080F0030EDBCF81F0040EDBCF82F0050EB5
:10066800DBCF83F0000E08D111D0020EDBCF80F073
:10067800030EDBCF81F0040EDBCF82F0050EDBCF5B
:1006880083F0060EDBCF87F0FF0EF6D002D0120EF5
:10069800F3D053D000017AAD50D0010EDB6A070EBB
:1006A800DB50F36E010EDBCFF4FFF350F45C11E284
:1006B8000B00010EDB50030FEA6A900FE96E000E83
:1006C800EA22EF50F55C02E00B0ED6D0010EDB2AD1
:1006D800E6D7070EDBCF10F000011050000180278D
:1006E800000E812382238323880EE96E000EEA6EB2
:1006F800EE500001805D106EEE5000018159116EC0
:10070800EE5000018259126EEE5000018359136EAB
:10071800105000017C190CE1115000017D1908E10D
:10072800125000017E1904E1135000017F1900E105
:1007380004E10001876B000E9FD08ED0020E80C0AE
:10074800DBFF030E81C0DBFF040E82C0DBFF050E5A
:1007580083C0DBFF010EDB6A070EDB50F36E010E70
:10076800DBCFF4FFF350F45C41E200017AA316D02A
:10077800010EDB50030FEA6A900FE96E000EEA22C1
:10078800EF50E66E020EDBCFE6FF030EDBCFE6FF8F
:1007980090EC14F0E552E552E5521BD000017AAD19
:1007A80018D0020EDBCFE6FF030EDBCFE6FF5DECD1
:1007B80014F0E552E552106E010EDB50030FEA6AA1
:1007C800900FE96E000EEA22EF50105C02E00B0E6B
:1007D80053D0D950020FE96EDACFEAFFEE2A000EA5
:1007E800EE22EE22EE22010EDB2AB6D7020EDBCF76
:1007F80080F0030EDBCF81F0040EDBCF82F0050E14
:10080800DBCF83F0880EE96E000EEA6EEE50000131
:10081800805D106EEE5000018159116EEE5000019E
:100828008259126EEE5000018359136E1050000168
:100838007C190CE1115000017D1908E112500001EA
:100848007E1904E1135000017F1900E104E1000161
:10085800876B000E11D000D0070EDB5000018727F0
:10086800000186510001875D03E30001876B02D018
:10087800FF0E02D0000E00D0106E0A0EE15C02E2FC
:10088800E16AE552E16E1050E552E7CFD9FF120058
:10089800D6EC0BF0020E00017A1503E1400E7A1532
:1008A80002E00C0EA2D0910508E0020E915D05E071
:1008B800030E915D02E0020E98D0000E95C0DFFF96
:1008C80003EC0BF0D9EC0AF094C010F0ADEC0BF08F
:1008D80093C010F0ADEC0BF092C010F0D9EC0BF017
:1008E800D880FF0EEE54FF0EEE54FF0EEE54000EAD
:1008F800EE5402E2030E79D0B0EC0BF0EECF10F01C
:10090800EECF11F0EECF12F0EFCF13F01050111020
:100918001210131002E1110E68D0D0EC0AF0000199
:10092800910503E0030E915D02E1400E04D0020E32
:10093800915D02E1010E866F210E905D02E1020ECB
:1009480004D0260E905D02E1400E7A6F91C07BF0D4
:100958000D0EE3EC0AF003E0F6EC0AF0FDE153ECCF
:100968000BF010C084F0130EE3EC0AF003E0F6EC91
:100978000AF0FDE1109ECCEC0BF010C085F0DFCF43
:100988007CF0010EDBCF7DF0020EDBCF7EF0030E94
:10099800DBCF7FF000017B51030A18E0010A0DE06C
:1009A800030A22E1C00E806F330E816F826B836B66
:1009B800C00E886F330E896F07D0040E806F816B6D
:1009C800826B836B886F896B8A6B0DD0EA0E806FA0
:1009D8007F0E816F010E826F836BEA0E886F7F0E28
:1009E800896F010E8A6F8B6B000E106E040EE15C2E
:1009F80002E2E16AE552E16E1050F2EF0AF0EDEC26
:100A08000AF0060EE1260D0EE3EC0AF003E0F6EC20
:100A18000AF0FDE153EC0BF01050DF6E130EE3EC1F
:100A28000AF003E0F6EC0AF0FDE15FEC0BF0020ED1
:100A3800DB6A030EDB6A040EDB6A050EDB6A020E54
:100A480000017A1505E1400E7A1502E1080E5FD023
:100A5800DF50845D04E1010EDB50855D02E00D0E80
:100A680056D07B51915D02E0020E51D07B51030AB2
:100A780014E0010A0AE0030A22E11FEC0BF0C00EA1
:100A8800105E330E115A000E06D01FEC0BF0040E48
:100A9800105E000E115A125A09D01FEC0BF0EA0E24
:100AA800105E7F0E115A010E125A000E135A73EC83
:100AB8000BF0040E12C0DBFF050E13C0DBFF7AA596
:100AC80023D0010E106ECCEC0BF07AEC0BF0102654
:100AD800EE501122EE501222EE5013227C51105C7F
:100AE8007D5111587E5112587F51135804E2D0ECB1
:100AF8000AF00F0E0CD07B0507E16C916C836CC07B
:100B0800E6FF020E57EC0BF0D0EC0AF0000E106E68
:100B1800060EE15C02E2E16AE552E16E1050F2EF86
:100B28000AF0D0EC0BF005E1FE0EDB50010B0108DA
:100B380002E1000E01D0010EF2EF0AF0D0EC0BF04A
:100B480005E0FE0EDB50010B010802E0000E01D0AB
:100B5800010EF2EF0AF0EDEC0AF00F0EE126DE6A64
:100B6800DE6ADE6A140EDD6EDD52DD520E0EDB80AB
:100B7800ABEC0AF0106E0F0EE15C02E2E16AE5529E
:100B8800E16E1050F2EF0AF0EDEC0AF0110EE126DA
:100B9800FD0EDBCF06F0FE0EDBCF07F00F0E06C012
:100BA800DBFF100E07C0DBFFFC0EDBCFE6FFF2EC2D
:100BB80000F034EC0BF0070EF36E0C0EF3CFDBFFF6
:100BC8000E0EDB90040E68C0DBFF050E69C0DBFF6C
:100BD800060E6AC0DBFF000173517411751176119E
:100BE80007E0D9500F0FE96EDACFEAFFEE88ED5231
:100BF800FF0EE76E81EC0BF0E7501016116A070E36
:100C080010C0DBFF81EC0BF011C010F0116AFF0E71
:100C18001016000E1116080E10C0DBFF7351E76E98
:100C2800090EE7CFDBFF74C010F075C011F076C075
:100C380012F00001136A1050E76E0A0EE7CFDBFFCF
:100C4800ABEC0AF0106E110EE15C02E2E16AE552CB
:100C5800E16E1050F2EF0AF0EDEC0AF0040EE12616
:100C6800070EE3EC0AF003E0F6EC0AF0FDE153ECC2
:100C78000BF01050DF6E8CC010F05FEC0BF00D0E17
:100C8800E3EC0AF003E0F6EC0AF0FDE11F0E1116A2
:100C9800126A136A73EC0BF0DF5017E1010EDB5098
:100CA80014E17AEC0BF0ED1010E194EC0AF040EC52
:100CB8000BF0B5EC0BF009E040EC0BF0BAEC0BF0E4
:100CC8000001775102E1A2EC0BF0040EE15C02E2B4
:100CD800E16AE552E16EF2EF0AF0EDEC0AF0E65255
:100CE800FE0EDB5002E0C00E01D0800E0001901114
:100CF800DF6E080EE66EE66AE66A9F0EE66E000E86
:100D0800C4EC0BF045EC01F004C09BF005C09CF06E
:100D180006C09DF007C09EF0FE0EDB500EE0FD0EF3
:100D2800DBCFE6FFF90EDB5003E0FA0EDB5001D013
:100D3800000EE552E724020F07D0FA0EDBCFE6FFDC
:100D4800FD0EDB50E552E7240001A76FA991DFCF24
:100D58009FF0FD0EDB046CEC0BF0A00EE66E000EAF
:100D6800E66EBAEC0BF0D95065EC0BF0ED1024E010
:100D7800FE0EDB5006E0FE0EDB501EE0F90EDB50E7
:100D88001BE0FA0EDBCFE6FFE66AFB0EDBCFE6FFE1
:100D9800FC0EDBCFE6FFFD0EDB50116A9F0F106ED5
:100DA800000E112210C0E6FF11C0E6FFC9EC13F0D7
:100DB800126E060EE15E1250FE0EDB5026E0010EAA
:100DC800E66EE66AD950FE0FE66EFF0EDA20E66E92
:100DD800FD0EDB50136A9F0F126E000E1322F90EE0
:100DE800DB5003E0FA0EDB5001D0000E00011224A4
:100DF800106E000E1320116E10C0E6FFE66EC9ECEF
:100E080013F0146E060EE15E1450010EE552E6D39F
:100E1800D9CFE6FFE1CFD9FF0A0EE126040EDB6A3F
:100E2800050EDB6A0D0E1F0B8CC010F08DC011F083
:100E38008EC012F08FC013F007E0D8901332123230
:100E480011321032E806F9E13F0E1016116A126AE3
:100E5800136A060E10C0DBFF130E1F0B8CC010F0B8
:100E68008DC011F08EC012F08FC013F007E0D8903B
:100E78001332123211321032E806F9E1109E116A6B
:100E8800126A136A070E10C0DBFF8CC010F08DC009
:100E980011F08EC012F08FC013F03F0E1016116AB9
:100EA800126A136A080E10C0DBFF060E1F0B8CC0F7
:100EB80010F08DC011F08EC012F08FC013F007E053
:100EC800D8901332123211321032E806F9E1109E2E
:100ED800116A126A136A090E10C0DBFF080EDB5094
:100EE8003F0804E0090EDB507F0802E1000E3FD105
:100EF800060EDB5000016A5D04E0060EDB503F0879
:100F080005E1070EDB500001695D02E0000E2FD1FC
:100F180007DB030E0001905D03E18CEC01F024D1A6
:100F28000001900515E1060EE66E6FC010F070C066
:100F380011F071C012F072C013F0126A136A10C077
:100F4800E6FF11C0E6FF20DEE552E552E5520CD17E
:100F580000016A51000801E307D100019051270AF6
:100F680001E1EFD0040A01E1D9D0010A01E1B4D0CE
:100F7800070A57E0040A40E0070A3EE0060A01E0D3
:100F8800F3D00001910521E1640EE66E000EE66ED5
:100F9800040EE66E070EE66E020EE66EE66A86DA66
:100FA800106E060EE15E10506F0EE66E000EE66ED5
:100FB800040EE66E070EE66E010EE66EE66A76DA57
:100FC800106E060EE15E105016D0020E0001915D03
:100FD8000BE16CC0E6FFA5DDE552000904E02BEC4F
:100FE80000F0E0EF19F007D0030E0001915D03E176
:100FF8002BEC00F0FF00B8D0E66A010EE66E860E14
:10100800E66E000EE66E060EE66E42DCE66E65DE05
:10101800106E060EE15E1050E76E040EE7CFDBFFA0
:10102800A3D000016C9300016C81010EE66E010EE5
:10103800E66EE66A90EC14F0E552E552E5526CC0B3
:10104800E6FF020EE66EE66A90EC14F0E552E55211
:10105800E552C00EDE6E330EDE6EDE6ADD6ADD52EC
:10106800DD52D9CFE9FFDACFEAFFFF0EEE5C7F0E43
:10107800EE58010EEE58000EEE581CE2DFCFF6FFD8
:10108800010EDBCFF7FF020EDBCFF8FF940EA66E42
:10109800550EA76EAA0EA76EA682D9CFE9FFDACFA2
:1010A800EAFF400EEE26000EEE22000EEE22000EA3
:1010B800EE22D7D7E66AE66A000EE66EE66A020E08
:1010C800E66EE66A0ADE106E060EE15E1050E76E06
:1010D800040EE7CFDBFF48D0A5EC01F0E76E050E64
:1010E800E7CFDBFF050EDB50FF0801E13DD0010E25
:1010F800E66E010EE66E870EE66E000EE66E020ED6
:10110800E66E050EDBCFE6FFE8DD106E060EE15E4B
:101118001050E76E040EE7CFDBFF26D0E66AE66ADA
:10112800000EE66EE66A020EE66E69DCE66ED5DD56
:10113800106E060EE15E1050E76E040EE7CFDBFF7F
:1011480013D00001010E6E6F0101A00E2E6F860EE6
:101158002F6F010E306FAA0EE66E000EE66E19ECC8
:1011680012F0E552E55200D0040EDB5000D0106EAC
:101178000A0EE15C02E2E16AE552E16E1050E552C6
:10118800E7CFD9FF12000001785133E0000169511F
:1011980030E10001B6512DE0AE0EE66E000EE66EAF
:1011A8005BEC12F0E552E552000923E00101A00EC4
:1011B8002E6F860E2F6F010E306FAA0EE66E000E90
:1011C800E66E19EC12F0E552E552C5DC000903E0C1
:1011D8000001786B0ED00101300E2E6F750E2F6F47
:1011E800306BAE0EE66E000EE66E19EC12F0E552AC
:1011F800E5526CC0E6FFA2DCE552000906E10001F9
:101208006D0503E000016E514FE00001010E6E6FA5
:101218000001775148E0AA0EE66E000EE66E5BEC20
:1012280012F0E552E55200093EE0E66AE66AE66A2F
:10123800E66A72EC00F0E552E552E552E55200012B
:10124800B65131E0640EE66E000EE66E040EE66EF0
:10125800070EE66E020EE66EE66A28D9106E060ED6
:10126800E15E1050000902E0000E01D0010E0001FD
:10127800776F0001775117E16F0EE66E000EE66E8C
:10128800040EE66E070EE66E010EE66EE66A0ED9ED
:10129800106E060EE15E1050000902E0000E01D04B
:1012A800010E0001776F43D000016E5140E1020E3C
:1012B800E66EE66AE66AE66A72EC00F0E552E55226
:1012C800E552E5520001795124E00001B65121E0D0
:1012D800AA0EE66E000EE66E5BEC12F0E552E552E1
:1012E800000917E06F0EE66E000EE66E040EE66E5D
:1012F800070EE66E010EE66EE66AD8D8106E060E88
:10130800E15E1050000902E0000E01D0010E00015C
:10131800796FB20EE66E000EE66E5BEC12F0E552E7
:10132800E552000904E02BEC00F0E0EF19F0939C83
:10133800D90EE66E000EE66E5BEC12F0E552E55251
:10134800000912E08150400B0FE0819C0101200E42
:101358002E6F4E0E2F6F306BD90EE66E000EE66EB6
:1013680019EC12F0E552E552939EDD0EE66E000E82
:10137800E66E5BEC12F0E552E552000912E081508E
:10138800800B0FE0819E0101200E2E6F4E0E2F6FF5
:10139800306BDD0EE66E000EE66E19EC12F0E552CB
:1013A800E55259EC0CF0010864E10F0EE1266FECF0
:1013B8000DF0EECF8CF0EECF8DF0EECF8EF0EECFBD
:1013C8008FF0EECF90F0EECF91F0EECF92F0EECF1F
:1013D80093F0EECF94F0EECF95F0EECF96F0EECFFF
:1013E80097F0EECF98F0EECF99F0EECF9AF0106E1E
:1013F8000F0EE15E105000019AB13BD000018F51F1
:101408001C0BE842E842030A31E0060A2FE0020A10
:101418002DE0030A03E0060A01E02BD0F9DC0009FD
:1014280024E09BC0E6FF9CC0E6FF9DC0E6FF9EC08F
:10143800E6FF9FC0E6FFA0C0E6FFA1C0E6FFA2C08E
:10144800E6FFA3C0E6FFA4C0E6FFA5C0E6FFA6C06E
:10145800E6FFA7C0E6FFA8C0E6FFA9C0E6FF99EC33
:101468000CF0106E0F0EE15E105003D030EC06F059
:1014780000D00101125119E0010111A716D0010E87
:10148800E66E6FC010F070C011F071C012F072C03B
:1014980013F0126A136A108A10C0E6FF11C0E6FF43
:1014A800C8EC05F0E552E552E552120092D80F0E4D
:1014B800E12600016A51000829E2FC0EDBCFE6FFB5
:1014C800FD0EDBCFE6FFFE0EDBCFE6FF19EC01F0E9
:1014D800E552E552C5D8FB0EDB50E76E0C0EE7CFA0
:1014E800DBFF0E0EDB90FB0EDBCFE6FFE66AF90EA4
:1014F800DBCFE6FFFA0EDBCFE6FFD950040FE66E2E
:10150800000EDA20E66E32D922D801D0010E106E14
:101518000F0EE15C02E2E16AE552E16E10505ED026
:10152800939CD90EE66E000EE66E5BEC12F0E55267
:10153800E552000905E08150400B02E1818C1AD97F
:101548001200126A136A1050EFD8B0EF0BF004D9EA
:10155800E0D8DFD8DED899EC0CF0106E0F0EE15E03
:1015680010501200D890EF36010EEB36020EEB3613
:10157800030EEB36E70612000BD91050D5D8DECF94
:1015880004F0DECF05F0DECF06F0DDCF07F0DD5248
:10159800DD52040EE15C1200120EE66EE66AE66A9F
:1015A8007A0EE66E000EC4EF0BF0EF50EE6AEFCF46
:1015B800F4FFEE6EEF50F4CFEEFFEF6E12001F0B4C
:1015C8008CC010F08DC011F08EC012F08FC013F0D7
:1015D8001200D9CFE6FFE1CFD9FF1200E552E7CFDD
:1015E800D9FF1200D8901332123211321032E806A5
:1015F8001200106ECDD8E85097D8B0EF0BF0010E5E
:10160800DB6A020EDB6A030EDB6AB0EF0BF0106ECA
:10161800060EE15E10501200E66E19EC12F0E5526B
:10162800E5521200040EE126DE6ADE6ADE6ADD6A31
:10163800DD52DD52120080C010F081C011F082C06E
:1016480012F083C013F01200010EE66EE66A950EE2
:10165800E66E000EE66E6A0EE66E000EE66E12008C
:10166800E55204C0DEFF05C0DEFF06C0DEFF07C08E
:10167800DDFFDD52DD521200010EE66EE66A900EC5
:10168800E66E000EE66E690EE66E000EE66E12005D
:101698000101200E2E6F4E0E2F6F306B12003F0E81
:1016A8001016CCEF0BF0E66EE66A90EC14F0E552FB
:1016B800E552E5521200109E6BD8010E10C0DBFFF8
:1016C8001200FB0FE96EFF0EDA20EA6EEE501200F0
:1016D800E66EE66A910EE66E000EE66E1200020EE7
:1016E80010C0DBFF030E11C0DBFF1200D950020F40
:1016F800E96EDACFEAFFEE5012000F0EDBCF10F0E2
:10170800100EDBCF11F01200640EE66E000EE66ECE
:101718001200EECFE6FFEECFE6FFEECFE6FFEECF0C
:10172800E6FFEECFE6FF1200DE121150DE12125075
:10173800DE121350DD12DD52DD521200E5DF040E19
:10174800E66E070EE66E020EE66EE66AAFDE0BEF99
:101758000BF02BD8D9EF0AF0D9CFE9FFDACFEAFF9F
:101768001200A0EC13F053DF00091200C9EC13F0CB
:101778000BEF0BF08DDFD90EE66E000E10EF0BF0BD
:10178800E66EF4EC13F0106E050EE15E10501200D8
:10179800116A126A136A12001CDFFE0EDB50020B7C
:1017A8000208120016DF16EF0BF0116AA5EF0AF017
:1017B8000F014097746A3F0E7EEF0EF06CDA939437
:1017C80093869F0E97DA00094BE0800E776EFE0E27
:1017D800DB50706EFD0EDB50716EFC0EDB50726ECE
:1017E800606A0F01506B0D01F86B0E01206B306BB6
:1017F800406B506B606B706B746A0D01D469D5696E
:10180800400EF06FA90EF16FAA0EF26FEA0EF36F99
:10181800FA6BFC6B0F01080E016F056F096F0D6FF6
:10182800116F156F0D01616F656F696F716F756F5E
:10183800796F816F856F896F0F011B6B1A6B196B3D
:10184800186B1F6B1E6B1D6B1C6B0D01936B926BE2
:10185800916B906B200E736E1F0E4CDA000902E13B
:10186800000E01D0010E1CD216DA0101100E2E6FE7
:10187800270E2F6F306B1FDA1F0E6F14106EFE0EBF
:10188800DB50E00B10106F6EE00E6E14106EFE0E43
:10189800DB50E00B105C07E0D50EE66E000E04DAB4
:1018A800F3E0000E01D0010EFBD10F0E6F14106E85
:1018B800E00E771410091010776E800E60148008FF
:1018C80001E1010C000CE7D9E652DF6AFDD90EE20E
:1018D80003DAEF50E66EDF50EA6AB90FE96E000EE0
:1018E800EA22E552E750EF6EDF2AF0D7A4BEA49EA5
:1018F800609EE552D5D1CFD9E652E00E7716030E99
:101908007712DF6AE1D90EE2DF50EA6AC70FE96EA3
:10191800000EEA22EF50E66EDFD9E552E750EF6E8F
:10192800DF2AF0D76086E552BBD1B5D9020EE12691
:10193800FC0EDB50080805E2080EF36EFC0EF3CF30
:10194800DBFFFC0EDBCFCCF0D950F00FE96EFF0EB9
:10195800DA20EA6E0E0EE926000EEA22EF50010B9D
:1019680029E10001CC9D010EDB6AFC0EDB50F36E11
:10197800010EDBCFF4FFF350F45C1EE2D950F40FF4
:10198800106EFF0EDA20116E010EDB501024E96E86
:10199800000E1120EA6EEF50E66E010EDB50EA6A87
:1019A800CD0FE96E000EEA22E552E750EF6E010E08
:1019B800DB2ADBD70001CC8DF00EDBCF10F0F10E67
:1019C800F20EF30E10500001CB6F58D9080E8BD9C8
:1019D800FEE110500001CA6FF00EDBCF18F0F10ED7
:1019E800DBCF19F0F20EDBCF1AF0F30EDBCF1BF0D2
:1019F8000D0ED8901B321A3219321832E806F9E166
:101A0800E00E1C6E1D6A1E6A1F6AE85018161D50EB
:101A180019161E501A161F501B16F00EDBCF14F0A5
:101A2800F10EDBCF15F0F20EDBCF16F0F30EDBCFA5
:101A380017F016C010F0126A136A030E10165ED95A
:101A4800105018100001C96F19D9150E4CD9FEE1B4
:101A580010500001C86FC987030EC76F0101C00E7F
:101A68002E6FCF0E2F6F6A0E306F25D9E00E7716C6
:101A7800030E77120F0140A70BD0A9EC0EF0D50E7C
:101A8800E66E000E11D9F6E00F014097000E1AD04D
:101A9800939EDD0EE66E000E07D912E08150800B92
:101AA8000FE1818E0101200E2E6F4E0E2F6F306BCD
:101AB800DD0EE66E000EE66E19EC12F0E552E55208
:101AC8001ADF010E106E020EE15C02E2E16AE552D5
:101AD800E16E1050E5D0DFD8100EE126F4DE0F0ECF
:101AE8000001BE15E76E0C0EE7CFDBFFB9AB03D0E4
:101AF8000E0EDB8029D00E0EDB900F0EDB6A0C0E6B
:101B0800DB50F36E0F0EDBCFF4FFF350F45C1CE2F6
:101B18000F0EDB50EA6ABF0FE96E000EEA22EF50A3
:101B2800E66ED950040F106EDACF11F00F0EDB50AD
:101B38000F011024E96E000EDA20EA6EE552E75034
:101B4800EF6E0F0EDB2ADBD7BAC010F0D7D8030E22
:101B58001F0B02E08CD8FEE17BD80001BB51E00BE3
:101B6800E838E840106ECAD8E8507ED8EFCF13F0B6
:101B7800020E1F0B02E07BD8FEE1030E0001BB152D
:101B8800146E156A166A176AE85010121550111269
:101B980016501212175013125BD8B4D8EFCF13F0A7
:101BA800100E1F0B02E063D8FEE152D8BCC010F043
:101BB800A5D8080E1F0B02E05AD8FEE11050ADD888
:101BC800BDC010F09BD810504FD8EECF13F0EECF19
:101BD80014F0EECF15F0EECF16F0EECF17F0EECFF3
:101BE80018F0EECF19F0EECF1AF0EECF1BF0EECFD3
:101BF8001CF0EECF1DF0EFCF1EF0D9CFE9FFDACF02
:101C0800EAFFED50ED501EC0EDFF1DC0EDFF1CC0FA
:101C1800EDFF1BC0EDFF1AC0EDFF19C0EDFF18C0A6
:101C2800EDFF17C0EDFF16C0EDFF15C0EDFF14C0A6
:101C3800EDFF13C0EDFF12C0EDFF11C0EDFF10C0A6
:101C4800EFFF100EE15C02E2E16AE552E16E28D096
:101C580010C0DFFF010E11C0DBFF020E12C0DBFF58
:101C6800030E13C0DBFF120058D886EF0EF0D89091
:101C78001036113612361336E8061200F00EDBCF96
:101C880010F0F10EDBCF11F0F20EDBCF12F0F30EF5
:101C9800DBCF13F01200D9CFE6FFE1CFD9FF120056
:101CA800E552E7CFD9FF1200E66E5BEC12F0E55281
:101CB800E55200091200D50EE66E000EE66E19EC2C
:101CC80012F0E552E5521200DF50106E116A0E0E46
:101CD800105C000E11581200DF50EA6A600FE96EBE
:101CE8000F0EEA221200D89013321232113210323B
:101CF800E8061200E66EB8DDE5521200116A126AB3
:101D0800136A1200D9CFE9FFDACFEAFFEECF10F05D
:101D1800EECF11F0EECF12F01200DE121150DE12EB
:101D28001250DE121350DD12DD52DD521200010195
:101D3800500E2E6FC30E2F6F306BA4D919EC12F012
:101D4800E552E5520001F96B1200D9CFE6FFE1CF69
:101D5800D9FF050EE12696D95BEC12F0E552E55263
:101D6800000915E00101500E316FC30E326F336B5D
:101D780089D92FEC12F0E552E5520001FB1FFC1F38
:101D8800FA2B040EFA5D03E1FA6BFD1FFE1F00013A
:101D9800E551FD15106EE351FB15E1111010DF6ED2
:101DA800F9A10BD0939AD9CFE9FFDACFEAFFEF5028
:101DB800010B02E0819A01D0818AF9A30BD0939894
:101DC800D9CFE9FFDACFEAFFEF50020B02E08188B2
:101DD80001D08198F9A516D0EB51FD15106EE95187
:101DE800FB15E7111010DF6E080EF36E020E25D9F1
:101DF800829094903CD98280020EDB06FDE18290AD
:101E080007EC00F00001F9A716D0F151FD15106E8E
:101E1800EF51FB15ED111010DF6E080EF36E030E77
:101E28000CD98292949223D98282030EDB06FDE1BB
:101E3800829207EC00F00001F9A932D0F551FB15A8
:101E4800146EF651FC15156EF3511410126EF45100
:101E58001510136EF751FD15166EF851FE15176E15
:101E680012501610106E13501710116E10C0DEFFAE
:101E7800DD6E080EF36E040EE0D8829494941BD99C
:101E880011C010F0116A1050E66E7DEC15F0E552A5
:101E9800EED88284040EDB06FDE1829407EC00F0A4
:101EA800050EE15C02E2E16AE552D4D0C1D803E153
:101EB800DE68DD680CD0E1D804E0D890F336E80697
:101EC800FCE1F350106E116A10BE1168FFD8F3D808
:101ED800DED8F6D8DCD8020EA6D8EDD8D8D8040EAD
:101EE800FAD802E2E16AE552B5D0A2D803E1DE6889
:101EF800DD680CD0C2D804E0D890F336E806FCE1DF
:101F0800F350106E116A10BE1168E0D8D4D8C4D846
:101F1800020EE926000EEA22D3D8BED8ECD8BCD8E7
:101F2800040ED9D802E2E16AE55294D081D803E1DF
:101F3800DE68DD680CD0A1D804E0D890F336E80656
:101F4800FCE1F350106E116A10BE1168BFD8B3D807
:101F5800A8D8040EE926000EEA22B2D8A2D8CBD817
:101F6800A0D8020EB8D802E2E16AE55273D060D870
:101F780003E1DE68DD680CD080D804E0D890F33641
:101F8800E806FCE1F350106E116A10BE11689ED885
:101F980044D88CD8B0D88AD8040E45D88CD886D8DE
:101FA800020E99D802E2E16AE55254D09DD857D87A
:101FB8000750DF6E54D80350020801E2DF2ADFA081
:101FC80004D0DE52010EDD6E02D0010EDB6ADF9016
:101FD800DF42E6680101F30E0F6F000E106FC7DFD6
:101FE800E552DF50ABEC15F0F3CFF3F0F4CFF4F09B
:101FF8000001010EF35F000EF45B010EDB5007E0F9
:10200800DF50ABEC15F0F3CFF7F0F4CFF8F0020E99
:10201800E15C02E2E16AE5521DD04DD8101E111EA6
:1020280055D85FEF10F0E926000EEA2273EF10F0A2
:102038005BD8FE0EDB50FF081200F3CFDBFF800EEB
:10204800E66EE66A020EE66EA5EC14F0E552E5527D
:10205800E5521200E16EE552E7CFD9FF1200050EF6
:10206800106E0C6EFE0EDBCF07F09DEF15F0DFCF84
:10207800E6FF7DEC15F0E5521200010EF36EFE0E40
:10208800DB501200050EE66E010EE66E120009C165
:10209800E9FF0AC1EAFF12000BC1E9FF0CC1EAFF20
:1020A80012000DC1E9FF0EC1EAFF12000FC1E9FFDE
:1020B80010C1EAFF1200DECF10F0DDCF11F01200E0
:1020C8001050EE121150ED1211EF10F010C0DEFF9B
:1020D80011C0DDFF1200A7DF020EE15C12001050F4
:1020E800EE161150ED161200D9CFE6FFE1CFD9FF59
:1020F800020EE1261200F3DF5FEF10F0D9CFE6FF02
:10210800E1CFD9FF040EE1260101400E2E6F190E12
:102118002F6F010E306FD9CFE6FFDACFE6FF19EC4B
:1021280012F0E552E552D9CFE6FFDACFE6FF4EECE2
:1021380012F0E552E552040EE15C02E2E16AE55272
:10214800E16EE552E7CFD9FF120029D9010EDB6A0B
:10215800000E16D900016B6F010E12D900016D6FC8
:10216800020E0ED900016C6F00016B0509E1000138
:102178006A6B020EE66E000E0AD9E66A030E07D9EC
:102188006CC0E6FF95EC05F0E552000968E0020E28
:1021980000016D15020863E1040E00016C11E66E82
:1021A8000CD904D904E0040EDF14040815E0050E68
:1021B800F36E010EDBCFF4FFF350F45C0DE2640E16
:1021C800E66E66EC15F0E552060EDF6EDFCFE6FF31
:1021D800F4D8010EDB2AE5D7E9D804E0040EDF14B1
:1021E800040814E0E66A0101E10E0B6F000E0C6FA3
:1021F80079EC0FF0E552A9EC0EF0040EE66EE66AF3
:10220800E66AE66A34EC00F0E55226D00101700E69
:10221800266F3D0E276F286B040E00016C1504080D
:1022280009E007D028C1FBFF27C1FAFF01012651A9
:10223800F96EF8DF00016CA503D06C876C9505D0AA
:10224800080E6C15080801E16C976CC0E6FF020ED9
:10225800E66EE66A90EC14F0E552E552E552020E9D
:10226800E15C02E2E16AE552E16EE552E7CFD9FFAF
:10227800120000016E6B939E819E939C819C070EB9
:10228800B46E0D0EC16E12000101046B020E036FD5
:10229800026B050E016F1200D0B206D00101010ECB
:1022A800006FD082D0801200D0B006D00101020E9B
:1022B800006FD08082EF10F0D0B603D00101050E78
:1022C8001CD0D0B805D00101060E006FD0881200CE
:1022D800D0B403D00101040E10D0FCAE05D001012A
:1022E800070E006FFC9E1200FCAC05D00101080E21
:1022F800006FFC9C12000101030E006F1200040025
:10230800A9EC0EF066EC13F01200B3DF09EC12F042
:102318009BEC0EF00001010EF96FA9EC0EF0E66AD5
:102328000101E10E0D6F000E0E6F9AEC0FF0E552F1
:1023380048EC13F0B1DFA8DF2BEF00F030D8DE6AED
:10234800DD6AE66866EC15F0E552DFDFFEDE97EC45
:1023580000F01AEC00F0DECF10F0DDCF11F0C40E63
:10236800105C090E115804E31AEC00F0DE6ADD6A0D
:10237800C6DFC7EC08F0DF2A010EEDE3DB2AEBD756
:10238800E66EE66A5DEC14F0E552E5521200E66E80
:10239800E66A90EC14F0E552E552E5521200D9CF06
:1023A800E6FFE1CFD9FF020EE1261200DFCFE6FFFC
:1023B80095EC05F0E55200091200020EE8DF020E66
:1023C800DFDFDF6E1200D2D8030EE126D8D89EA038
:1023D80004D0D5D801012D2B9E90020E2DC1DBFF14
:1023E800DFCF10F0010EDBCF11F0020EDBCF12F0C1
:1023F80010C005F011C006F012C007F0030EE15C32
:1024080002E2E16AE552E16EB6D0750EE66E0AECBC
:1024180015F0E552000EE66EE66A4AEC15F0E55254
:10242800E5529E9001012D6B1200A0D8030E93D89F
:10243800D9CFE9FFDACFEAFFEE5001012E25106E61
:10244800EE502F21116EEE503021A7D802E2E16A3A
:10245800E552E16E90D08AD8030EE126AED8EECFD1
:10246800DFFF010EEECFDBFF020EEECFDBFFD9CF91
:10247800E9FFDACFEAFFEE5001013125106EEE5088
:102488003221116EEE50332188D802E2E16AE5521A
:10249800E16E71D06BD8FD0EDBCFE6FFFE0EDBCF11
:1024A800E6FF05D8E552E5520009F5E064D05ED8AC
:1024B800060E51D87FD8EECFDBFF040EEECFDBFF40
:1024C800050EEECFDBFF42D8EF5035E1DFCF12F03B
:1024D800010EDBCF13F0020EDBCF14F0149E030EB7
:1024E800DBCF15F0040EDBCF16F0050EDBCF17F0AF
:1024F800179E1550125C165013581750145802E3C3
:10250800000E01D0010E116ED9CFE9FF3FD801E0CE
:10251800010E106ED950030FE96E38D801E0010E94
:10252800105C02E0000E01D0010E1118E66E0ED804
:10253800E552E750EF6E0AD8EF50106E060EE15CD8
:1025480002E2E16AE552E16E105015D033D8E9266F
:10255800000EEA221200E12636DF05C0DFFF010E79
:1025680006C0DBFF020E07C0DBFF1200D9CFE6FF73
:10257800E1CFD9FF1200E552E7CFD9FF12002BECCB
:1025880015F0F3CFDEFFF4CFDDFF1200DACFEAFF5C
:10259800EE52EE52EF50800B1200126E0ED810C0A1
:1025A800EEFF11C0EEFF12C0EEFFD0DFEF6A030EA0
:1025B800E15C120002D8030E1200FD0EDBCFE9FF2A
:1025C800FE0EDBCFEAFF12009288928A96809682EE
:1025D80096841200D9CFE6FFE1CFD9FF030EE1269A
:1025E800F3DF020EDB6A80A8DB8080AADB8284A08E
:1025F800DB8484A2DB8684A4DB88010E11C1DBFFA7
:10260800DF6A050EDF5C32E2D950010FE96EDACFDE
:10261800EAFFEF50010B02E0020EDB8AD950020FED
:10262800E96EDACFEAFFEF50010B0FE072D8EFCF77
:1026380010F0050E105C02E26CD8EF2A6AD8EF5051
:1026480005080EE1020EDB8A0BD063D8EF500008B4
:1026580002E25FD8EF065DD8EF5002E1020EDB9A86
:10266800DF2A020E5DD8010E5BD8CBD7020EDB50F5
:10267800106E030EE15C02E2E16AE552E16E105071
:10268800E552E7CFD9FF12000101200E2E6F4E0E42
:102698002F6F306B4CD819EC12F0E552E55201015E
:1026A800116B126B050EE66EE66AE66A170EE66EA9
:1026B800010EE66EF4EC13F0106E050EE15E10509C
:1026C800E8EF12F0D9CFE6FFE1CFD9FFE6522FD8D5
:1026D8005BEC12F0E552E552000914E00101200E0E
:1026E800316F4E0E326F336B22D82FEC12F0E55259
:1026F800E55270DFDF6EDF5001011119126FDFCF75
:1027080011F102D00101126BE552E552E7CFD9FF72
:102718001200DF50EA6A170FE96E010EEA22120072
:10272800DBCFF3FFF390F342F3CFDBFF1200130E7E
:10273800E66E010EE66E1200D9CFE6FFDACFE6FFAD
:10274800FA0EE3CFD9FFFB0EE3CFDAFFFC0EE3CF9F
:10275800E9FFFD0EE3CFEAFFF80EE35003E1F90EBF
:10276800E35008E0F80EE30602E2F90EE306DE5055
:10277800EE5CF2E0F36EFF0EE3CFDAFFE552FF0EF8
:10278800E3CFD9FFE552F3501200D9CFE6FFDACFF5
:10279800E6FFFA0EE3CFD9FFFB0EE3CFDAFFFC0E1C
:1027A800E3CFE9FFFD0EE3CFEAFFE9CFF3FFEACF7E
:1027B800F4FFF80EE35003E1F90EE35008E0F80ED9
:1027C800E30602E2F90EE306DECFEEFFF2D7FF0ED4
:1027D800E3CFDAFFE552FF0EE3CFD9FFE55212004F
:1027E800FE0EE3CFE9FFFF0EE3CFEAFFE9CFF3FFE9
:1027F800EACFF4FFFB0EE35003E1FC0EE35009E0DF
:10280800FB0EE30602E2FC0EE306FD0EE350EE6E5D
:10281800F1D71200260EF66E000EF76E000EF86E57
:1028280001010900F550216F0900F550226F03E1FD
:10283800216701D03DD00900F5501C6F0900F55003
:102848001D6F0900F5501E6F09000900F550E96E6B
:102858000900F550EA6E090009000900F5501F6FDC
:102868000900F550206F09000900F6CF23F1F7CFD2
:1028780024F1F8CF25F11CC1F6FF1DC1F7FF1EC1D9
:10288800F8FF01011F5302E1205307E00900F5504A
:10289800EE6E1F07F8E22007F9D723C1F6FF24C11F
:1028A800F7FF25C1F8FF01012107000E225BBFD702
:1028B8001200D9CFE6FFE1CFD9FFFF0EE76EFD0E7C
:1028C800DBCF10F0E75010161050A96EFE0EDBCFCC
:1028D80011F011C010F01150AA6EA69EA69CA680F9
:1028E800A850E552E7CFD9FF120001013451A96E73
:1028F80035C110F01050AA6E36C1A8FFA69EA69C3E
:10290800A684550EA76EAA0EA76EA6821200A6B2BE
:1029180002D0A694010C000CD9CFE6FFE1CFD9FF75
:10292800FC0EDBCF36F1FD0EDBCF34F1FE0EDBCF34
:1029380035F1DBDFECDF0009FDE0E552E7CFD9FF39
:102948001200D9CFE6FFDACFE6FFE1CFD9FFE2CF19
:10295800DAFF3F0EC716C66AFD0EDB50C612FB0E25
:10296800DB50C712FC0EDB50030A09E0010A04E041
:10297800020A06E1C78C04D0C78CC68801D0C68875
:10298800FD0EDB50050A05E0010A05E19486928AEE
:1029980003D0948601D094969488949AC68AE55276
:1029A800E5CFDAFFE7CFD9FF1200D9CFE6FFE1CFB5
:1029B800D9FF040EE126000E12EC00F0E76E030EBC
:1029C800E7CFDBFF11EC00F0E76E020EE7CFDBFF8D
:1029D80010EC00F0E76E010EE7CFDBFF0FEC00F024
:1029E800DF6EDECF04F0DECF05F0DECF06F0DDCF00
:1029F80007F0DD52DD5200D0040EE15C02E2E16A2C
:102A0800E552E16EE552E7CFD9FF1200D9CFE6FFD4
:102A1800DACFE6FFE1CFD9FFE2CFDAFFFD0EDB50D8
:102A28007E0BCD6EFD0EDBAC02D0CD8E01D0CD9EDF
:102A3800CF6ACE6A9E90DBAE02D09D8001D09D9079
:102A4800CD80E552E5CFDAFFE7CFD9FF1200D9CF25
:102A5800E6FFDACFE6FFE1CFD9FFE2CFDAFFE652B1
:102A6800E652CE50DF6E010ECFCFDBFFDECF10F087
:102A7800DDCF11F010C0F3FF11C0F4FFE552E552AD
:102A8800E552E5CFDAFFE7CFD9FF1200D9CFE6FF4D
:102A9800DACFE6FFE1CFD9FFE2CFDAFFE652E6521E
:102AA800FC0EDBCFDEFFDBCFDDFF010EDB50CF6E90
:102AB800DF50CE6EE552E552E552E5CFDAFFE7CFBB
:102AC800D9FF1200FF0EE350216EEF0E01D0F30E76
:102AD800E76EE72E6DEF15F00C0E206EE76AE72E15
:102AE80073EF15F0202E72EF15F0212E6BEF15F015
:102AF8001200D9CFE6FFE1CFD9FFFE0EDB50C96E39
:102B0800C6AE02D0FF0E03D0C7A0FED7C950E5520B
:102B1800E7CFD9FF12001CEE00F02CEE00F0F86AA7
:102B28000F9C0EEC14F003EC00F0A2EC11F0FBD7B4
:102B38001200036A080EE76ED890073603360C5069
:102B4800035C02E3036E072AE72EF7D71200F36A45
:102B5800F46AF32A0F0B05E0D890F336F436E8044C
:102B6800FBE1120000EE00F00D0EEE6AEA62FDD7FE
:102B7800120000000000000000000000000000003B
:102B8800000000000000000000000000000000003D
:0633C000CCEFBDF012008D
:0633D80032EF87F0120045
:1033F00010009E7D010005010000EA0000009B7D99
:1034000001003F07000003000000907D0100E0067E
:1034100000000B0000008F7D01004E08000001003D
:1034200000006C7D0100BD06000023000000397D16
:1034300001003706000033000000317D0100210744
:103440000000080000002B7D0100FA0500000600C6
:103450000000DD7C0100000800004E000000AD7C93
:1034600001006A060000300000007F7C0100D204E9
:1034700000002E0000005E7C01000007000021001B
:1034800000002F610100FF01000001000000247C0A
:103490000100C00500003A000000207C0100380750
:1034A000000004000000087C0100720A00001800FF
:1034B000000071DB1C0EE126D0C9DFFF010ED1C96F
:1034C000DBFF020ED3C9DBFF030ED2C9DBFF040E04
:1034D0006BC8DBFF050ECDC9DBFF060EC9C9DBFFDC
:1034E000070ECAC9DBFF080ECBC9DBFF090ECCC92A
:1034F000DBFF0A0E91CADBFF0B0E92CADBFF0C0E3C
:1035000093CADBFF0D0E94CADBFF0E0E06CADBFF6B
:103510000F0E07CADBFF100E09CADBFF110E08CA27
:10352000DBFF120E6BC8DBFF130E05CADBFF140EA8
:10353000FAC9DBFF150EFBC9DBFF160EFCC9DBFF6A
:10354000170EFDC9DBFF180E96CADBFF190E97CACE
:10355000DBFF1A0E98CADBFF1B0E99CADBFF1E0E9B
:10356000E66E070EE5DA120EE66E070EE1DA150ECC
:10357000E66E070EDDDA180EE66E070ED9DA1B0EC0
:10358000E66E070ED5DAD9CFE6FFDACFE6FF000EFA
:10359000E66E070EE66EC0D8F0DA91DB090EE66E35
:1035A000070EE66EB9D8E9DA0901BF5111E0800EC5
:1035B0000901C01503E0080166510AE008016D51D8
:1035C00007E1040EE66E4AEC7FF0E552000907E0E1
:1035D000010EDB6A020EDB6A030EDB6A09D0D2DA67
:1035E000BAD8CBDA120EE66E070EE66ECBDAE3DA65
:1035F0000A01045111E0800E0901C01503E0080121
:1036000066510AE008016D5107E1050EE66E4AECCD
:103610007FF0E552000907E00F0EDB6A100EDB6A4F
:10362000110EDB6A09D0A3DA96D8A7DA180EE66E77
:10363000070EE66E9CDABFDADF500901D05D06E0C6
:10364000DFCFD0F9010EE66E310E35DA010EDB5018
:103650000901D15D06E0010EDBCFD1F9E66E320E35
:103660002ADA020EDB500901D35D07E0020EDBCF40
:10367000D3F9010EE66E340E1EDA030EDB5009019B
:10368000D25D07E0030EDBCFD2F9010EE66E330EFA
:1036900012DA040EDB5008016B5D07E0040EDBCF8D
:1036A0006BF8010EE66E3E0E06DA0E0EDB500A01D6
:1036B000065D07E00E0EDBCF06FA010EE66E8D0EFC
:1036C000FAD90F0EDB500A01075D07E00F0EDBCFC2
:1036D00007FA010EE66E8E0EEED9100EDB500A01CF
:1036E000095D07E0100EDBCF09FA010EE66E900EC1
:1036F000E2D9110EDB500A01085D07E0110EDBCFA5
:1037000008FA010EE66E8F0ED6D91C0EE15C02E2BD
:10371000E16AE552E16E44D23EDAE0DA8DDADEDAD1
:1037200010DA05EC93F0D2DA0901C0AF13D0DBDA7E
:1037300054DAE2D9F3D9AFDA02E1DED97DDA77D90A
:103740004CDADAD9FED9ADDA05E1D6D9FAD904ECEA
:1037500093F0BCDA25D21FDA0D0EE1260C0EDB6ADF
:10376000C5DAECD9A5D942DA22DA22E008016351A0
:1037700003E108016B511CE124DA7CC8DBFF050E74
:103780007DC8DBFF060E7EC8DBFF070E7FC8DBFFB0
:1037900036DAD4D9080E3ADAEF6A45DA84D9CED9C6
:1037A00058D905EC93F077DA38E041D9030E26D0EA
:1037B0009DDA7ED91BDA82EC95F0010A23E008013C
:1037C000635103E108016B511DE0FBD980C8DBFFA9
:1037D000050E81C8DBFF060E82C8DBFF070E83C81B
:1037E000DBFFBFD913DA010EEF6E21D9BDD9EF6A25
:1037F0007DDA2FD956DA11E01AD9020E19DA010E44
:10380000EF6E0BD00C0EDB6ADE6ADE6ADE6ADD6A02
:10381000DD52DD5208DAA8D9EF6A09D9050E08DAB7
:10382000EF0401E0AAD00C0EDB5001E1A4D0FFD8D8
:103830000A0EFED906DA080EDBCF08F0090EDBCF40
:1038400009F00A0EDBCF0AF00B0EDBCF0BF008C03D
:1038500034F009C035F00AC036F00BC037F004C0B0
:103860002FF005C030F006C031F007C032F004EC94
:1038700093F029D92FC0E6FF30C0E6FF31C0E6FF44
:1038800032C0E6FF28ECBCF078D92EC0DEFF2FC096
:10389000DEFF30C0DEFF31C0DDFFDD52DD521CD95E
:1038A000DBCF04F0050EDBCF05F0060EDBCF06F014
:1038B000070EDBCF07F0CED999D979D903E0B7D875
:1038C000030E57D009D9DBCF0CF0050EDBCF0DF07E
:1038D000060EDBCF0EF0070EDBCF0FF0346A356A31
:1038E000366A400E376E0CC02FF00DC030F00EC09F
:1038F00031F00FC032F0EEEC93F02FC008F030C082
:1039000009F031C00AF032C00BF0BFD99BEC93F044
:10391000C2D907E08CD8EFCF00F0020E005C2DE298
:103920001FD0DAD8DBCF08F0050EDBCF09F0060E8A
:10393000DBCF0AF0070EDBCF0BF0A7D994D99BECB5
:1039400093F0A9D910E073D8EFCF00F0010E005C1E
:1039500003E26DD8010EEF6E6AD8EF5002080DE257
:1039600066D8020E06D063D8EF50010806E25FD891
:10397000010EEF6E02D05BD8EF6A0D0EE15C02E241
:10398000E16AE552E16E0CD106D9EBD851D9EF6A64
:103990004ED80AD9EF5011E14AD8E6D8EF500DE1E0
:1039A0007DD9EF6A9CC834F79DC835F7D3D8DCD8E9
:1039B00091D97ED91AE172D916D039D8EF50E66E76
:1039C0006DD9E552E750EF6E9AC834F79BC835F7CA
:1039D000C1D880D9C9D86CD908E160D9EF6AC1D8FB
:1039E000E926000EEA22010EEF6E58D9EF5006E1EB
:1039F0000801675103E052D9010EEF6E060184A160
:103A00000AD098C834F799C835F71E0EE66E070E2F
:103A1000E66EDED80BD01E0EE66E070E89D80009C2
:103A200005E03CD9EF6AFFD89FD8EF6AB9D0FD0E08
:103A3000DBCFE9FFFE0EDBCFEAFF12002FC004F060
:103A400030C005F031C006F032C007F015D9F6EFEE
:103A50001DF0EECF08F0EECF09F0EECF0AF0EFCF79
:103A60000BF0040EDBCF10F0050EDBCF11F0060ECD
:103A7000DBCF12F0070EDBCF13F007D910C02FF009
:103A800011C030F012C031F013C032F09BEC93F053
:103A90002FC00CF030C00DF031C00EF032C00FF06E
:103AA000EBD833EF1EF00A0EC3D897D8FFEF1DF006
:103AB000C8D82AEF1EF0E66EE66AEDEC9CF0E552FF
:103AC000E552E55212002FC000F030C001F031C0C5
:103AD00002F032C003F01200D9CFE9FFDACFEAFFDB
:103AE0007CD8040E12002FC0EEFF01C0EEFF02C012
:103AF000EEFF03C0EEFF120088C834F089C835F02D
:103B00008AC836F08BC837F01200E9CF00F0EACF50
:103B100001F0E9CFE6FFEACFE6FF120074C82FF00C
:103B200075C830F076C831F077C832F005EF93F001
:103B3000E66E2AECB7F0E552E5521200040E18EFDB
:103B40001EF078C82FF079C830F07AC831F07BC801
:103B500032F01200F90EDBCFE9FFFA0EDBCFEAFFFD
:103B600012004DD8080E1200030E18EF1EF0090EB9
:103B7000E66E070EE66E5FEF1EF0E552E552E55287
:103B8000E5521200000EE66E070EE66ED9CFE6FF94
:103B9000DACFE6FF1200D9CFE6FFE1CFD9FF12005E
:103BA000E552E7CFD9FF1200020E18EF1EF08BECA2
:103BB00095F0010A1200E8DE006E060EE15E00508C
:103BC0001200010EF36E0C0EF3CFDBFF040E120099
:103BD00007ECB7F0E552E5521200EECF00F0EECF61
:103BE00001F0EECF02F0EFCF03F0120000C02FF093
:103BF00001C030F002C031F003C032F01200FB0E01
:103C0000DBCFE9FFFC0EDBCFEAFF1200EECFDBFFDC
:103C1000090EEECFDBFF0A0EEECFDBFF0B0EEECF71
:103C2000DBFF73EF1EF003DFBFDFEF6A17EF1DF05E
:103C3000E926000EEA22120071DF45DF54D873EF47
:103C40001DF0EECF04F0EECF05F0EECF06F0EFCF93
:103C500007F0120004C034F005C035F006C036F09D
:103C600007C037F0120008C02FF009C030F00AC0BA
:103C700031F00BC032F012002FC034F030C035F0FC
:103C800031C036F032C037F01200346A356A400E67
:103C9000366E376E1200D2DED7EF1DF0C8DEEE5260
:103CA000120004EC93F0CADE82EC95F0010A1200D7
:103CB0002CDF2AECB7F0E552E55200091200D9508A
:103CC0000E0FE66E000EDA20E66E1200FCDEAFDEAE
:103CD00073EF1DF01ADF7CDFAAEF1DF090DF060EF8
:103CE000A7DF58EF1DF0A3DE9EEF1DF0A0DE53EF1F
:103CF0001DF0D9CFE6FFE1CFD9FFFC0EDB5009E084
:103D0000080E2ED8EF26D8A00CD0FE0E29D8EF1220
:103D100008D0040E25D8EF5ED8B003D0010E20D80D
:103D2000EF1617D8EF50FE0BC80803E212D8EF8049
:103D300009D00FD8EF50FE0B006E960E005C02E229
:103D400008D8EF9006D8EF50010BE552E7CFD9FF26
:103D50001200FD0EDBCFE9FFFE0EDBCFEAFF120003
:103D6000006EF7DF00501200B55C3A0163EF57F0C8
:103D7000070EB46E0E0EE66E040EE66EEB0EE66EE9
:103D8000F4ECBBF0E552E552E55212000501586B28
:103D90000501010E596F1EEC3BF0C8EC3AF0E66AE3
:103DA00085EF3BF005017A5104E1010EE66E85ECEA
:103DB0003BF01200939E819E939C819C05017A6B3F
:103DC00005017B6B7C6B0501010E096F1EEC2AF06F
:103DD00026D8B7DAE66A04EC23F0E552E3DF46ECD6
:103DE0003CF0C8EC3AF01EEC3BF0C8EC3AF097EC33
:103DF0003EF0C7EC3DF0F28CF28E0501556B566B30
:103E00000501020E576F0501086B1200939493860B
:103E1000D09EA36AA46AF29CF29C90EF88F050DADC
:103E20000501066FFF0E0501065D06E10501066B43
:103E300006C5E6FF39DAE5520501056B06016405A2
:103E4000030D060106016551F324E96E0601060122
:103E50006651F420EA6EEFCF04F50501076B05010A
:103E6000586B0501010E596FB50EE66EE66AE66AFB
:103E7000000EE66E030EE66EC1EC3EF039EC3FF04C
:103E800082EC3FF0E66AE9EC39F0C1EC3EF0040E5A
:103E9000E66EE66A010EE66E010EE66E08EC3DF097
:103EA00076EC3DF0F72A000EF82299EC3FF035EF62
:103EB0003AF0C5EC3EF01EE1030E31181BE174EC44
:103EC0003AF0ED50ED5050C5EDFF4FC5EDFF4EC53A
:103ED000EDFF4DC5EDFF4CC5EDFF4BC5EDFF4AC5F0
:103EE000EDFF49C5EDFF48C5EDFF47C5EDFF46C5F0
:103EF000EFFF24D00B0EE66EE66AE66A420EE66E2F
:103F0000070EE66EC1EC3EF074EC3AF0ED50ED5069
:103F10004CC7EDFF4BC7EDFF4AC7EDFF49C7EDFFAB
:103F200048C7EDFF47C7EDFF46C7EDFF45C7EDFFAB
:103F300044C7EDFF43C7EDFF42C7EFFFF4EF39F091
:103F4000C5EC3EF007E1030E311804E1010E080153
:103F50004A1501D0000EF4EF39F0C5EC3EF005E152
:103F6000030E311802E108014A91F4EF39F0F8EC40
:103F700039F007019991100E15EC3CF0F40EDBCFEF
:103F8000E6FFF50EDBCFE6FFAAEC3CF02EC08BF788
:103F90002FC08CF730C08DF731C08EF7F60EDB28BE
:103FA0000701976FF70EDBCF8FF7F60EDBCFE6FF3B
:103FB000E66AD950F80F3CEC3CF0900EE66E070E26
:103FC000E66E35EC3AF08B0EE66E070E5DEC3BF0DC
:103FD000000902E1000E01D0010EF4EF39F073EC9C
:103FE0003EF008014A13F4EF39F0FBEC3DF0DF6AD4
:103FF00055C500F056C501F0FD0EDB50001803E179
:10400000FE0EDB5001183EE0FD0EDBCF55F5FE0E37
:10401000DBCF56F5A8EC3DF0EE52EE52EE6AEE6ABA
:10402000FDEC39F0050E00C0DBFF060E01C0DBFF22
:10403000070EDB6A080EDB6AD950050F81EC3BF0F6
:10404000100EE76E40EC3AF0FDE1100EF2EC3BF0A2
:10405000D950050F81EC3BF0EE500012EE500112EA
:10406000EE500212EE50031262EC3FF00050EE12DE
:104070000150EE120250EE120350EE1217EC3EF019
:10408000010EDF6EDF50006E090EE15C02E2E16AB4
:10409000E552E16E0050F4EF39F01FEC3EF002E023
:1040A00000EC3EF0F4EF39F01FEC3EF006E08FEC50
:1040B0003EF06AEC2BF0E552E552F4EF39F0A1EC5A
:1040C0003DF005015551561113E00501556B566B36
:1040D000040E4FEC3DF074EC3AF0EE98EE52EE6ABE
:1040E000EE6A74EC3AF0EE989DEC3EF000EC3EF097
:1040F000040EE15C02E2E16AE552E16EF4EF39F0B0
:10410000050155511200A1EC3DF04FEC3DF0006867
:104110000168026A036A74EC3AF0D3EC3AF019ECE5
:104120003BF0040EE15C02E2E16AE552E16EF4EF7D
:1041300039F0E9DFF3CF00F0080EDFEC3CF00018B7
:1041400005E1015003E1025001E1035001E0000CE0
:10415000010CFBEC3DF0DF6AA8EC3DF050EC3CF0CC
:10416000080EEECFDBFF62EC3FF0FB0EDB50EE12F1
:10417000FC0EDB50EE12FD0EDB50EE12FE0EDB509D
:10418000EE12AEEC3CF0070EDBCF02F0080EDBCFF8
:1041900003F062EC3FF00050EE1808E10150EE1819
:1041A00005E10250EE1802E10350EE1809E017ECA9
:1041B0003EF0FA0EDB5002E000EC3EF0010EDF6E46
:1041C000DF50006E090EE15C02E2E16AE552E16E49
:1041D0000050F4EF39F0FBEC3DF0080EDB6A040E02
:1041E0004FEC3DF074EC3AF0040EEECFDBFF50ECF8
:1041F0003CF04BEC3BF088EC3FF0001E011E021E31
:10420000031E0050DE160150DE160250DE1603506B
:10421000DD16DD52DD52AAEC3BF0060EDBCF02F0DC
:10422000070EDBCF03F074EC3AF00050EE1808E113
:104230000150EE1805E10250EE1802E10350EE18AD
:104240000CE09DEC3EF0FA0EDB5002E000EC3EF09C
:10425000010EF36E080EF3CFDBFF080EDB50006E8D
:10426000090EE15C02E2E16AE552E16E0050F4EF12
:1042700039F005010651120013EC3EF0DF6AFE0E24
:10428000DB500501065D0CE0FE0EDBCF06F5FE0EF1
:10429000DBCFE6FF09D8E55254EC3EF0010EDF6EAD
:1042A000DF50E552F4EF39F0F8EC39F0FE0EDBCFD9
:1042B000E6FF030EE66E19D8E552E552F4EF39F049
:1042C00013EC3EF0030EE66E06D8E552DF6EDF50CB
:1042D000E552F4EF39F073EC3EF0A96EAA6AA69E9F
:1042E000A69CA680A850F4EF39F0F8EC39F0A6B2FD
:1042F000FED7FE0EDB50A96EAA6AFD0EDB50A86E3B
:10430000A69EA69CA6840301C76B550EA76EAA0E97
:10431000A76EA682A6B2FED70301C751F4E1F4EF5F
:1043200039F0F8EC39F0FB0EDBCF00F5FC0EDBCFFB
:1043300001F5FD0EDBCF02F5FE0EDBCF03F5F4EF4A
:1043400039F078EC3EF00801486B0801496B080130
:10435000466BDE6ADD6A68EC3AF0E4EC3CF00DE2B4
:1043600030EC3AF0010E9EEC3AF0FDE1B5EC3CF099
:10437000DF2A010EF0E3DB2AEED708014B6B0801C0
:104380004C6B0801476BDE6ADD6A68EC3AF0E6ECDC
:104390003CF00DE230EC3AF0010E9EEC3AF0FDE11B
:1043A000BCEC3CF0DF2A010EF0E3DB2AEED7010E75
:1043B000E66EE66EE66AA3EC3EF054EC3EF000ECEE
:1043C0003EF0020EE15C02E2E16AE552E16EF4EFDA
:1043D00039F078EC3EF07DEC3EF001E380D0FC0E4D
:1043E000DB50F36EFC0EDB50F35C02E0000E01D0FC
:1043F000010E006EA5EC3DF0EF50001470E111ECE1
:104400003DF062EC3AF0FDE1DDEC39F00800F550EA
:10441000020B65E011EC3DF062EC3AF0FDE159EC85
:104420003EF004082CE10801475154E108014C29F1
:10443000DE6EDD6A68EC3AF0E6EC3CF002E3DE6A40
:10444000DD6A08014B51006E016A0050DF1803E17C
:104450000150DE52DD180FE030EC3AF0010E9EEC18
:104460003AF0FDE1320EE926050EEA22B1EC3BF00E
:10447000DFCF4CF82FD00801010E476F2BD0080179
:10448000465128E108014929DE6EDD6A68EC3AF000
:10449000E4EC3CF002E3DE6ADD6A08014851006E9C
:1044A000016A0050DF1803E10150DE52DD180FE011
:1044B00030EC3AF0010E9EEC3AF0FDE10A0EE926EE
:1044C000050EEA22B1EC3BF0DFCF49F803D008013A
:1044D000010E466FA5EC3DF0FC0EDB50EF12020E14
:1044E000E15C02E2E16AE552E16EF4EF39F0F8ECEA
:1044F00039F07DEC3EF010E229EC3BF00DE211ECDE
:104500003DF062EC3AF0FDE104EC3EF005E0A5EC94
:104510003DF0FC0EDB50EF12F4EF39F013EC3EF0FF
:10452000DF6A7DEC3EF010E229EC3BF00DE211EC8D
:104530003DF062EC3AF0FDE104EC3EF005E0A5EC64
:104540003DF0EF50020BDF6EDF50E552F4EF39F033
:10455000F8EC39F07DEC3EF00EE229EC3BF00BE29A
:1045600011EC3DF062EC3AF0FDE104EC3EF003E0CA
:10457000A5EC3DF0EF92F4EF39F073EC3EF005015D
:104580005413F4EF39F0050154511200F8EC39F0EE
:10459000FE0EDB1C05015417F4EF39F0A1EC3DF0E1
:1045A000FA0EDB1C006EA5EC3DF00050EF16F80E85
:1045B000DB500BE0F90EDB50040804E1FB0EDBCF0F
:1045C0004BF803D0FB0EDBCF48F8040EE15C02E2AF
:1045D000E16AE552E16EF4EF39F005015251120043
:1045E000F8EC39F0FE0EDBCF52F5F4EF39F00501AF
:1045F00053511200F8EC39F0FE0EDBCF53F5F4EF17
:1046000039F0050151511200F8EC39F0FE0EDBCF04
:1046100051F5F4EF39F001010051120094EC3BF038
:10462000E9C3EDFFE8C3EDFFE7C3EDFFE6C3EDFF30
:10463000E5C3EDFFE4C3EDFFE3C3EDFFE2C3EDFF30
:10464000E1C3EDFFE0C3EFFFF4EF39F094EC3BF092
:10465000F3C3EDFFF2C3EDFFF1C3EDFFF0C3EDFFD8
:10466000EFC3EDFFEEC3EDFFEDC3EDFFECC3EDFFD8
:10467000EBC3EDFFEAC3EFFFF4EF39F094EC3BF04E
:10468000FDC3EDFFFCC3EDFFFBC3EDFFFAC3EDFF80
:10469000F9C3EDFFF8C3EDFFF7C3EDFFF6C3EDFF80
:1046A000F5C3EDFFF4C3EFFFF4EF39F00301DB5185
:1046B000120013EC3EF0010EE66ED950F90F3CECFF
:1046C0003CF0D950FB0F3CEC3CF0D950FC0F3CECDB
:1046D0003CF039EC3AF0B3EC28F0006E090EE15EE4
:1046E0000050DF6EDF50E552F4EF39F0D8EC3DF0CA
:1046F0005EEC3DF016E230EC3AF0020E9EEC3AF041
:10470000FDE121EC3DF0CEEC3AF006E191EC3CF01D
:1047100003E108EC3EF007D0DF2A010EE9E3DB2AD3
:10472000E7D7F368F468020EE15C02E2E16AE55261
:10473000E16EF4EF39F0D8EC3DF05EEC3DF020E2B4
:1047400030EC3AF0020E9EEC3AF0FDE121EC3DF047
:10475000CEEC3AF010E191EC3CF00DE130EC3AF0A7
:10476000020E9EEC3AF0FDE1C3EC3AF0EFEC3DF0C6
:1047700019EC3BF007D0DF2A010EDFE3DB2ADDD79F
:10478000F368F468020EE15C02E2E16AE552E16E70
:10479000F4EF39F0D8EC3DF05EEC3DF011E20EECB8
:1047A0003DF0EF0408E00EEC3DF0EF50020803E0AE
:1047B00008EC3EF007D0DF2A010EEEE3DB2AECD74F
:1047C000F368F468020EE15C02E2E16AE552E16E30
:1047D000F4EF39F0D8EC3DF05EEC3DF010E20EEC79
:1047E0003DF05FEC3EF006E191EC3CF003E108ECBB
:1047F0003EF007D0DF2A010EEFE3DB2AEDD7F368A6
:10480000F468020EE15C02E2E16AE552E16EF4EF67
:1048100039F0D8EC3DF068EC3AF094EC3AF01AE25A
:10482000DECF02F0DDCF03F0046A030E01EC3CF0B2
:10483000FDE104EC3AF0FD0EDB50001806E191ECCE
:104840003CF003E108EC3EF007D0DF2A010EE3E381
:10485000DB2AE1D7F368F468020EE15C02E2E16A68
:10486000E552E16EF4EF39F0F8EC39F0070EE1268D
:10487000DF6AFC0EDB5036E00D0E61EC3DF003E02C
:10488000DCEC3AF0FDE187EC3CF0030E00C0DBFF0E
:10489000040E01C0DBFFD950030F81EC3BF0FF0E8B
:1048A000EE1805E11F0EED1802E1010E96D0D95069
:1048B000030F81EC3BF081EC3CF052E3070E61EC1E
:1048C0003DF003E0DCEC3AF0FDE13F0EDFEC3CF0C4
:1048D000010E00C0DBFF7F0EF6EC3DF0020E00C0C3
:1048E000DBFF40D0A9EC3EF0070B080DEDEC39F0F2
:1048F000C9EC3EF0E00BE838E840F310E76E010E3B
:10490000E7CFDBFFEDEC39F036EC3FF0EF50030B77
:10491000200DA9EC3EF0E840E840E8401F0BF31002
:10492000E76E020EE7CFDBFF3F0EF6EC3DF0050E23
:1049300000C0DBFF060E61EC3DF003E0DCEC3AF07A
:10494000FDE1009E016A026A036A060E00C0DBFFF9
:10495000050EDB503F0804E0060EDB507F0802E145
:10496000000E3BD062EC3EF0EF6A020EDB50050118
:10497000055D05E1010EDB500501065D1AE0020E42
:10498000DB507F0804E1010EDB503F0812E0020E0D
:10499000DB500501055D04E1010EDB503F0809E035
:1049A000020EDB507F080AE1010EDB500501065DB7
:1049B00005E1010EDB5002E0010EDF6E020EDB505E
:1049C0007F0803E162EC3EF0EF80010EDB503F0810
:1049D00003E162EC3EF0EF82DF50006E070EE15C17
:1049E00002E2E16AE552E16E0050F4EF39F073EC57
:1049F0003EF00501045D02E1010E01D0FE0EF4EF70
:104A000039F078EC3EF0FD0EDB50DE6EDD6A74ECC2
:104A10003AF0EE50ED6EEF6AFE0EDB50DF1208EC5E
:104A20003EF0020EE15C02E2E16AE552E16EF4EF73
:104A300039F0F8EC39F00F0E0CEC3BF012E259ECC7
:104A40003BF0E20E036E730E046E010E056EFE0E59
:104A5000DBCF06F0076A086A030E07EC3CF0FDE1C5
:104A60005FD0200E0CEC3BF01CE3FE0EDB50E00FA1
:104A7000006E010E005C15E2300E0CEC3BF011E212
:104A800059EC3BF0620E036E740E046E010E056E5F
:104A9000FE0EDB50E00FE8EC3CF007EC3CF0FDE1F3
:104AA0003FD0300E0CEC3BF01CE3FE0EDB50D00F81
:104AB000006E020E005C15E2400E0CEC3BF011E2C1
:104AC00059EC3BF06A0E036E740E046E010E056E17
:104AD000FE0EDB50D00FE8EC3CF007EC3CF0FDE1C3
:104AE0001FD0FE0EDB5040082DE2FE0EDB50BB0F48
:104AF000006E010E005C26E2500E0CEC3BF022E250
:104B000059EC3BF05A0E036E740E046E010E056EE6
:104B1000FE0EDB50BB0FE8EC3CF007EC3CF0FDE197
:104B200003500624006E04500720016E0550082033
:104B3000026EDBEC3DF05AEC3CF0096E070EE15ED4
:104B400009500BD059EC3BF0E20EE66E730EE66EA8
:104B5000010E5AEC3CF041EC3CF0F4EF39F0F8EC8B
:104B600039F00C0EE126060EDB6A070EDB6A080E32
:104B7000DB6AD950FD0FB8EC3BF002E1F36A05D1D6
:104B8000EDEC39F0EE52090EEECFDBFF0A0EEECF60
:104B9000DBFF0B0EEECFDBFF63EC3BF00800080EF3
:104BA000F5CFDBFF0CEC3DF0E0EC3DF00050010BED
:104BB00002E0010E01D0000EE76E020EE7CFDBFF30
:104BC000DB5014E01BEC3FF0EE52EF50E66E0FDFCF
:104BD000E552006E016A00BE0168C3EC3CF00001C2
:104BE000800E011403E0AAEC3BF0A8D01BEC3FF0D0
:104BF000EF50040803E1010EEDEC3CF005EC3FF052
:104C0000040B42E0F70EDBCFDEFFDBCFDDFF68EC0D
:104C10003AF0080EDB5067EC3EF02BE2CEEC3EF0B3
:104C2000B1EC3AF0FDE125EC3EF09B0EE66E070E8E
:104C3000E66E52EC3BF018EC3DF09FC700F0A0C7C9
:104C400001F0060EDB5000180FE1070EDB500118D3
:104C50000BE159EC3BF09B0EE66E070EE66E97EC0F
:104C60003AF035EC3AF064D0DF2A010ED0E3DB2ACB
:104C7000CED7AEEC3EF001E087D005EC3FF0040B60
:104C800001E182D0FC0E76D005EC3FF0020B75E01E
:104C9000F70EDBCFDEFFDBCFDDFF5EEC3DF056E253
:104CA00005EC3FF0080B1BE030EC3AF0020E9EECF6
:104CB0003AF0FDE121EC3DF08CEC3CF042E259ECA5
:104CC0003BF030EC3AF0020E9EEC3AF0FDE1C3EC22
:104CD0003AF0BFEC3BF0B1EC3AF0FDE123D018EC38
:104CE0003DF030EC3AF0020E9EEC3AF0FDE121ECA2
:104CF0003DF0E0EC3DF0060EDB50001822E1070E1F
:104D0000DB5001181EE159EC3BF030EC3AF0020E9A
:104D10009EEC3AF0FDE1C3EC3AF0BFEC3BF0B1ECB5
:104D20003AF0FDE125EC3EF097EC3AF052EC3BF026
:104D300068EC3AF0010E0026000E012219EC3BF05F
:104D400025D0DF2A010EA9E3DB2AA7D7AEEC3EF07F
:104D50001BE105EC3FF0020B17E00CEC3DF0EECF51
:104D600002F00250080B10E1D950F70FB8EC3BF0FD
:104D70000BE1FD0EF36EF46809D005EC3FF0100B6B
:104D800003E0010EF36E01D0F36AF46A0C0EE15CED
:104D900002E2E16AE552E16EF4EF39F0FBEC3DF03E
:104DA000010EDB6A7CEC3BF0040EDB6A050EDB6A6D
:104DB0004EEC3AF0EF6ADF6AF40EDB50DF5C01E3A1
:104DC000B9D059EC3BF0DFCF03F0046A056A030E5B
:104DD000B1EC3AF0FDE1D950F50FE96EFF0EDA20A3
:104DE000EA6EEE500324006EEE500420016EEE5089
:104DF0000520026EDBEC3DF0E66E9B0EE66E070EC4
:104E0000E66E52EC3BF0060E9CC7DBFF070E9DC71B
:104E1000DBFF080E9EC7DBFF07019BA510D058ECF7
:104E20003DF00BEC3EF0CDEC3DF099EC3CF007E0B2
:104E3000020E9FC7DBFF030EA0C7DBFF7BD0010E76
:104E400007019B1504E1080E07019B1527E08FEC75
:104E50003FF099EC3CF016E08FEC3FF0A9EC3AF013
:104E6000010EF36E040EF3CFDBFF07019BA705D005
:104E7000010EF36E050EF3CFDBFF95EC3CF00EE375
:104E8000DB2A0CD0080E07019B1508E0040EDB049A
:104E900005E0020EF36E040EF3CFDBFF800E070178
:104EA0009B150DE0050EDB500AE058EC3DF0D950A3
:104EB000050F81EC3EF00BEC3EF035EC3AF0020EC3
:104EC00007019B151AE0040EDB50020816E058ECAF
:104ED0003DF00BEC3EF04EEC3AF0EF50D3EC3DF0F1
:104EE0001FEC3AF00800F5CF00F04EEC3AF000501D
:104EF000EF2695EC3CF001E3DB2A020E07019B153F
:104F00000CE1010E07019B1508E1080E07019B1536
:104F100004E1040E07019B150BE01FEC3AF0010EB3
:104F2000DBCFE7FF0800F550E726010EE7CFDBFFF8
:104F3000DF2A42D7C6EC3BF019EC3BF0090EE15CEE
:104F400002E2E16AE552E16EF4EF39F0F8EC39F093
:104F500044EC3DF018ECB8F00EEC3EF0000941E0F6
:104F600044EC3DF035EC3AF0D950F90FB8EC3BF099
:104F700017E193EC3EF04DDCE552E552F90EF3CF2C
:104F8000DBFFFA0EF4CFDBFF10EC3BF0FCEC3BF068
:104F900026E2010EE66EE3EC3AF0E9EC21F01CD0DB
:104FA000010EE66EE3EC3AF06DEC3EF0020EE66EBA
:104FB000BDEC22F0E552EDEC39F0EF50400B40082B
:104FC00005E1040EE66EBDEC22F0E552020EE66E3F
:104FD000E3EC3AF077EC22F0E552E552E552010EAF
:104FE00001D0000EF4EF39F013EC3EF0850EDF6EC9
:104FF0004EEC3AF0FA0EDBCFEFFF6BEC3FF08FECAC
:105000003EF0040EE66E050EE66E010ED3EC3DF0AA
:1050100093EC3EF0F60EDBCFE9FFF70EDBCFEAFFB5
:10502000020E9EEC3AF0FDE121EC3DF06DEC3AF021
:10503000020E55EC3AF093EC3EF0F80EDBCFE9FFB0
:10504000F90EDBCFEAFF040E16EC3AF06DEC3AF005
:10505000040E55EC3AF0E552F4EF39F0A1EC3DF0D6
:1050600024EC3DF0020EF3CFDBFF030EF4CFDBFFA9
:10507000DE6ADD6A5EEC3DF019E230EC3AF0020ED9
:105080009EEC3AF0FDE121EC3DF0E0EC3DF0020E4B
:10509000DB50001806E1030EDB50011802E1F60EAA
:1050A0003BD0DF2A010EE6E3DB2AE4D7000EE66EF2
:1050B000E66A76EC23F0E552E55294EC3DF029E205
:1050C000040E24EC3DF0F3CF00F0F4CF01F030EC0F
:1050D0003AF0020E9EEC3AF0FDE121EC3DF000C00A
:1050E000EEFF01C0EDFF30EC3AF0020E9EEC3AF01C
:1050F000FDE1C3EC3AF0B1EC3BF0010EE66E39ECA9
:105100003AF06DEC3EF0010EE66EFAEC22F0E5525C
:1051100002D0F70E01D0000E006E040EE15C02E238
:10512000E16AE552E16E0050F4EF39F0F8EC39F045
:10513000EDEC39F0020E9EEC3AF0FDE121EC3DF091
:10514000EE6AED6AEDEC39F0020E9EEC3AF0FDE10C
:10515000C3EC3AF0EE6AED6A010EE66EFAEC22F06C
:10516000E552F4EF39F0A1EC3DF011EC3DF062ECCA
:105170003AF0FDE104EC3EF0010802E0FA0E5ED0E8
:10518000F60EDB0406E0F60EDB50020802E0F40E39
:1051900055D07CEC3BF0C6EC3BF017EC3BF01AE250
:1051A00020EC3CF0CFEC39F05FEC3EF00EE191ECFE
:1051B0003CF00BE10EEC3DF0EF0405E00EEC3DF0B1
:1051C000EF50020802E1F50E39D095EC3CF0E3E334
:1051D000DB2AE1D7CAEC23F094EC3DF02CE20EEC94
:1051E0003DF0F60EDBCFEFFFDBA013D08FEC3EF0EF
:1051F00097EC3AF05EEC3FF086EC3EF08FEC3EF040
:10520000E3EC3AF09DEC3FF086EC3EF03FEC3FF0F3
:1052100008D03FEC3FF09DEC3FF0EF6A5EEC3FF0D2
:10522000EF6AB3EC3FF0B1EC3BF0010EE66EF0EC50
:1052300022F0E55202D0F70E01D0000E006E040EEF
:10524000E15C02E2E16AE552E16E0050F4EF39F010
:10525000F8EC39F039EC3AF004D8E552E552F4EFC5
:1052600039F0F8EC39F0030EE126020EDB6A11EC9E
:105270003DF062EC3AF0FDE104EC3EF0010802E0A2
:10528000FA0E32D0DE6ADD6A5EEC3DF027E20EEC0B
:105290003DF05FEC3EF01DE191EC3CF01AE10EECCC
:1052A0003DF0EF6A0EEC3DF0EE52EE6AED6A9DECD9
:1052B0003FF0EF6AB3EC3FF0EE6AED6A5EEC3FF070
:1052C000EF6A010EE66EF0EC22F0E552010EEDEC15
:1052D0003CF0DF2A010ED8E3DB2AD6D7020EDB50E2
:1052E00002E0000E01D0F90E006E030EE15C02E256
:1052F000E16AE552E16E0050F4EF39F0D8EC3DF090
:105300005EEC3DF010E20EEC3DF0EF5007E0B3EC48
:105310003FF08CEC3CF002E2010E06D0DF2A010ED9
:10532000EFE3DB2AEDD7000E006E020EE15C02E235
:10533000E16AE552E16E0050F4EF39F0F8EC39F033
:10534000050EE126DE527F0EDD6E3F0EEDEC3CF0E9
:1053500039EC3AF0EAEC23F0E552E552030EF3CFD4
:10536000DBFF040EF4CFDBFF030EDBCF00F0040EF7
:10537000DBCF01F0FCEC3BF047E2F60EDBCFE6FFC3
:1053800027EC3CF0E3EC3AF097EC3AF07FD841ECB4
:105390003CF0DF6E38EC3DF0EF50010B0FE038ECE5
:1053A0003DF0060E16EC3AF0010EEFCFDBFF38ECC5
:1053B0003DF0F6EC3EF0020EEFCFDBFF8FEC3EF05F
:1053C00040EC3BF0B0EC3DF08FEC3EF0D950020FDA
:1053D00081EC3EF0B0EC3DF093EC3EF038EC3DF06B
:1053E000EE526DEC3AF029EC3AF0EF50E76EFB0E1E
:1053F000DBCF02F0FC0E65EC3DF0020E006E29ECF6
:105400003AF00050EF2602D0F80EDF6EDF50006E4B
:10541000050EE15C02E2E16AE552E16E0050F4EF54
:1054200039F0010EE66E010EE66E75EC21F0E552E4
:10543000E55206EC1FF0FF00FED71200020EE66EEA
:10544000010EE66E75EC21F0E552E552120013EC08
:105450003EF029EC3AF0EF50C009DF6E2CEC3DF045
:105460008FEC3EF0D950F70F3CEC3CF0F80EDB50DF
:10547000D3EC3DF0F80EDB50020FE66E4EEC3AF046
:10548000E552E750EF6EE552F4EF39F013EC3EF0E1
:1054900029EC3AF0EF508009DF6E4EEC3AF0F80E4E
:1054A000DBCFEFFF2CEC3DF04EEC3AF0EF50E55245
:1054B000F4EF39F0A1EC3DF0FC0EDBCF00F02AEC6C
:1054C0003EF0070EE76E40EC3AF0FDE1FE0EDB50D9
:1054D0007F0B72EC3FF0060EE76E40EC3AF0FDE118
:1054E000FD0EDB503F0B72EC3FF0070EE76E40EC19
:1054F0003AF0FDE105C500F09BEC3DF0060EE76ECD
:1055000040EC3AF0FDE106C500F0016AD1EC3EF056
:1055100002E2E16AE552E16EF4EF39F0F8EC39F0BD
:1055200063EC3CF0F90EDB50100A0CE0180A06E0C0
:105530000C0A08E174EC3AF0030E07D074EC3AF070
:10554000050E03D074EC3AF0070EEE1274EC3AF04C
:105550000D0EE76E40EC3AF0FDE1FA0EDB500FE085
:1055600074EC3AF0EE681F0EEE1274EC3AF00D0E89
:10557000E76E40EC3AF0FDE1FDEC39F019D0FDECBE
:1055800039F01AEC3AF074EC3AF0060EE76E40ECA3
:105590003AF0FDE1FB0EDBCF00F09BEC3DF0070E97
:1055A000E76E40EC3AF0FDE1FC0EDBCF00F0016A63
:1055B000D1EC3EF002E2E16AE552E16EF4EF39F03F
:1055C000F8EC39F063EC3CF0FE0EDBCF00F0000E9F
:1055D0002AEC3EF06DEC3BF000C500F09BEC3DF09A
:1055E0006DEC3BF001C500F09BEC3DF06DEC3BF049
:1055F00002C500F09BEC3DF0020EE76E40EC3AF085
:10560000FDE103C500F0016AD1EC3EF002E2E16A7F
:10561000E552E16EF4EF39F0F8EC39F0F70EDBA269
:1056200004D0060EE66ECCDF2CD0F70EDBA02BD01C
:10563000CDEC3BF0EE52EE52EE52EF501C0BE84236
:10564000E842E66ECDEC3BF0EF503F0BE66ECDEC62
:105650003BF0C9EC3EF01F0B040DF3CF05F0060E36
:10566000046ECDEC3BF0EF5004C0E7FFE75204E0DE
:10567000E8427F0BE706FCE10510E66E1BDFE55212
:10568000E552E55211D0F70EDBAC16D0F10EDB502F
:10569000040B0809100915EC3CF097EC3AF03EDFDA
:1056A000046E060EE15E0450CAEC3CF02EEC3CF0B9
:1056B0002EC0EEFF35EC3CF02EEC3CF00C0E16EC60
:1056C0003AF0F20EDBCFEFFF2EEC3CF0D5EC3EF0E3
:1056D000F4EF39F0F8EC39F0FD0EDBCFE6FF70DFC8
:1056E000E5522EC09BF72FC09CF730C09DF731C00C
:1056F0009EF76CEC3CF0030F0701A76F0701A9911F
:1057000004C59FF705C5A0F706C5A1F76CEC3CF0F2
:10571000E66EE66A890EF66E730EF76E010EF86E8F
:1057200028EC3FF0A20EE66E070EE66E35EC3AF07E
:10573000FE0EDBCF00F0016A026A036A200E001839
:1057400008E1015006E1025004E1035002E10701C3
:10575000A28B9B0EE66E070E5DEC3BF0F4EF39F08A
:1057600013EC3EF0DF6A06016451DF5C14E2DF50A7
:10577000030D06016551F324E96E06016651F4201C
:10578000EA6EEFCF00F0FE0EDB50005C02E1DF506E
:1057900003D0DF2AE8D7FF0EE552F4EF39F0D9CF76
:1057A000E6FFE1CFD9FF0A0EE126DE6ADD6A020ECE
:1057B000DB6A080EE66EE66AE66A8B0EE66E070E98
:1057C000E66E8FECB8F0006E050EE15E0050080E3C
:1057D000E66EE66AE66A930EE66E070EE66E8FECFC
:1057E000B8F0006E050EE15E00500F0EE66EE66A40
:1057F000E66AFB0EDBCFE6FFFC0EDBCFE6FF8FECAD
:10580000B8F0006E050EE15E00508B0EE66E070EDE
:10581000E66EFD0EDBCFE9FFFE0EDBCFEAFF040EE6
:10582000E926000EEA22EF50E66E19EC25F0E5526B
:10583000E552E55207018BA9A2EF30F0000EE66EAB
:10584000E66AFD0EDBCFE6FFFE0EDBCFE6FF930E32
:10585000E66E070EE66E8B0EE66E070EE66EAFEC9A
:1058600025F0006E080EE15E0050F3CFDEFFF4CFAE
:10587000DDFFDECF00F0DDCF01F0013404E20050A7
:105880000008000E015402E3A1EF30F0FD0EDBCF63
:10589000E9FFFE0EDBCFEAFF040EE926000EEA2246
:1058A000EF500C0A02E154EF30F0070A01E1B9D3DE
:1058B000030A01E15DD2010A01E15AD2030A01E1C2
:1058C00057D20C0A01E171D1010A01E16ED1020A3D
:1058D00001E1DED0400A01E1DBD0410A02E0A1EFA4
:1058E00030F0FD0EDBCFE9FFFE0EDBCFEAFF040E4A
:1058F000E926000EEA22010EE926000EEA22EF5008
:10590000E66E2EDFE552E76E030EE7CFDBFFFF0EFC
:10591000F36E030EDBCFF4FFF350F45C04E3FE0EF2
:10592000DE6EDD68A6D0DECF00F0DDCF01F0000630
:10593000000E015A030EDB50030D060106016551EE
:10594000F324E96E060106016651F420EA6EEECFFB
:1059500002F0EECF03F0EFCF04F000010450011885
:10596000E8AE02D0013404D00050035C015004586A
:1059700001E27CD0070193A175D0DECF00F0DDCF2E
:1059800001F00006000E015A00C0E6FF01C0E6FF6C
:10599000FD0EDBCFE9FFFE0EDBCFEAFF040EE926AA
:1059A000000EEA22EE52E9CF02F0EACF03F0030E36
:1059B0000226000E032202C0E6FF03C0E6FF930E9C
:1059C000E66E070EE66EA6EC27F0046E060EE15EAC
:1059D0000450FD0EDBCFE9FFFE0EDBCFEAFF0D0E1C
:1059E000E926000EEA22EF503AE191C7E6FFFD0EEC
:1059F000DBCFE9FFFE0EDBCFEAFF040EE926000E47
:105A0000EA22E9CF02F0EACF03F002C0E6FF03C0CA
:105A1000E6FFD950020FE66E000EDA20E66EFB0EAE
:105A2000DBCFE9FFFC0EDBCFEAFF040EE926000E18
:105A3000EA22E9CF04F0EACF05F004C0E6FF05C092
:105A4000E6FF24DD066E070EE15E0650006E016A79
:105A500000BE016800C0DEFF01C0DDFF02D0DE6ACB
:105A6000DD6A03D0FA0EDE6EDD6803D0FE0EDE6E58
:105A7000DD68FD0EDBCFE9FFFE0EDBCFEAFF0D0E8A
:105A8000E926000EEA22EF5002E0DE6ADD6A59D311
:105A9000DECF00F0DDCF01F0013404E20050000859
:105AA000000E015401E380D0DECF00F0DDCF01F025
:105AB0000006000E015A00C0E6FF01C0E6FF930E8B
:105AC000E66E070EE66E91C7E6FFD950020FE66E4E
:105AD000000EDA20E66EFB0EDBCFE9FFFC0EDBCF1B
:105AE000EAFF040EE926000EEA22E9CF02F0EACF2F
:105AF00003F002C0E6FF03C0E6FFF4EC27F0046EFB
:105B0000090EE15E0450040E0701931508091009FF
:105B1000E66E020EDBCFE6FFFD0EDBCFE6FFFE0EEC
:105B2000DBCFE6FFFB0EDBCFE6FFFC0EDBCFE6FFB5
:105B30008BC7E6FF8CC7E6FF8DC7E6FF8EC7E6FF83
:105B40008FC7E6FF90C7E6FF91C7E6FF92C7E6FF63
:105B500063DD006E0E0EE15E0050FB0EDBCFE6FF54
:105B6000FC0EDBCFE6FFA2EC34F0E552E552DECFCF
:105B7000E6FFDDCFE6FFFD0EDBCFE6FFFE0EDBCF5F
:105B8000E6FF930EE66E070EE66E8B0EE66E070ED0
:105B9000E66EAFEC25F0006E080EE15E0050F3CF2C
:105BA000DEFFF4CFDDFF74D7CCD2070193A3D0D0B2
:105BB000FD0EDBCFE9FFFE0EDBCFEAFF040EE92688
:105BC000000EEA22EF5006083AE1FD0EDBCFE9FFB6
:105BD000FE0EDBCFEAFF040EE926000EEA22EE52AB
:105BE000E9CF02F0EACF03F002C0E6FF03C0E6FF10
:105BF000930EE66E070EE66EDECF04F0DDCF05F005
:105C00000406000E055A04C0E6FF05C0E6FF2EECB0
:105C100028F0066E060EE15E0650006E016A00BEB8
:105C2000016800C0DEFF01C0DDFFDECF00F0DDCF88
:105C300001F00001800E011401E083D237D0DECFE5
:105C400000F0DDCF01F0013404E200500008000E46
:105C500001542CE2DECF00F0DDCF01F00006000E93
:105C6000015A00C0E6FF01C0E6FF96EC28F0E552BD
:105C7000E552DECFE6FFDDCFE6FFFD0EDBCFE6FF30
:105C8000FE0EDBCFE6FF930EE66E070EE66E8B0E82
:105C9000E66E070EE66EAFEC25F0006E080EE15ED4
:105CA0000050F3CFDEFFF4CFDDFFC9D7FD0EDBCF11
:105CB000E9FFFE0EDBCFEAFF0D0EE926000EEA2219
:105CC000EF5045E1DECF00F0DDCF01F00001800EA6
:105CD00001143BE191C7E6FFFD0EDBCFE9FFFE0EAD
:105CE000DBCFEAFF040EE926000EEA22E9CF02F03C
:105CF000EACF03F002C0E6FF03C0E6FFD950020F6F
:105D0000E66E000EDA20E66EFB0EDBCFE9FFFC0E3E
:105D1000DBCFEAFF040EE926000EEA22E9CF04F009
:105D2000EACF05F004C0E6FF05C0E6FF46EC2AF026
:105D3000066E070EE15E0650006E016A00BE016845
:105D400000C0DEFF01C0DDFF02D0DE6ADD6A0FD0D9
:105D5000FD0EDBCFE9FFFE0EDBCFEAFF0D0EE926DD
:105D6000000EEA22EF5003E1FB0EDE6EDD68E9D1A2
:105D7000FD0EDBCFE9FFFE0EDBCFEAFF040EE926C6
:105D8000000EEA22EF500A0856E1DECF02F0DDCF26
:105D900003F00206000E035A02C0E6FF03C0E6FF4E
:105DA00031EC29F0E552E552006E016A00BE01684F
:105DB00000C0DEFF01C0DDFF0001800E01143AE1EA
:105DC00091C7E6FFFD0EDBCFE9FFFE0EDBCFEAFF5A
:105DD000040EE926000EEA22E9CF02F0EACF03F032
:105DE00002C0E6FF03C0E6FFD950020FE66E000EC8
:105DF000DA20E66EFB0EDBCFE9FFFC0EDBCFEAFF1D
:105E0000040EE926000EEA22E9CF04F0EACF05F0FD
:105E100004C0E6FF05C0E6FF46EC2AF0066E070E5A
:105E2000E15E0650006E016A00BE016800C0DEFF40
:105E300001C0DDFFF5D0FD0EDBCFE9FFFE0EDBCFAD
:105E4000EAFF040EE926000EEA22EF50080861E19D
:105E5000010EE66EFD0EDBCFE9FFFE0EDBCFEAFFA3
:105E6000040EE926000EEA22EE52E9CF02F0EACF54
:105E700003F0050E0226000E032202C0E6FF03C057
:105E8000E6FFFD0EDBCFE9FFFE0EDBCFEAFF040EDF
:105E9000E926000EEA22EE52E9CF04F0EACF05F03F
:105EA000040E0426000E052204C0E6FF05C0E6FF2E
:105EB000FD0EDBCFE9FFFE0EDBCFEAFF040EE92685
:105EC000000EEA22EE52E9CF06F0EACF07F0030E09
:105ED0000626000E072206C0E6FF07C0E6FFDECF5B
:105EE00008F0DDCF09F00806000E095A08C0E6FFE9
:105EF00009C0E6FFB3EC28F00A6E090EE15E0A5015
:105F0000006E016A00BE016800C0DEFF01C0DDFF57
:105F100045D0FD0EDBCFE9FFFE0EDBCFEAFF040E1E
:105F2000E926000EEA22EF50090838E1020EE66E7B
:105F3000FD0EDBCFE9FFFE0EDBCFEAFF040EE92604
:105F4000000EEA22EE52E9CF02F0EACF03F0030E90
:105F50000226000E032202C0E6FF03C0E6FF000E89
:105F6000E66EE66A000EE66EE66ADECF04F0DDCF8E
:105F700005F00406000E055A04C0E6FF05C0E6FF62
:105F8000B3EC28F0066E090EE15E0650006E016A61
:105F900000BE016800C0DEFF01C0DDFFDECF00F003
:105FA000DDCF01F00001800E01143AE191C7E6FF58
:105FB000FD0EDBCFE9FFFE0EDBCFEAFF040EE92684
:105FC000000EEA22E9CF02F0EACF03F002C0E6FFBA
:105FD00003C0E6FFD950020FE66E000EDA20E66E2F
:105FE000FB0EDBCFE9FFFC0EDBCFEAFF040EE92658
:105FF000000EEA22E9CF04F0EACF05F004C0E6FF84
:1060000005C0E6FF46EC2AF0066E070EE15E06507C
:10601000006E016A00BE016800C0DEFF01C0DDFF46
:1060200090D07EEC29F000093BE091C7E6FFFD0E21
:10603000DBCFE9FFFE0EDBCFEAFF040EE926000E00
:10604000EA22E9CF02F0EACF03F002C0E6FF03C084
:10605000E6FFD950020FE66E000EDA20E66EFB0E68
:10606000DBCFE9FFFC0EDBCFEAFF040EE926000ED2
:10607000EA22E9CF04F0EACF05F004C0E6FF05C04C
:10608000E6FF46EC2AF0066E070EE15E0650006E53
:10609000016A00BE016800C0DEFF01C0DDFF03D061
:1060A000F90EDE6EDD684DD0070193A146D091C791
:1060B000E6FFFD0EDBCFE9FFFE0EDBCFEAFF040EAD
:1060C000E926000EEA22E9CF02F0EACF03F002C08F
:1060D000E6FF03C0E6FFD950020FE66E000EDA209D
:1060E000E66EFB0EDBCFE9FFFC0EDBCFEAFF040E12
:1060F000E926000EEA22E9CF04F0EACF05F004C059
:10610000E6FF05C0E6FFDECF06F0DDCF07F00606AE
:10611000000E075A06C0E6FF07C0E6FF9EEC29F016
:10612000086E090EE15E0850006E016A00BE01684B
:1061300000C0DEFF01C0DDFF03D0FA0EDE6EDD68B9
:1061400000D075D107018BABF3D0FD0EDBCFE9FF9B
:10615000FE0EDBCFEAFF040EE926000EEA22EF5026
:10616000310A01E1DCD0010A37E03E0A2BE02E0AB9
:1061700001E0DDD0FD0EDBCFE9FFFE0EDBCFEAFF55
:10618000040EE926000EEA22010EE926000EEA229C
:10619000EF0403E111EC2AF014D0FD0EDBCFE9FF90
:1061A000FE0EDBCFEAFF040EE926000EEA22010E06
:1061B000E926000EEA22EF50030803E106EC1FF087
:1061C000FF00B5D005015869010EE66EE66A54EC91
:1061D00020F0E552E552ABD00F0140A704D03BECD4
:1061E0008CF00F01409705010881FD0EDBCFE9FF20
:1061F000FE0EDBCFEAFF040EE926000EEA22030EB4
:10620000E926000EEA22EFCF42F80801436B446B07
:10621000456B100E0801D890423743374437453755
:10622000E806F9E1FD0EDBCFE9FFFE0EDBCFEAFF6A
:10623000040EE926000EEA22020EE926000EEA22EA
:10624000EFCF00F00001005008014213000E43138D
:106250004413451344C845F843C844F842C843F8BA
:106260000801426BFD0EDBCFE9FFFE0EDBCFEAFF3C
:10627000040EE926000EEA22010EE926000EEA22AB
:10628000EFCF00F00001005008014213000E43134D
:1062900044134513E80E336E030E346E356A366AC6
:1062A00042C82EF043C82FF044C830F045C831F042
:1062B00088ECBBF02AC042F82BC043F82CC044F84D
:1062C0002DC045F8D880000E08014255000E4355F8
:1062D000000E4455000E455521E2D880C00E08013D
:1062E0004255CF0E43556A0E4455000E455508E2FF
:1062F0000801C00E426FCF0E436F6A0E446F456BAC
:1063000042C82AF743C82BF744C82CF76A0EE66E3A
:10631000050EE66E1CECB2F0E552E55208D0050120
