:1000000000308A00C62D0000FF00030E8301A60009
:100010007F08A5000A08AD008A01A50E0408A70004
:100020002008A8002108A9002208AA002308AB0084
:100030002408AC00831383128D308400001F222813
:100040000D1B3528270884002808A0002908A100D6
:100050002A08A2002B08A3002C08A4002D088A005F
:10006000260E8300FF0E7F0E09008A1173290034CB
:1000700003171A1F432803130B1D41280E30D80005
:10008000C0283828031703130D130B194B280B1D19
:1000900047280B114E280430D800C028D30A8312F9
:1000A000D53081070B1D52280B11D2010D1BD20A2E
:1000B000D208031D5D2803105E280314D00D5308D9
:1000C000083C031D9E28883081000B1137200B1D32
:1000D0006D280930D800C02870280B1D6D280B1121
:1000E0003D1F76285008D6003D13C0283D197A28B8
:1000F000BD1D7C28BD158228493054078400831318
:1001000050088000D40AD3015408063C031D9628E9
:1001100050085507FF3C031D9228BD13BD1DBD1798
:10012000C02895280A30D800C0289E2850085507B6
:10013000F3000030031801307307D5003830810018
:100140000B1103171A1FAC2803130B1DAA28053027
:10015000D800C028A12803170630031381000B1113
:1001600003171A1BBC2803130B1DBA280630D8002E
:10017000DD00C028B0280317BF30031381003828E2
:100180000034F401F501FE3081000B110D1FCB2866
:100190000130D9004F290B1DCB280B1103171A086A
:1001A000F4000313D108031DD7288712D828871617
:1001B000831687120000000000000000000000000D
:1001C000000000000000000000000000000000002F
:1001D0000000000000000000000000008312031770
:1001E0001A08F500000000000000000000000000F8
:1001F0000000000000000000000000000313871250
:10020000831687128312A1308107741F0A290230D6
:10021000D9004F290030751B0130510203191329F1
:100220000330D9004F295308083C031D4129D40A43
:100230000B1D18290B1183128D30810737200B1DE0
:1002400025290930D9004F2928290B1D25290B11F3
:100250008312B5308107BD1E2F29BD124F295408C6
:10026000063C031D3629D9014F2940290130D10010
:100270003D12D30143305407840083130008CF009C
:100280004E293D1E47290130D1003D124E29031051
:10029000CF0DD1010318D10AD30A3D16CB28003463
:1002A000D71C5829DA08031957290830DA025A29C5
:1002B0002030DA000730DB0583160108C039023828
:1002C000810083125A08373CA1005B0821025D07B8
:1002D000F300C8307307BA3ED83EDC0073088100D3
:1002E0000B11DD0100340108F00071100B197114BD
:1002F00083160108C73908388100E630831281006F
:100300000B117118872970085C020318A72938207F
:10031000BD1FA429C91BA4293D154E08F3009C301C
:100320008100D7107308CF00CF090130D1003D12F2
:10033000BD1603171A1F9D29A52903130D130B1DA5
:100340009F290B11C1203D130317AA29031307305E
:10035000D80003171A1FBF29FA30031381000B11AD
:1003600003171A1FBF2903130B1DBD2983160D1375
:10037000831257140317BF290313B029031703135C
:100380000D135021D401D301D501BD123D13BD136E
:100390000D138A1122286230840083130008031988
:1003A000DE290230A100A001A00BD429A10BD32982
:1003B0009730A000A00BDA29800BD1290034D4019A
:1003C000D301D501BD123D13BD135710831601088B
:1003D000C039023881008312AE018B1BAE178B131C
:1003E0005021AE1B8B1787128316871207148714B0
:1003F000C03083128B040317990181309A00831651
:100400009E0183129B0103138D1203171A1F1B2ACF
:10041000FA30031381000B1103171A1F1B2A031351
:100420000B1D192A83160D138312571403171B2A49
:1004300003130C2A031703130D135718222A8316CC
:100440000D178312003448308316E8000630E900A7
:10045000EB01EA016C108312E301A030E2006308B3
:100460008316EE00831262088316ED000C308312AF
:100470000317AC000130AD00AF01AE013010B20087
:100480002030B100013083160313950081133330FF
:100490009500831203171F109F101F119F11031344
:1004A0001F13003003179E0003131F10173083160D
:1004B00097000108C7390838810083129001003085
:1004C000A100920000308316920083120317990155
:1004D0009A0183169E0183129B0103138D127130C2
:1004E00083168F000F0886138312861383168711D5
:1004F00083128711831605118312051183160717BE
:1005000007158312861283168612831286138316AA
:1005100086138312871183168711831205118316A0
:100520000511061606178312871383168713FA30F0
:100530008312E200CB21FA30E200CB219412831621
:10054000871306160717061724308312940000300D
:100550008316940083129301DF218A11072E571C02
:10056000B42A0030A100BD2ADB0A0B19BB2AD7141C
:100570000030A100BD2A0130A1000034E501433064
:10058000E4006308E7006208E6000630A1006608A0
:1005900084008313671883170008A0006408840090
:1005A00083136518831720088000E40A0319E50AFD
:1005B000E60A0319E70AA10BC72AC801E401640887
:1005C000043C031CF12A43306407840083130008B1
:1005D0004807E5000030031801306507C800E40A49
:1005E000DF2AC80983160D1383120B19FA2A083063
:1005F000D9004A2B571CFF2A0F30D9004A2BD7109D
:1006000083160108C7390838810083124308CF00D8
:100610000130D1003D12AE018B1BAE178B13C120F0
:10062000AE1B8B17D908031D4A2B4808E500D301E0
:10063000D401D601063081000B1103171A1B2A2B97
:1006400003130B1D282B0630DD000D30A100482BB5
:100650001D2B0317BF30031381003D17AE018B1B09
:10066000AE178B133820AE1B8B173D1F3B2B3D1352
:100670000B30A100482B3D136508FF3A5602031DBD
:10068000452B0030A100482B482B0C30A100482BF3
:100690002108D900D401D301D501BD123D13BD13EA
:1006A00003171A1F632BFA30031381000B11031772
:1006B0001A1F632B03130B1D612B57140317632B96
:1006C0000313572B031703130D13AE018B1BAE1728
:1006D0008B135021AE1B8B175718712B83160D17D8
:1006E00083125908A10021088A11272E04306607B9
:1006F0008400831367188317001C832B0030A1002C
:10070000A2009F2B9F2B0530660784008313671878
:100710008317840A0008E90084030008E800033016
:100720006607840083136718831700086807A10011
:100730006908A3000318A30A2308A2009F2B003412
:100740006308E5006208E400E7014930E60006308E
:10075000A100660884008313671883170008A000AF
:100760006408840083136518831720088000E40A56
:100770000319E50AE60A0319E70AA10BA92BBD1123
:100780003D118A11642E6E08A1016D020318CB2B56
:100790006D08A000D72BA0010830EF00ED0DA00DD3
:1007A0006E0820020318A000A10DEF0BCE2B003421
:1007B00003306607A1006708A3000318A30A2108F5
:1007C000E8002308E90003306607840083136718F4
:1007D00083170008EA000130660784008313671856
:1007E000831700086A07EB00660884008313671804
:1007F00083170008EC006B08ED006C08EE00C323C3
:100800006808840083136918831720088000033068
:10081000660784008313671883170008E800023016
:100820006607840083136718831700086802031D96
:10083000202C043066078400831367188317001484
:100840000034B5011308A301E4002308E5000130DA
:10085000E7002C30E60076232208E5002108E400BA
:10086000E408031D362CE5080319422C64088400B3
:10087000831365188317630880000130E7002C306C
:10088000E600D823831605118312051500340430C1
:10089000630784008313641883170018612C0230E7
:1008A000630784008313641883170008E50003308E
:1008B0006307840083136418831700086502031913
:1008C000652C0030A100682C682C0130A100682C38
:1008D00000340430630784008313641883170018FE
:1008E000832C023063078400831364188317000885
:1008F000E50003306307840083136418831700083E
:1009000065020319A02C0530630784008313641863
:100910008317840A0008E60084030008E50002301B
:100920006307840083136418831700086507A10018
:100930006608A3000318A30A2308A200A42CA42C71
:100940000030A100A200A42C003402306307A100F3
:100950006408A3000318A30A2108E5002308E600A1
:100960000230630784008313641883170008E700CC
:100970000130630784008313641883170008670736
:10098000E800630884008313641883170008E900F3
:100990006808ED006908EE00C3236508840083132E
:1009A00066188317200880000430630784008313CF
:1009B00064188317001CE32C04306307840083133E
:1009C0006418831700100034831607178312071F5B
:1009D000162D3508043C031DF12CB5011308E20067
:1009E000F42C2530E3002124E401E830E30047241F
:1009F000A1080319002D8316871183128711042D76
:100A000083168711831287150130E4002C30E30030
:100A10004724A1080319112D83160511831205110E
:100A2000152D8316051183120515C42D8316141870
:100A3000202D25308312E3002124E201232D83168B
:100A400083121308E2003508003A03192E2D013AEB
:100A500003198D2D033A03199F2DC12D6208013A08
:100A600003193F2D033A0319472D013A0319632D4A
:100A7000073A0319642D013A0319842D892D013099
:100A8000B500C00183168613831286138C2D0230A5
:100A9000B500E401E830E30069242208C20021081F
:100AA000C100C108031D572DC20803195F2D41085D
:100AB000840083134218831700089300602D93016C
:100AC0000130C0008C2D8C2D0430B5000130E400C5
:100AD0002C30E30069242208C2002108C100C108AB
:100AE000031D752DC2080319822D0130E4002C303E
:100AF000E300A524410884008313421883170008EB
:100B00009300832D93018C2D0430B5003E08930093
:100B10008C2D2630E3002124C42D4008053C031C05
:100B2000982D3630400784008313620880009D2D85
:100B30006208BC000430B5003D14C00AC42DC108D1
:100B4000031DA52DC2080319AE2D400841078400DE
:100B500083134218831700089300AF2D9301C00A36
:100B60004008063C031DC02D0430B500C108031D1C
:100B7000BC2DC2080319C02DE401E830E300A52410
:100B8000C42D2630E30021248A11012F8401831310
:100B90001F30830503171F109F101F119F11031390
:100BA0001F13003003179E0007309900FF309A0092
:100BB00083169E0183129B0103138D12AF01B001B6
:100BC0000130B100B201B301B401B501BC013D1067
:100BD000BE01BD10BF01C001C101C2013D11BD1167
:100BE000CF01D001D101D201D301D4013D12D501F1
:100BF000BD123D13BD13D6015710D801D901D7102E
:100C00002030DA00DB01DC01DD016110232A8316CC
:100C10008613831286176400831607148714003026
:100C2000831257180130A100A10803191D2E831645
:100C3000861383128613DF21492E3D1C3C2EAF22E2
:100C4000A10803193C2EE3013630E200BE2A210838
:100C5000BE00BE080319372EBC080319312EBC0391
:100C6000362E3D1083168613831286173C2E3D10B8
:100C70008316861383128617B508031D492EAF22EB
:100C8000A1080319492E3D18492E83168613831295
:100C9000861700303D190130A100A10803198C2EE0
:100CA000BD14E701E830E60076232208DF002108C2
:100CB000DE00DE08031D5F2EDF080319692E5F08C2
:100CC000E3005E08E200A02BE701E830E600D8234D
:100CD000882E0130E7002C30E60076232208DF0062
:100CE0002108DE00DE08031D782EDF080319842E9C
:100CF0005E08840083135F1883172730800001305B
:100D0000E7002C30E600D823831605118312051561
:100D100083168711831287153F08313C031C942EDC
:100D20008316071283120712BF08031DA12EBD1CD4
:100D3000A02EBD108316071283120716FF30BF00C6
:100D4000A22EBF03E201BD19E20ABD116208A10093
:100D5000A1080319CA2E0130E7002C30E6007623E3
:100D60002208DF002108DE00DE08031DBA2EDF089E
:100D70000319C62E5E08840083135F18831724307E
:100D800080000130E7002C30E600D82383160511DF
:100D9000831205155808E200D8016208A100210855
:100DA000E000E0080319F32E0130E7002C30E600E4
:100DB00076232208DF002108DE00DE08031DE32E73
:100DC000DF080319EF2E5E08840083135F18831772
:100DD000600880000130E7002C30E600D82383163D
:100DE000051183120515003061180130E2008316E9
:100DF0000715003083120719013062020319072F0B
:100E0000E42C831607158312611007196114611809
:100E10000B2F86120C2F86168316861283120B2E2A
:020E200063006D
:101FE0005300410054004500760030002E003900B7
:0C1FF000200052004F0042004F0054003F
:1043E0005300410054004500760030002E00390093
:0C43F000200052004F0042004F0054001B
:02400E008C33F1
:00000001FF
;PIC16F690
