:020000041A02DE
:10000000E0BF0020D1BA021AA101021AA301021A0C
:10001000A501021AA701021AA901021A167DF243CC
:10002000000000000000000000000000AB01021A08
:10003000AD01021A00000000AF01021A8DBC021AC5
:10004000B301021AB301021AB301021A0000000040
:10005000B301021AB301021AB301021AB301021A60
:10006000B301021AB301021A7D13031AB301021A73
:10007000B301021AB301021AB301021AB301021A40
:10008000B301021AB301021AC129031AB301021AF9
:10009000B301021AB301021AB301021AB301021A20
:1000A000B301021AA929031AB301021AB301021AF1
:1000B000B301021AB301021AB301021AB301021A00
:1000C000B301021AB301021AB301021AB301021AF0
:1000D000B301021AB301021AB301021AB301021AE0
:1000E000B301021AB301021AB301021AB301021AD0
:1000F00000000000B301021AB301021AB301021A90
:1001000000000000B301021AB301021ABD21031A54
:10011000B301021A54D2031A000000105407000061
:1001200054D2031A000008100000000054D2031A31
:10013000009F08100000000054D2031AF09F08101E
:100140000000000054D2031A00000020000000004C
:1001500054D2031A00A000200000000054D2031A59
:1001600000C00020000000005407001018340000F8
:100170000000081000000000009F081000000000B0
:10018000F09F0810000000000000002000000000A8
:1001900000A000200000000000C0002000000000BF
:1001A000FEE7FEE7FEE7FEE7FEE7FEE7FEE7FEE727
:1001B000FEE7FEE710B50023934200D310BD1C58A4
:1001C0005C500433F8E700231A468B4200D3704793
:1001D0001A500433F9E7FFFFFFFFFFFFFFFFFFFFA8
:1001E000FFFFFFFFFFFFFFFFFFFFFFFFFFFFFFFF1F
:1001F000FFFFFFFFFFFFFFFFFFFFFFFFFFFFFFFF0F
:10020000FFFFFFFFFFFFFFFFFFFFFFFFFFFFFFFFFE
:10021000FFFFFFFFFFFFFFFFFFFFFFFFFFFFFFFFEE
:10022000FFFFFFFFFFFFFFFFFFFFFFFFFFFFFFFFDE
:10023000FFFFFFFFFFFFFFFFFFFFFFFFFFFFFFFFCE
:10024000FFFFFFFFFFFFFFFFFFFFFFFFFFFFFFFFBE
:10025000FFFFFFFFFFFFFFFFFFFFFFFFFFFFFFFFAE
:10026000FFFFFFFFFFFFFFFFFFFFFFFFFFFFFFFF9E
:10027000FFFFFFFFFFFFFFFFFFFFFFFFFFFFFFFF8E
:10028000FFFFFFFFFFFFFFFFFFFFFFFFFFFFFFFF7E
:10029000FFFFFFFFFFFFFFFFFFFFFFFFFFFFFFFF6E
:1002A000FFFFFFFFFFFFFFFFFFFFFFFFFFFFFFFF5E
:1002B000FFFFFFFFFFFFFFFFFFFFFFFFFFFFFFFF4E
:1002C000FFFFFFFFFFFFFFFFFFFFFFFFFFFFFFFF3E
:1002D000FFFFFFFFFFFFFFFFFFFFFFFFFFFFFFFF2E
:1002E000FFFFFFFFFFFFFFFFFFFFFFFFFFFFFFFF1E
:1002F000FFFFFFFFFFFFFFFFFFFFFFFF21436587BA
:10030000054B1B888B4206D9044B41600C2202FB33
:1003100001339B688360704754A2031A5CA2031ADE
:10032000054B1B888B4206D9044B41600C2202FB13
:1003300001339B688360704754A2031A5CA2031ABE
:10034000054B1B888B4206D9044B41600C2202FBF3
:1003500001339B688360704754A2031A5CA2031A9E
:10036000054B1B888B4206D9044B41600C2202FBD3
:1003700001339B688360704754A2031A5CA2031A7E
:1003800070B546680D460446FFF7CAFFAE4209D075
:10039000A3683BB16268044B0C2101FB02339B68EC
:1003A0001B88A38170BD00BF5CA2031A08B5044876
:1003B0000BF0B8FCBDE8084002480BF0B3BC00BF2E
:1003C000080000100000001038B5334B334D1A7888
:1003D000DAB15B78152B0AD92B785BBB2978304BC7
:1003E000002203292ED8DFE801F02B3E464E2D4A8D
:1003F000012404FA03F313422CD12B4A134215D1E2
:100400002A4A1342E8D0032410E0294B93F82B200A
:10041000EAB993F83220042A19D104F02BFB0446E0
:1004200024B906F06FF8C31E5C425C412B78A342EE
:10043000D4D08BB11F4814210BF05CFC00232B702F
:10044000174B002283F8A22083F8652020E093F860
:10045000DC45E5E70224E9E716480BF063FC0028D9
:10046000BCD02C70BAE783F8652083F8672001229E
:1004700083F8A22038BD83F8A22083F867200122E8
:1004800083F86520F6E783F8A22083F8652001222F
:1004900083F86720EEE700BF4800001059070010FE
:1004A00000400F4004401200022009000880240090
:1004B000A40E0010000000104A4A4B4B11782DE9A1
:1004C000F041F9B1517804390022112917D8DFE839
:1004D00001F0090F16161616161616161616090925
:1004E000090F0F0F83F8B020012283F8AF2004E03A
:1004F00083F8AF20012283F8B020BDE8F08183F8B3
:10050000B020F2E7394F3A4A97F82B6026B191783C
:1005100083F8B0101278E8E797F83830BBB1157857
:1005200092F80180334C2378AB4203D03248142137
:100530000BF0E0FB97F832302570042B2A4C0AD8D8
:10054000013B032B0BD8DFE803F00C13232895782D
:1005500092F80380E6E71C2B24D91D2B2DD0002315
:1005600018E008F0E1FE84F8AF0084F8B050C4E76A
:1005700021480BF0D7FB30B184F8B05085F001056D
:1005800084F8AF50B9E784F8AF0084F8B000B4E75E
:100590001A4B1B7884F8AF30E7E784F8AF5084F843
:1005A000B080AAE70122053B02FA03F3D7F86025E1
:1005B000134214BF01230023ECE706F0E3F80446DE
:1005C00018B90F480A210BF09FFB0D480BF0C0FB38
:1005D000054B002808BF264683F8AF6083F8B0506B
:1005E0008BE700BF4800001000400F40A40E001031
:1005F000501D001058070010080000105629001068
:100600005407001008B5134B1A7862B15B78124A90
:10061000072B02D00D3B082B03D8012382F8203092
:1006200008BD0023FAE70D4B93F82C30012B05D0C1
:10063000022B09D0002BF3D1074AEFE708F06CFE3C
:10064000054B83F82000EBE7054B1A78024B83F843
:100650002020E5E74800001000400F40A40E0010E5
:10066000572900107047FFFF38B51E4C1E4D94F8F7
:10067000DD35003B18BF0123AB7094F8E935003B32
:1006800018BF0123EB7094F8DE35003B18BF01233F
:100690002B7094F8EA35003B18BF01236B7094F877
:1006A0002B309BB994F8383083B905F02BFF022822
:1006B00008D194F9D035002B09DA0123AB7001235E
:1006C000EB7003E005F01EFF0328F2D038BD94F86C
:1006D00041350BB10123AB7094F84A35002BF5D0AE
:1006E000EDE700BFA40E0010501D001070477047CA
:1006F000032919D1012B17D10388B2B9104AD2EDC1
:10070000007A9FED107A67EE877AFDEEE77A17EEB2
:10071000902A1A4422EAE27342F210729342A8BF6E
:1007200013461A12427003707047012A01D1064A1B
:10073000E5E7022A01D1054AE1E7DFED057AE6E7C0
:10074000381300100000C8423C1300104013001082
:1007500000000000836870B5044615469BB11A6816
:100760008A4210D019600EF0D5FA036861689B6860
:10077000984745B10DF040FC0368A1885B692A46A3
:10078000BDE87040184770BD08B50022FFF7E2FFD2
:1007900008BD08B50122FFF7DDFF08BD836870B50D
:1007A000044615469BB11A888A4210D019800EF073
:1007B000B1FA036861689B68984745B10DF01CFC6D
:1007C0000368A1885B692A46BDE87040184770BD80
:1007D00008B50022FFF7E2FF08BD08B58181FFF7E9
:1007E000F7FF08BD08B50122FFF7D8FF08BD08B51F
:1007F0008181FFF7F7FF08BD10B586B02A4B009343
:1008000000240D2168460294FFF77AFD274BB3F8C8
:10081000C435013B192B10D8DFE803F00D1D20244F
:1008200026282A2C2E32373A0F0F0F0F0F3D300F8C
:100830000F0F0F0F404310F0F9FA1D4B03930024E4
:1008400003A80E210594FFF76BFD214603A8FFF7CF
:10085000C9FF06B010BD174B1C70EEE7002001F079
:10086000B9FCEAE70720FAE70120F8E70220F6E7FB
:100870000320F4E70420F2E70520F0E70620EEE786
:1008800000216846FFF785FFD7E703F0E5FCD4E7D2
:1008900003F000FDD1E702F0CFFBCEE701F054FCFE
:1008A000CBE701F069FCC8E7AC74031AA40E001092
:1008B0008474031A48000010836870B507EE901A1C
:1008C00004461546BBB193ED007AB4EE677AF1EEBB
:1008D00010FA10D019600EF01DFA036861689B6869
:1008E000984745B10DF088FB0368A1885B692A46EB
:1008F000BDE87040184770BD08B50022FFF7DCFF67
:1009000008BD08B50122FFF7D7FF08BD30B585B097
:10091000074B019304460023154601A80393FFF7F4
:100920000FFD2A46214601A8FFF7C6FF05B030BDDE
:10093000C074031A836870B5044615469BB11A78D3
:100940008A4210D019700EF0E5F9036861689B685F
:10095000984745B10DF050FB0368A1885B692A46B2
:10096000BDE87040184770BD08B50022FFF7E2FFF0
:1009700008BD08B50122FFF7DDFF08BD2DE9F043F2
:100980005F4E604C3568BFF35B8F15F0010585B095
:1009900018D1304614F028FBA0B15B4B23604FF414
:1009A000B9712046A560FFF7BBFC584B2360626815
:1009B000574B0C2101FB023330469B681B88A381F7
:1009C00014F02EFB534D012268681C21FFF79EFF97
:1009D000E86801222521FFF799FF686901222E218D
:1009E000FFF794FFE86901225921FFF78FFF686A3A
:1009F00001224FF4B271FFF789FF47480BF0A8F9C5
:100A000000287AD1B5F89422642302EB8202B2FB6B
:100A1000F3F2A368B5F89412BBB11980A389994287
:100A200034BF5B1ACB1A9BB292B29A420DD2A1810B
:100A30000EF070F9036861689B6898470DF0DCFA66
:100A40000368A1885B69012298470DF0D5FA036815
:100A500001229B694FF4B971984718B12E4878214B
:100A60000BF052F92D4B2E4893F8208093F8A250AA
:100A700093F8656093F8677093F8AF9093F8B0407F
:100A80005FFA88F8EDB2F6B2FFB25FFA89F9E4B224
:100A90000BF048F970B323480BF044F950B3224BE4
:100AA00001931B21002301A80393FFF759FCB9F11F
:100AB000000918BF4FF00109231E18BF01235B0175
:100AC00043EA0913B8F1000F18BF43F00103003FD8
:100AD00018BF0127003E18BF012643EAC703291E9D
:100AE00043EA860318BF0121012243EA410101A81C
:100AF000FFF720FF05B0BDE8F083002289E700BFC3
:100B00005C070010600700108474031A9874031ABD
:100B10005CA2031A1C0900107007001000400F406F
:100B20000000001008000010D474031A1FB5002341
:100B3000C0E90733094AC1684362044601A801922B
:100B40000393FFF7FDFB029A054B0C2101FB0233D7
:100B50009B681B68E36204B010BD00BFC074031A39
:100B60005CA2031A08B50448FFF7E0FFBDE808409F
:100B70000248FFF7DBBF00BFB0070010740700108A
:100B800010B504460DF038FA0368A1895B6A9847EE
:100B90000DF032FA0368218A5B6A98470DF02CFA4F
:100BA000036821885B6A98470DF026FA0368A188DC
:100BB0005B6A98470DF020FA036821895B6ABDE8FB
:100BC0001040184708B50448FFF7DAFFBDE80840B1
:100BD0000248FFF7D5BF00BFB00700107407001030
:100BE0002DE9F04385B0DFF870901A4ECDF80490EF
:100BF00004460D464FF000088169CDF80C8001A82D
:100C0000FFF7AEFB029B0C2707FB03639B681B7877
:100C1000ABB16169CDF8049001A8CDF80C80FFF765
:100C20009FFB029B07FB0366B3681B78022B09D06E
:100C3000032B0BD0012B02D1E3692B44E36105B0F8
:100C4000BDE8F083236A2B442362F8E7636A2B44F0
:100C50006362F4E75CA2031AD474031A2DE9F0412D
:100C60002DED048B84B004460027DFF81C81016859
:100C7000434D039701A8CDF80480FFF761FB029B69
:100C800061680C2606FB035301A89B68039793ED4C
:100C9000009ACDF80480FFF753FB029BA16806FB86
:100CA000035301A89B680397D3ED009ACDF8048005
:100CB000FFF746FB029B216906FB035301A89B68D3
:100CC0000397D3ED008ACDF80480FFF739FBD4ED0C
:100CD000077A9FED2C6A029B94ED0B8AE168B8EECF
:100CE000677AD4ED087AF8EE677A06FB035367EE6D
:100CF000A97A9B680397E7EE097A01A8CDF80480EA
:100D000094ED097AD3ED006AB8EE477A04F134071E
:100D1000E7EE287A87EE867AA7EE268A84ED0A8A9D
:100D2000FFF70EFB01A818EE101AFFF7E5FD384695
:100D30000BF00EF8F8B14FF4167138460AF0E4FFE4
:100D4000029B94ED0C7A06FB0355AB68D3ED007A59
:100D5000B4EE677AF1EE10FA0DD0C4ED0C7A0DF016
:100D60004BF90368A1895B69012204B0BDEC048BD7
:100D7000BDE8F041184704B0BDEC048BBDE8F0813C
:100D80005CA2031A00006145C074031A10B5044642
:100D90000DF032F90368A1891B6A984788B1204693
:100DA000FFF7C4FE0AF06CFFA16B814204D0A06380
:100DB000411A2046FFF714FF2046BDE81040FFF718
:100DC0004DBF0DF019F90368218A1B6A9847002866
:100DD000E5D10DF011F9036821881B6A98470028B6
:100DE000DDD10DF009F90368A1881B6A9847002836
:100DF000D5D10DF001F9036821891B6A98470028B5
:100E0000CDD1CFE708B50448FFF7C0FFBDE80840E3
:100E10000248FFF7BBBF00BFB00700107407001007
:100E2000F0B51B4C26460FCE97B008AD0FC596E81F
:100E3000070008AE85E807000FCE0FAD0FC596E896
:100E4000070085E80700134D0FA91C2228461C3413
:100E500013F03EFE0FCC002600276E632F630FAD0C
:100E60000FC594E8070085E807000FAC0FCC01AD73
:100E70000FC594E80700084C85E807001C2201A96B
:100E8000204613F025FE6663276317B0F0BD00BF50
:100E9000E074031AB00700107407001008B5104B77
:100EA00010481978A1B10AF053FFC0B10E480EF0F6
:100EB00093FA40B10C480EF09BFA0121BDE80840BE
:100EC00008480AF021BF08480EF08FFA0421F5E720
:100ED0000AF01AFFBDE8084003480EF086BA08BDC4
:100EE00048000010EC070010A4380010DE4B93F807
:100EF0007910B3F87A00002262F3410183F8791087
:100F0000DA4983F832200840A3F87A0093F87C008D
:100F100083F8362062F3410083F87C0093F8810067
:100F200083F83A2062F3410083F8810093F88D0042
:100F300083F83E2062F3410083F88D00B3F88E0001
:100F400083F842200840A3F88E0093F8900083F8BD
:100F5000462062F3410083F8900093F8950083F8EF
:100F60004A2062F3410083F84E2083F8522083F830
:100F7000562083F85A2083F85E2083F8622083F895
:100F8000662083F86A2083F86E2083F8950093F832
:100F9000A10062F3410083F8A100B3F8A200084069
:100FA000A3F8A20093F8A40062F3410083F8A40020
:100FB00093F8A90062F3410083F8A90093F8B50003
:100FC00062F3410083F8B500B3F8B6000840A3F817
:100FD000B60093F8B80062F3410083F8B80093F8C4
:100FE000BD0062F3410083F8BD0093F8C90062F3CD
:100FF000410083F8C900B3F8CA000840A3F8CA004A
:1010000093F8CC0062F3410083F8CC0093F8D10050
:1010100062F3410083F8D10093F8DD0062F34100F0
:1010200083F8DD00B3F8DE000840A3F8DE0093F893
:10103000E00062F3410083F8E00093F8E50062F31A
:10104000410083F8E50093F8F10083F8042162F38E
:10105000410083F8F100B3F8F20083F80A2101405F
:10106000A3F8F21093F8F41083F8102162F3410111
:1010700083F8F41093F8F91083F8162162F3410114
:1010800083F8F91093F8631183F81C2162F341018E
:1010900083F8631193F8651183F8222162F341010B
:1010A00083F8651193F8671183F8282162F34101F1
:1010B00083F8671193F8691183F82E2162F34101D7
:1010C00083F8342183F83A2183F8402183F84621BC
:1010D00083F84C2183F8522183F8582183F85E214C
:1010E00083F8691193F86B1183F8732162F341015E
:1010F00083F86B1193F8DA1283F87B2162F34101D4
:1011000083F8832183F88B2183F8932183F89B2133
:1011100083F8A32183F8AB2183F8B32183F8BB21A3
:1011200083F8C32183F8CB2183F8D32183F8DB2113
:1011300083F8E32183F8EB2183F8F32183F8FB2183
:1011400083F8032283F80B2283F8132283F81B22EF
:1011500083F8232283F82B2283F8662283F87222F5
:1011600083F87E2293F8722183F8DA121AB14FF4D1
:101170008072A3F8722193F87A211AB14FF4807229
:10118000A3F87A2193F882211AB14FF48072A3F860
:10119000822193F88A211AB14FF48072A3F88A2130
:1011A00093F892211AB14FF48072A3F8922193F828
:1011B0009A211AB14FF48072A3F89A2193F8A221D0
:1011C0001AB14FF48072A3F8A22193F8AA211AB1A0
:1011D0004FF48072A3F8AA2193F8B2211AB14FF408
:1011E0008072A3F8B22193F8BA211AB14FF4807239
:1011F000A3F8BA2193F8C2211AB14FF48072A3F870
:10120000C22193F8CA211AB14FF48072A3F8CA21FF
:1012100093F8D2211AB14FF48072A3F8D22193F837
:10122000DA211AB14FF48072A3F8DA2193F8E2219F
:101230001AB14FF48072A3F8E22193F8EA211AB1AF
:101240004FF48072A3F8EA2193F8F2211AB14FF417
:101250008072A3F8F22193F8FA214AB14FF4807218
:10126000A3F8FA2104E000BF1C090010FDFDFFFFF8
:1012700093F802221AB14FF48072A3F8022293F875
:101280000A221AB14FF48072A3F80A2293F81222AC
:101290001AB14FF48072A3F8122293F81A221AB1ED
:1012A0004FF48072A3F81A2293F822221AB14FF455
:1012B0008072A3F8222293F82A221AB14FF4807286
:1012C000A3F82A22704700BFC34A38B502619722AB
:1012D0004261C24A826003220273C14A02605C22F8
:1012E00003464260BF4A8261BF4A1A62BF48D86162
:1012F00040F2E7125A62442113F04CFB0FF080FDDC
:10130000FFF7F4FDBA49BB4B0B6040F203328A8011
:10131000B949BA4C8A8003F114000860B84903F156
:10132000280008608A80B74903F13C0008608A8081
:10133000B54903F1500008608A80B44903F16400A4
:1013400008608A80B24903F1780008608A80B14958
:10135000D81C08608A80B04903F1170008608A80B1
:10136000AE4903F12B0008608A80AD4903F13F00CC
:1013700008608A80AB4903F1530008608A80AA495B
:1013800003F1670008608A80A84903F17B000860C8
:101390008A80A74903F5DD720A60A64A8A600420A4
:1013A000002208710A7303F5DF71216040F20441E5
:1013B000A180A14C03F2C3152560A1809F4C03F5C9
:1013C000E6752560A1809E4C03F5EB752560A18034
:1013D0009C4C03F5F0752560A1809B4C03F24625DB
:1013E00025609A4D2071A5602273994C03F24A251D
:1013F0002560A180974C03F24E252560964D207103
:10140000A5602273954C03F252252560A180944C6F
:1014100003F256252560934D2071A5602273924CEE
:1014200003F25A252560A180904C20719048A0605D
:1014300003F25E258F482560227303F26224733B1A
:10144000046081804FF0FF415960D9605961D961D2
:1014500059620021884CD96283F8312083F8332007
:1014600083F8352083F8372083F8392083F83B2030
:1014700083F83D2083F83F2083F8412083F8432000
:1014800083F8452083F8472083F8492083F84B20D0
:1014900083F84D2083F84F2083F8512083F85320A0
:1014A00083F8552083F8572083F8592083F85B2070
:1014B00083F85D2083F85F2083F8612083F8632040
:1014C00083F86520D3F88C50996F6C4883F86720B7
:1014D0002540C3F88C5093F8905083F86920214040
:1014E000996762F3000593F87C1083F89050B3F885
:1014F000945083F86B2062F3000183F87C10054060
:10150000B3F88010A3F89450D3F8A05083F86D205E
:101510000140A3F8801025404FF6FF71A3F8841016
:10152000A3F8981083F86F2083F8712083F8732054
:101530005A67A3F87E2083F8822083F88720C3F8B7
:101540008820A3F8922083F8962083F89B20C3F884
:101550009C20C3F8A05093F8A450A3F8AC1062F3F9
:10156000000583F8A450B3F8A850A3F8C0100540B4
:10157000A3F8A850D3F8B450A3F8D4102540C3F86A
:10158000B45093F8B850A3F8A62062F3000583F88E
:10159000B850B3F8BC5083F8AA200540A3F8BC505B
:1015A000D3F8C85083F8AF202540C3F8C85093F84B
:1015B000CC50C3F8B02062F3000583F8CC50B3F8E8
:1015C000D050A3F8BA200540A3F8D050D3F8DC508F
:1015D00083F8BE20254053E0C085031AF0070010B1
:1015E0001875031A247E031A8876031ABC0C00109F
:1015F000FC0800108F090010F40800107C0800108F
:10160000EC080010E4080010DC080010D4080010FA
:10161000CC080010C4080010BC080010B40800106A
:10162000AC080010A40800109C08001094080010DA
:101630008408001014090010740800106C080010D1
:10164000640800105C0800104C080010100900101D
:1016500044080010340800100C0900102C08001079
:101660001C080010080900101408001004080010DD
:1016700004090010FC07001000FEFEFE00FEFFFF44
:1016800083F8C320C3F8C420A3F8CE2083F8D22067
:1016900083F8D720C3F8D820C3F8DC5093F8E05083
:1016A000A3F8E81062F3000583F8E050B3F8E450C3
:1016B000A3F8FC100540A3F8E450D3F8F050A3F8C9
:1016C0000611254093F8F440A3F80C1162F30004CE
:1016D00083F8F440B3F8F840A3F812112040A3F8BF
:1016E000F800A3F81811A3F81E11A3F82411A3F809
:1016F000E22083F8E62083F8EB20C3F8EC20C3F85F
:10170000F050A3F8F62083F8FA2083F8FF20A3F81E
:10171000002183F8032183F8092183F80F2183F83E
:10172000152183F81B2183F8212183F82721A3F8B1
:101730002A11A3F83011A3F83611A3F83C11A3F82D
:101740004211A3F84811A3F84E11A3F85411A3F8BD
:101750005A11A3F8601193F8631183F82D2162F3F5
:10176000000183F8631193F8651183F8332162F364
:10177000000183F8651193F8671183F8392162F34A
:10178000000183F8671193F8691183F83F2162F330
:10179000000183F8691193F86B1183F8452162F316
:1017A000000183F86B1142F21071A3F86E1183F8F7
:1017B0004B2183F8512183F8572183F85D21A3F849
:1017C000702183F87221A3F87611A3F87E11A3F893
:1017D0008611A3F88E11A3F89611A3F89E11A3F811
:1017E000A611A3F8AE11A3F8B611A3F8BE11A3F881
:1017F000C611A3F8782183F87A21A3F8802183F811
:101800008221A3F8882183F88A21A3F8902183F804
:101810009221A3F8982183F89A21A3F8A02183F8B4
:10182000A221A3F8A82183F8AA21A3F8B02183F864
:10183000B221A3F8B82183F8BA21A3F8C02183F814
:10184000C221A3F8C82183F8CA21A3F8CE11A3F8B6
:10185000D611A3F8DE11A3F8E611A3F8EE11A3F850
:10186000F611A3F8FE11A3F80612A3F80E12A3F8BE
:101870001612A3F81E12A3F8D02183F8D221A3F8E0
:10188000D82183F8DA21A3F8E02183F8E221A3F834
:10189000E82183F8EA21A3F8F02183F8F221A3F8E4
:1018A000F82183F8FA21A3F8002283F80222A3F892
:1018B000082283F80A22A3F8102283F81222A3F840
:1018C000182283F81A22A3F8202283F82222A3F8F0
:1018D0002612A3F8282283F82A2283F82D22A3F8BF
:1018E0002E22C3F8302283F83422A3F83622C3F81C
:1018F0003822A3F83C2283F83F22A3F8402283F841
:101900004222C3F8442283F84922A3F84A2283F8EA
:101910004C22A3F84E22A3F8502283F85322A3F8B6
:10192000542283F85622C3F8582283F85D22A3F884
:101930005E2283F86022A3F86222A3F8642283F86F
:101940006822A3F86A2283F86C22A3F86E22A3F817
:10195000702283F8742293F8DA123548A3F87622BD
:1019600062F3000183F8DA124FF0FF31C3E9A022DD
:10197000C3E9A222C3E9A622C3E9A922C3E9AB2293
:10198000C3E9AF22C3E9B122C3E9B322C3E9B72255
:1019900083F87822A3F87A22A3F87C22A3F8902275
:1019A000A3F89422A3F8A222C3F8B42283F8B922A0
:1019B000A3F8BA22C3F8D42283F8D822C3E9B92203
:1019C000C3E9BB22C3E9BD22C3E9BF22C3E9C222E6
:1019D000C3E9C422C3E9C622C3E9C822C3E9CA22B3
:1019E000C3E9CD01C3E9D022C3E9D222C3E9D4229D
:1019F000C3E9D622A3F80423A3F80623C3F83023AF
:101A0000A3F83E23C3E9D822C3E9DA22C3E9DC22E2
:101A1000C3E9DE22C3E9E022C3E9E222C3E9E4220A
:101A2000C3F89813A3F89C13BDE8384001F046BAF8
:101A30000000FFFF70B5134C134E8AB0002501A8BB
:101A40000F2101960395FEF75BFC216801A8FEF7C4
:101A5000A0FE10210DEB010004960695FEF750FC48
:101A6000616804A8FEF795FE07A840F25B1107968F
:101A70000995FEF745FCA16807A8FEF78AFE0AB0A3
:101A800070BD00BFF0070010AC74031AEB4A2DE9DB
:101A9000F84FEB4CEB4EDFF8CCE30023537140F2F0
:101AA0000312A281FF2284F8B42504F5B762002155
:101AB000116004F2BC520120116040F20112A4F83E
:101AC000402504F2D4524FF0200C116004F5BB62A3
:101AD0004FF48075116004F2445284F804C0116020
:101AE00004F24C522060116004F5BC62C4F8C035A9
:101AF000116004F2E452A4F8C435116004F2EC520F
:101B00002375116004F5BE62C4F8C835116004F293
:101B10005452C4F8CC351160CB4AA4F8D03584F8BF
:101B2000D235A4F8DC3584F8DE3584F84A0584F82B
:101B30005035A4F8E83584F8EA35A4F84855A26190
:101B4000C24AE2614FF07F5222626262C04A20863E
:101B5000C4E90A20BF4A6263BF4A84F83230C4E94C
:101B600010624FF01E12C4E912E240F21322A4F8F0
:101B7000682004F204624FF080476FF0FF086FF0B6
:101B8000FE061160C4E91553C4E9183384F83830EF
:101B9000A4F8503084F8523084F8F43584F8533087
:101BA000A4F85C3084F85E30A4F8F63584F8F83593
:101BB000A4F8FA3584F8FC35A4F8FE3584F800362C
:101BC0006FF0FD09E763C4F80806C4E91F866FF0EB
:101BD000FC06C4E921966FF0FB0A6FF0FA06C4E92F
:101BE00023A66FF0F90B6FF0F806C4E925B66FF085
:101BF000F70E6FF0F606C4E927E66FF0F5086FF010
:101C0000F406C4E929866FF0F3096FF0F206C4E91F
:101C10002B96924ADFF85082DFF850B2DFF85092EC
:101C200022676FF0F10A6FF0F0064FF0FF32C4E95F
:101C30002DA6DFF840A2E1660A26C4E92F22C4E9F6
:101C40003122C4E93322A4F87430C4F80C36C4F845
:101C50001026C4F81436C4F81836C4F85805A3671B
:101C6000C4E9352284F820614FF49676C4E937221E
:101C7000C4E93922C4E93B22C4E93D22C4E93F2238
:101C8000C4E94122C4E9469884F80C31C4F85C35B3
:101C9000C4F86035C4F86425C4F86825C4F86C2518
:101CA000C4F87025C4F87425C4F87825C4F87C35C8
:101CB000C4F88035C4F88435C4F88835C4F88C3548
:101CC000C4F89035C4E944BAC4F89435C4E949630A
:101CD00004F20446DFF8A0E1C4F89835C4E94B33B8
:101CE000C4E94D33C4E94F33C4E95133C4E9533334
:101CF000C4E95533C4E95733C4E95933C4E95B3304
:101D0000C4E95D33C4E95F33C4E96133C4E96333D3
:101D1000C4E96533A4F82221C4E96733C4E969330F
:101D2000C4E96B33C4E96D33C4E96F33C4E971337B
:101D3000C4E97333C4E97533C4E97733C4E979334B
:101D4000C4E97B33C4E97D33C4E97F33C4E981331B
:101D5000C4E98333C4E98533C4E98733C4E98933EB
:101D6000C4E98B33C4E98D33C4E98F33C4E99133BB
:101D7000C4E99333C4E99533C4E99733C4E999338B
:101D8000C4E99B33C4E99D33C4E99F33C4E9A1335B
:101D9000C4E9A333C4E9A533C4E9A733C4E9A9332B
:101DA000C4E9AB33C4E9AD33C4E9AF33C4E9B133FB
:101DB000C4E9B333C4E9B533C4E9B733C4E9B933CB
:101DC000C4E9BB33C4E9BD33C4E9BF33C4E9C1339B
:101DD000C4E9C333C4E9C533C4E9C733C4E9C9336B
:101DE000C4E9CB33C4E9CD33C4E9CF33C4E9D1333B
:101DF000C4E9D333C4E9D533C4E9D733C4E9D9330B
:101E0000C4E9DD22C4E9DF22C4E9E133C4E9E333F4
:101E1000C4E9E533C4E9E733C4F86C3384F87033BC
:101E200084F81C36C4E9E933C6F800E004F581669D
:101E3000DFF848E0C6F800E0094E21E0602C001011
:101E4000A40E00100400B4000000C8410000A84126
:101E500000010100000040402C01B004000102001C
:101E60003C006009B4002C010C0D0E0F00010203B0
:101E700008090A0B04050607000070420000A04094
:101E8000DFF894E2C4F80C640526C4E9EB33C4E936
:101E9000ED33C4E9EF33C4E9F133C4E9F333C4E902
:101EA000F533C4E9F733C4E9F933C4E9FB33C4E9D2
:101EB000FD33C4F8FC33C4F80034C4F8106484F86B
:101EC0001434C4F81834C4F81C34C4F82034C4F8EA
:101ED0002434C4F82834C4F82C34C4F840E404F2A0
:101EE0009C5E47F27336CEF8001004F5B46EA4F889
:101EF0003464CEF8001004F24C4E04F22466CEF89E
:101F0000001004F58A6E3160CEF8001004F2544ED1
:101F100004F22C66CEF8001004F58B6E3160CEF81A
:101F2000001004F25C4E04F5C766CEF8001004F50C
:101F30008C6E3160CEF800104FF6FF764FF00F0E2A
:101F4000C4F83034C4F82036C4F82836C4F8303623
:101F5000A4F83436C4F83C36C4F84036C4F84436E5
:101F6000C4F83834C4F8483684F84C36C4F84434DD
:101F7000A4F8483484F84A34C4F8A435C4F8A83521
:101F8000C4F8AC35C4F8B035C4F83C64A4F864E4D3
:101F9000C4F8888408F10438C4F88C8408F1043843
:101FA000C4F8908404F29448F7EE007AC8F8001060
:101FB00004F5CA6E04F59368CEED007A04F2546E0F
:101FC000CEED007AC8F8001004F58D6E04F29C483E
:101FD000CEF80010C8F800100421C4F8AC14082191
:101FE000C4F8B01410214FF47F0EC4F8B41440218B
:101FF000C4F86CE4C4F8BC144FF0020E802184F8DD
:1020000070E4C4F8A8E4C4F8B8C484F86634C4F82A
:102010005826C4F85C26C4F86026C4F86426C4F8C0
:102020006836C4F86C36A4F87036C4F87434C4F852
:102030007834C4F8A034C4F8A404C4F87CB4C4F858
:1020400080A4C4F88494C4F8C0144FF40071C4F898
:10205000C8144FF48061C4F8CC144FF40061C4F884
:10206000D0144FF48051C4F8D4144FF40051C4F884
:10207000D8144FF48041C4F8DC144FF40041C4F884
:10208000E01404F20C5184F8E434C4F8E834C4F8E1
:10209000EC34C4F8F034C4F8F434C4F8F834C4F8B8
:1020A000FC34C4F80035C4F80435A4F8083584F8C5
:1020B0001035C4F87436A4F81235C4F81435A4F8F1
:1020C000183584F81A35134B0F60A4F87826C4F835
:1020D0001C25C4F82025C4F82425C4F82825C4F8F4
:1020E0002C25C4F8C45484F87A66C4F83025A3605B
:1020F000C4F83425C4F83825C4F83C250FF024FC76
:10210000436884F8B4350FF01FFC03682361BDE811
:10211000F88F00BF000011020064000570B546682A
:102120000D460446FEF70CF9AE4209D0A3683BB158
:102130006268044B0C2101FB02339B681B68E3605F
:1021400070BD00BF5CA2031A094BD3F87426094B7B
:102150009A4210B50BD10CF0DDFD03689B699847DE
:1021600010F031F90368BDE81040DB6A184710BD74
:10217000A40E0010C6D7E8F9144BF7B5D3F87426AF
:10218000134B9A4211D110F013F911F033F8036890
:102190000024DB680194054698470646B44206D100
:1021A00010F011F90368DB6A984703B0F0BD2B68A3
:1021B000214601AA1F6828460123B84710F003F9F9
:1021C00003685B6998470134E8E700BFA40E00107C
:1021D000D4C3B2A1034B01225870782102481A706F
:1021E00009F092BD48000010481D0010024A00236B
:1021F0001370024A1360704748000010481D001019
:10220000FEF732BAF8B5A74DA74B95F83820002A4B
:1022100000F045811F785E78A44C02F025FC000296
:10222000B4F8983240F0280080B27F427642FFB284
:10223000F6B283424FEA07274FEA06260BD0A4F8EE
:1022400098024FF4B57102200EF060FB4FF4B571A7
:1022500004200EF04FFBB4F89A32BB420BD040F290
:102260006B110220A4F89A720EF050FB40F26B1131
:1022700004200EF03FFBB4F89C32B3420BD04FF475
:10228000B6710220A4F89C620EF040FB4FF4B671C8
:1022900004200EF02FFBB5F83C34B4F806219A4226
:1022A00009D0B5210220A4F806310EF02FFBB5218C
:1022B00004200EF01FFBB5F83C34B4F80C219A4210
:1022C00009D0B6210220A4F80C310EF01FFBB62174
:1022D00004200EF00FFBB5F83C34B4F812219A42FA
:1022E00009D0B7210220A4F812310EF00FFBB7215C
:1022F00004200EF0FFFAB5F83C34B4F818219A42E5
:1023000009D0B8210220A4F818310EF0FFFAB82144
:1023100004200EF0EFFAB5F83C34B4F81E219A42CE
:1023200009D0B9210220A4F81E310EF0EFFAB9212C
:1023300004200EF0DFFAB5F83C34B4F824219A42B8
:1023400009D0BA210220A4F824310EF0DFFABA2114
:1023500004200EF0CFFAB5F83C34B4F82A219A42A2
:1023600009D0BB210220A4F82A310EF0CFFABB21FC
:1023700004200EF0BFFAB5F83C34B4F830219A428C
:1023800009D0BC210220A4F830310EF0BFFABC21E4
:1023900004200EF0AFFAB5F83C34B4F836219A4276
:1023A00009D0BD210220A4F836310EF0AFFABD21CC
:1023B00004200EF09FFAB5F83C34B4F83C219A4260
:1023C00009D0BE210220A4F83C310EF09FFABE21B4
:1023D00004200EF08FFAB5F83C34B4F842219A424A
:1023E00009D0BF210220A4F842310EF08FFABF219C
:1023F00004200EF07FFAB5F83C34B4F848219A4234
:1024000009D0C0210220A4F848310EF07FFAC02183
:1024100004200EF06FFAB5F83C34B4F84E219A421D
:1024200009D0C1210220A4F84E310EF06FFAC1216B
:1024300004200EF05FFAB5F83C34B4F854219A4207
:1024400009D0C2210220A4F854310EF05FFAC22153
:1024500004200EF04FFAB5F83C34B4F85A219A42F1
:1024600009D0C3210220A4F85A310EF04FFAC3213B
:1024700004200EF03FFAB5F83C34B4F860219A42DB
:1024800009D0C4210220A4F860310EF03FFAC42123
:1024900004200EF02FFABDE8F840FEF76FBA9F78DF
:1024A000DE78B9E6A40E0010501D00101C090010C3
:1024B0000F4B93F84025027093F84925427093F82A
:1024C0004825827093F85025C27093F84125027117
:1024D00093F84A25427103F244521268826003F273
:1024E0004C5203F2545312681B68C2600361704778
:1024F000A40E0010114B93F85520EAB9027883F826
:102500004025427883F84925827883F84825C278A7
:1025100083F85025027983F84125427983F84A25CA
:1025200003F244528168116003F24C52C168116099
:1025300003F2545302691A60704700BFA40E0010E2
:1025400008B5064809F004FC38B104480A2109F02E
:10255000DBFBBDE80840FFF76DBA08BD4400001082
:10256000084B1B78DA0707D5074B1B78DB0706D427
:10257000064B93F8143413B1054809F0E9BB002069
:10258000704700BF5500001054000010A40E00104A
:10259000500000100C4B93F83E241AB1022A03D0CD
:1025A00000207047FFF7DCBF084A92F86521D10789
:1025B00007D5074A1278D207F2D493F81434002BC7
:1025C000EED0044809F0C4BBA40E00101C09001092
:1025D000540000104C00001018B1012803D0002056
:1025E0007047FFF7BDBFFFF7D5BFFFFF68B10128F8
:1025F00009D1074B93F83E343BB1064A0648022BFB
:1026000018BF10467047034870470448704700BF22
:10261000A40E00104A000010810A0010550000109E
:1026200018B1012806D001207047044B187800F03B
:1026300001007047024B93F86501F8E75500001060
:102640001C090010FDF7B2BEFEF7D6B8094B10B555
:102650000360002304468360FDF772FE064B23608F
:102660006268064B0C2101FB023320469B681B6805
:10267000E36010BDC074031A34BA031A5CA2031AD3
:1026800070B51D46836807EE901A06EE902A044640
:102690000BB3196090ED037AB4EEE77AF1EE10FA1D
:1026A000CCBF37EE677A37EEC77AB4EEE67AF1EE52
:1026B00010FA10DDC1600CF02DFB036861689B68A7
:1026C000984745B90BF098FC0368A1885B69BDE8A1
:1026D00070400122184770BD10B5134C2368BFF33A
:1026E0005B8FDB070AD4204612F07EFC30B10F4826
:1026F0000B21FFF7ABFF204612F092FC0FF058FEC3
:1027000010F066F907EE900A9FED097A0748F8EE97
:10271000677A0023C7EE877A4FF07E5217EE901A41
:10272000FFF7AEFF10BD00BF341D0010381D0010B4
:102730000000204210B50E4C2368BFF35B8FDB070F
:102740000AD4204612F050FC30B10A480C21FFF7A1
:102750007DFF204612F064FC0FF02AFE10F054FBBF
:10276000054A014600230348FFF78AFF10BD00BF5A
:10277000201D0010241D0010CDCC4C3E08B507488C
:1027800009F0E6FA48B10548052109F0BDFAFFF75E
:10279000A3FFBDE80840FFF7CDBF08BD4C1D0010EA
:1027A0002DE9F04F8BB07823C64C03932368DFF8F4
:1027B0005083BFF35B8F13F0010F0AD1204612F054
:1027C00013FC30B109F056FAC8F80000204612F0A8
:1027D00027FCDFF830A3DFF830939AF80030BA4FC7
:1027E000DFF828B36FF341038AF8003099F800301E
:1027F0006FF3410389F800303B786FF341033B707E
:102800009BF800306FF341038BF8003007F0FEFDBA
:10281000002800F09C810120AC4BAD4E187096F85A
:10282000293096F8D155AB4C012B40F0988105F03A
:1028300001003B7803F0010282421EBF60F30003F7
:1028400043F002033B7096F82930022B40F095814B
:1028500005F001009BF8003003F0010282421EBF28
:1028600060F3000343F002038BF8003096F82A303F
:10287000012B40F09081C5F3400099F8003003F03F
:10288000010282421EBF60F3000343F0020389F895
:10289000003099F80030D9070AD53B78DA0702D41E
:1028A00096F8143423B9B6F84C108B4809F02CFA7A
:1028B00094F86531DB070AD53B78D80702D496F83F
:1028C000143423B9B6F84C10844809F01DFA96F870
:1028D0002A30022B40F07F8103A809F039FA002842
:1028E00000F03482C5F340059AF800309BF800B040
:1028F00003F00102AA421EBF65F3000343F0020386
:102900008AF800303B7803F0010599F80030012087
:1029100003F001030193FFF769FE019B027894F82D
:10292000040145EA43030BF0010BC2F3000200214E
:1029300043EA8B036FF3070143EAC20303F00F037B
:1029400021F00F02134394F80A2163F30701920068
:10295000D6F8083642EA40021A4394F81031387823
:1029600042EAC30294F8163142EA031296F82A307A
:102970005B4E022B02BF9AF80030C3F3400342EAD9
:10298000431299F80030C3F34003C0F34000DB0169
:1029900043EA801394F81C0143EA002394F82201CF
:1029A00043EA402394F8280143EA802394F82E0157
:1029B00043EAC02394F8340143EA003394F83A011F
:1029C00043EA403394F8400143EA803394F84601E7
:1029D00043EAC03394F84C0143EA004394F85201AF
:1029E00043EA404394F8580143EA804394F85E0177
:1029F00043EAC04394F86501C0F3400043EA005441
:102A00000027384B0793CDB207A8492114430997F3
:102A1000FDF7A6FC0122294607A8FDF78BFF5D21E3
:102A200007A807960997FDF76BFC0122214607A826
:102A3000FDF790FE0D2104A804960697FDF760FCB3
:102A4000059A294B0C2101FB02339B681C6809F095
:102A500011F9D8F80030C01AA04207D909F00AF9D4
:102A6000D8F80010411A04A8FDF793FE09F002F906
:102A70001E4CC8F8000023681D4D1E4FBFF35B8F2E
:102A800013F0010F08D1204612F0AEFA20B1BB7A44
:102A90002B70204612F0C4FA174BBF7A1A78174CE5
:102AA000002A00F0558100221A708FB30C20FFF726
:102AB00091FB237863B32B7853BB60780B2800F22B
:102AC000538125E0181D001054000010541D001003
:102AD000A40E00101C090010500000104C00001043
:102AE000AC74031AD474031A5CA2031A101D0010EC
:102AF000141D0010D43800104000001048000010D1
:102B00001C1D0010561D001055000010551D001012
:102B100023782F7093B16378062B0FD1002340F2F6
:102B2000611107A809930796FDF7EAFB0FF040FC37
:102B30000FF0B0FF014607A8FDF72BFE8E4809F005
:102B400007F908B1FFF752FB0BB0BDE8F08F02F0B8
:102B5000FFFA00287FF45FAE00F08EFC5CE694F88C
:102B6000690110F001003FF464AEE12140200DF056
:102B700029FF80F00100C0B25BE694F86B0110F011
:102B800001003FF467AEE32140200DF01BFF80F011
:102B90000100C0B25EE694F86331DA0711D594F80B
:102BA0006531DB0704D4DE2140200DF00BFF70B14E
:102BB00094F86731D8070CD4DF2140200DF002FFD4
:102BC0005BE6DD2140200DF0FDFE0028E7D100206E
:102BD00053E6012051E6B6F81A5496F85E3094F8A0
:102BE00003212D0185F47F2583F0F00385F47F65B3
:102BF00045EA13152BB2ADB2002A40F0998094F843
:102C000009313BB1A62140200DF0DCFE10B9AA0726
:102C100000F19A8094F80F313BB1A72140200DF0CC
:102C2000D1FE10B96B0700F18F8094F815313BB1DC
:102C3000A82140200DF0C6FE10B9280700F18480BD
:102C400094F81B3133B1A92140200DF0BBFE08B927
:102C5000E90679D494F8213133B1AA2140200DF04E
:102C6000B1FE08B9AA066FD494F8273133B1AB216D
:102C700040200DF0A7FE08B96B0665D494F82D31FD
:102C800033B1AC2140200DF09DFE08B928065BD47D
:102C900094F8333133B1AD2140200DF093FE08B9E3
:102CA000E90551D494F8393133B1AE2140200DF00B
:102CB00089FE08B9AA0547D494F83F3133B1AF2152
:102CC00040200DF07FFE08B96B053DD494F84531E6
:102CD00033B1B02140200DF075FE08B9280533D47A
:102CE00094F84B3133B1B12140200DF06BFE08B99F
:102CF000E90429D494F8513133B1B22140200DF0C8
:102D000061FE08B9AA041FD494F8573133B1B32136
:102D100040200DF057FE08B96B0415D494F85D31CE
:102D2000A3B1B42140200DF04DFE78B9ED0BDBE5E9
:102D3000A521402001930DF045FE00287FF45FAFF0
:102D4000019BD9077FF55BAF0125CDE50025CBE5DC
:102D50002378002B3FF4DCAE2B78002B7FF4D8AE29
:102D6000002F7FF4AAAED3E614289ABF0130C0B278
:102D70000C20FFF72FFACBE6481D00101FB50D4AB7
:102D80000D4B947A9B7A44EA43040C4B93F8283019
:102D9000E4B25C400A4B019301A80023172103937E
:102DA000FDF7DEFA0122214601A8FDF7C3FD04B0BC
:102DB00010BD00BFEC380010E0380010A40E001069
:102DC000D474031A08B5FFF7D9FCFFF7D7FFFDF756
:102DD00019FCFDF747FCFDF7F7FAFDF76DFBFDF772
:102DE00085FCBDE80840FDF782BC08B5C160FDF771
:102DF00083FD08BD08B5C160FDF783FD08BDFFFF79
:102E000070B52C4D2C4CB5F82631B4F880229A427E
:102E10000BD04FF4AC710220A4F880320DF076FD97
:102E20004FF4AC7104200DF065FD0BF0E5F803687C
:102E3000DB6C984706460BF0DFF803685B6C98473D
:102E4000B4F8823240EA062080B283420BD0A4F864
:102E5000820240F2591102200DF058FD40F2591142
:102E600004200DF047FDB5F85E35B4F88A229A4289
:102E70000BD040F25D110220A4F88A320DF046FD1D
:102E800040F25D1104200DF035FDB5F85C35B4F865
:102E900088229A420DD04FF4AE710220A4F88832F5
:102EA0000DF034FDBDE870404FF4AE7104200DF01C
:102EB00021BD70BDA40E00101C09001010B5FFF755
:102EC0009FFF064B064800240F211C7008F01CFFD2
:102ED000044BC3F88C42A3F8904210BD571D00105C
:102EE000581D00101C09001070B540F257112DED4F
:102EF000028B20200DF066FD30B1FFF7DFFF40F2BE
:102F0000571120200DF0F6FC444808F021FF10B1C5
:102F1000434B01221A70434C434DB4F88462012E96
:102F20006CD13F4B1B78002B68D0FFF769FFB4F8DA
:102F30008632012B0BD040F25B110220A4F886628E
:102F40000DF0E4FC40F25B1104200DF0D3FC95F889
:102F5000542095F83830D20042EA031295F8313007
:102F6000134395F8532043EA82032A7D43EA420340
:102F7000B4F88C229A420BD04FF4B2710220A4F81C
:102F80008C320DF0C3FC4FF4B27104200DF0B2FC92
:102F9000264B9FED278AD3ED007AB4F88E2267EE98
:102FA000887AFCEEE77A17EE903A9BB29A420BD001
:102FB00040F265110220A4F88E320DF0A7FC40F219
:102FC000651104200DF096FC1A4BB4F89022D3ED55
:102FD000007A67EE887AFCEEE77A17EE903A9BB2B9
:102FE0009A420BD04FF4B3710220A4F890320DF046
:102FF0008DFC4FF4B37104200DF07CFC95F9D035B5
:10300000002B05DABDEC028BBDE870400DF07ABFF5
:10301000BDEC028BBDE870400DF06EBF581D001076
:10302000571D00101C090010A40E00108814001079
:103030000000C8427C1400107FB50BF06BFE194EE7
:10304000036831681B6A9847174B04781D68174B53
:1030500001930134E4B20023932101A844EA052539
:103060000393FDF74DF90122294601A8FDF772FBF4
:103070003368B3F5FE7F12D80BF04CFE036831685D
:103080001B6A98470378A34209D004700BF042FEF4
:10309000036831689B6804B0BDE87040184704B00D
:1030A00070BD00BF74290010602C0010AC74031AAE
:1030B0007047FFFF08B5074808F034FE064808F0DF
:1030C00031FE064808F02EFEBDE80840044808F02E
:1030D00029BE00BF4C1E00100C1E0010CC1D00109D
:1030E0008C1D001010B504460AF086FF0368618845
:1030F0005B6ABDE81040184708B50948FFF7F2FFC2
:103100000848FFF7EFFF0848FFF7ECFF0748FFF715
:10311000E9FFBDE808404FF4BD7120200DF0EABB87
:103120001C1E0010DC1D00109C1D00105C1D0010FA
:1031300010B53C210446084408F0E6FD04F13800CF
:103140000421BDE8104008F0DFBDFFFF2DE9F0418C
:103150001546164A164F43600026C0E90862069BD2
:1031600083604FF00C0808FB05738261C6629B68A0
:1031700003610446018045801830FDF7C1F82946F7
:1031800004F12400FDF7BCF8E369267508FB03771A
:103190003146BB681B68E36004F1300008F0AAFD0B
:1031A0002046FFF7C5FF2046BDE8F081AC74031A46
:1031B0005CA2031A37B58168044604200DF002FCB6
:1031C00008B304F13005284608F0ACFDD8B1237DE2
:1031D000072B6CD8DFE803F0040C19293343596935
:1031E00001232046237503B0BDE83040FFF7A0BFA0
:1031F00004216FF08073A26801930DEB01000DF0C4
:1032000025FE0223237503B030BD04214FF0FF33A8
:103210000DEB0100A26801930DF018FE41F27071F0
:10322000284608F067FD0323ECE704210023A26889
:1032300001930DEB01000DF009FE0423E2E70421E8
:103240004FF0FF330DEB0100A26801930DF0FEFD7E
:1032500041F27071284608F04DFD0523D2E7E2697E
:10326000144B0C2101FB023304219B68A2681B68EC
:1032700001930DEB01000DF00FFE60680DF034FEC0
:103280000368019A1A700623BCE704214FF0FF334C
:103290000DEB0100A26801930DF0D8FD41F6583105
:1032A000284608F027FD0723ACE70823AAE70023F8
:1032B000A8E700BF5CA2031A37B504460AF09CFEDB
:1032C000036861881B6A984720B1A26820690421BD
:1032D0000DF0BCFDA16804200DF074FBA0B12369C2
:1032E0001B68013310D004210DEB0100A2684FF0E0
:1032F000FF3501950DF0AAFD04F124002946FDF7E4
:1033000048FA2046FFF714FF60680DF0EDFD0368F2
:1033100004F1380504F118001968FDF735FA28465C
:1033200008F016FD30B304F13C0008F011FDD8B1EF
:103330000421284608F0E8FCE2690F4B0C2101FB50
:103340000233E2689B681B689A4213D0E3600AF07C
:1033500053FE226A03685B694AB1E169012289B2BE
:1033600003B0BDE8304018474FF41671E1E74FF065
:10337000FF31F3E703B030BD5CA2031A037D082BD5
:1033800001D1FFF799BFFFF715BFFFFF08B54FF455
:10339000BD7120200DF016FB48B10C4A00231375B7
:1033A0000B4A13750B4A13750B4A137508BD074872
:1033B000FFF7E4FF0648FFF7E1FF0648FFF7DEFFEF
:1033C000BDE808400448FFF7D9BF00BF1C1E00102D
:1033D000DC1D00109C1D00105C1D001007B54FF493
:1033E000BE7300934FF4CF7240F27B134FF4CD7154
:1033F0001448FFF7ABFE4FF4BF73009340F29F12E7
:1034000040F27D1340F29B110F48FFF79FFE4FF4EF
:10341000C07300934FF4D07240F27F134FF4CE711B
:103420000A48FFF793FE4FF4C173009340F2A112D4
:1034300040F2811340F29D110548FFF787FE03B06B
:103440005DF804FB1C1E0010DC1D00109C1D00100C
:103450005C1D0010054B1B888B4206D9044B416054
:103460000C2202FB01339B688360704754A2031A4D
:103470005CA2031A70477047044B587800225A70B8
:1034800010B9034B58785A70704700BFE01F001006
:103490005C1E001000228260026182610262826210
:1034A00002638263026482640265826502668266E8
:1034B00002678267C0F88020C0F88820C0F890209A
:1034C000C0F89820C0F8A020C0F8A820C0F8B0200C
:1034D000C0F8B820C0F8C020C0F8C820C0F8D0207C
:1034E000C0F8D820C0F8E020C0F8E820C0F8F020EC
:1034F000C0F8F820C0F80021C0F80821C0F8102159
:10350000C0F81821C0F82021C0F82821C0F83021C7
:10351000C0F83821C0F84021C0F84821C0F8502137
:10352000C0F85821C0F86021C0F86821C0F87021A7
:10353000C0F87821C0F88021017042707047FFFF09
:103540007FB501294FF01D024FF02603CDE901237D
:1035500015D806AB03EB81010A4B51F8141C0393F9
:1035600003A800230593FFF775FF074B049A0C216E
:1035700001FB02339B68187807B05DF804FB01205B
:10358000FAE700BF48BA031A5CA2031A38B5084626
:1035900014460D4603F0A6FC642C28BF6424642264
:1035A00010FB02F3FF22B3FBF2F314FA83F39BB296
:1035B000642B28BF6423034A2846D15CBDE8384009
:1035C00003F084BC54BA031A38B5084615460C46B5
:1035D00003F088FC642D4FF0640310FB03F34FF0FD
:1035E000FF02B3FBF2F32A469BB228BF64229A4241
:1035F0003ABF9B1A9BB20023034A2046D15CBDE828
:10360000384003F063BC00BF54BA031A10B5044637
:10361000084621600DF068FC606010BD38B50D46AD
:10362000044609680430FFF7F1FF696804F10C00F3
:10363000FFF7ECFFA96804F11400FFF7E7FFE96862
:1036400004F11C00FFF7E2FF296904F12400FFF7F1
:10365000DDFF696904F12C00FFF7D8FFA8696063FA
:103660000DF042FCA063E869E0630DF03DFC2064CE
:10367000286A60640DF038FC696AA06404F15C009B
:10368000FFF7C4FFA96A04F16400FFF7BFFFE96A0E
:1036900004F16C00FFF7BAFF296B04F17400FFF727
:1036A000B5FF696B04F17C00FFF7B0FFA96B04F173
:1036B0008400FFF7ABFFE96B04F14C00FFF7A6FFB6
:1036C000296C04F15400FFF7A1FF696C04F18C0030
:1036D000FFF79CFFA96C04F19400FFF797FFE96CDA
:1036E00004F19C00FFF792FF296D04F1A400FFF79D
:1036F0008DFF696D04F1AC00FFF788FFA96D04F13F
:10370000B400FFF783FFE96D04F1BC00FFF77EFF13
:10371000296E04F1C400FFF779FF696E04F1CC0053
:10372000FFF774FFA96E04F1D400FFF76FFFE96E95
:1037300004F1DC00FFF76AFF296F04F1E400FFF7F2
:1037400065FF696F04F1EC00FFF760FFA96F04F1FA
:10375000F400FFF75BFFE96F04F1FC00FFF756FF91
:10376000D5F8801004F58270FFF750FFD5F884106B
:1037700004F58670FFF74AFFD5F8881004F58A70C3
:10378000FFF744FFD5F88C1004F58E70FFF73EFF6D
:10379000D5F8901004F59270FFF738FFD5F8941023
:1037A00004F59670FFF732FFD5F8981004F59A707B
:1037B000FFF72CFFD5F89C1004F59E70FFF726FF4D
:1037C000D5F8A01004F5A270FFF720FFD5F8A410DB
:1037D00004F5A670FFF71AFFD5F8A81004F5AA7033
:1037E000FFF714FFD5F8AC1004F5AE70FFF70EFF2D
:1037F000D5F8B01004F5B270FFF708FFD5F8B41093
:1038000004F5B670FFF702FFD5F8B81004F5BA70EA
:10381000FFF7FCFED5F8BC1004F5BE70FFF7F6FE0E
:1038200038BDFFFF08B505490548FFF7F7FEBDE8BD
:10383000084004490448FFF7F1BE00BF7CBB031AEF
:10384000E01F0010BCBA031A5C1E001043683BB1B5
:103850001A888A4204D01980016802200DF056B8F7
:10386000704743683BB11A788A4204D019700168E6
:1038700002200DF04BB87047836870B504461546BA
:103880009BB11A788A4210D019700BF043FA036882
:1038900061689B68984745B10AF0AEFB0368A18850
:1038A0005B692A46BDE87040184770BD08B5002224
:1038B000FFF7E2FF08BD08B50122FFF7DDFF08BDF5
:1038C0007FB501294FF01D024FF02603CDE90123FA
:1038D00017D806AB03EB81010B4B51F8141C039373
:1038E00003A800230593FFF7B5FD084B049A0C21AC
:1038F00001FB023303A89B68197881F00101FFF7EF
:10390000DAFF07B05DF804FB48BA031A5CA2031A99
:103910001FB5124B93F871208A421DD093F8723074
:103920008B4217D101240E4B019340F23511002335
:1039300001A80393FCF714FD029A0A4B0C2101FB2A
:10394000023301A89A6801231178A3405940C9B2F3
:10395000FDF70FF804B010BD0024E4E7A40E00103A
:10396000D474031A5CA2031A70B52A238AB02122E8
:10397000CDE900231E2027230129CDE9020323D806
:103980000AAB03EB8101184D51F8206C51F8281C4B
:103990000495002404A80694FCF7E2FC314607A82D
:1039A00007950994FCF7DCFC104B089A0C2101FBED
:1039B0000232926812784AB1214607A8FCF7D9FF73
:1039C000012104A8FCF7D5FF0AB070BD059A01FBE0
:1039D00002339B681978022902D80131C9B2F0E795
:1039E000012107A8EEE700BFD474031A5CA2031AF2
:1039F0002DE9F0430521044687B040200CF0E2FF9A
:103A0000D74D261D002800F0E48100213046FFF745
:103A10001DFF062140200CF0D5FF04F10C06002804
:103A200000F0DE8100213046FFF710FF0721402023
:103A30000CF0C8FF04F11406002800F0D881002122
:103A40003046FFF703FF0021002007F05DFE002154
:103A5000012007F059FE0021022007F055FE00204A
:103A600007F0BAFD297D01F0ABFB014604F11C0013
:103A7000FFF7ECFE012007F0AFFD297D01F0A0FB70
:103A8000014604F12400FFF7E1FE022007F0A4FD47
:103A9000297D01F095FB014604F12C00FFF7D6FECD
:103AA000D5F810345A0704F1340004F13C0804F14D
:103AB000440740F1A3810021FFF7D3FE00214046D7
:103AC000FFF7CFFE00213846FFF7CBFE95F8716077
:103AD000012E00F0B281022E00F0B681002E40F0DF
:103AE000BA8195F87033374603F0010395F87220D8
:103AF000012A00F0B381022A00F0B5811AB995F8C5
:103B00007033C3F3400395F8401504F15C0041EABB
:103B100043014FEA4309FFF799FE95F8491504F16F
:103B2000640041EA4701FFF791FE710004F16C0067
:103B3000FFF78CFE0020FEF74FFD03464FEA4708D3
:103B400004F17400002B40F0938195F8403553EA5E
:103B5000090300F08D8195F8411595F8483543EA41
:103B60000121FFF773FE0120FEF736FD034604F145
:103B70007C00002B40F07E8195F8493553EA08031C
:103B800000F0788195F84A1595F8503543EA0121FF
:103B9000FFF75CFE4FF6FF7104F5B670FFF756FEB7
:103BA0004FF6FF7104F5BA70FFF750FE4FF6FF7144
:103BB00004F5BE70FFF74AFE0020FEF717FD0678F9
:103BC0000120FEF713FD0378F643DB4303F0010306
:103BD00006F0010646EA4306624B1B78DB0754BF3A
:103BE00095F81414002104F18C0701EB41013143D5
:103BF0003846FFF72BFEB5F8601504F19400FFF787
:103C000025FEB5F8621504F19C00FFF71FFE95F83C
:103C1000641504F1A400FFF719FE95F8651504F189
:103C2000AC00FFF713FE95F8661504F1B400FFF73A
:103C30000DFE95F8671504F1BC00FFF707FE95F837
:103C4000681504F1C400FFF701FE95F8691504F149
:103C5000CC00FFF7FBFD95F86A1504F1D400FFF7DF
:103C6000F5FD95F86B1504F1DC00FFF7EFFD95F815
:103C70006C1504F1E400FFF7E9FD95F86D1504F10A
:103C8000EC00FFF7E3FD95F86E1504F1F400FFF783
:103C9000DDFD95F86F1504F1FC00FFF7D7FD95F8F1
:103CA000701504F58270FFF7D1FD95F8711504F5D4
:103CB0008670FFF7CBFD95F8721504F58A70FFF753
:103CC000C5FD95F8731504F58E70FFF7BFFD95F8E7
:103CD000741504F59270FFF7B9FD95F8751504F5A4
:103CE0009670FFF7B3FD95F8761504F59A70FFF717
:103CF000ADFD95F8771504F59E70FFF7A7FD95F8D3
:103D0000781504F5A270FFF7A1FD95F8791504F573
:103D1000A670FFF79BFD95F87A1504F5AA70FFF7DA
:103D200095FD95F87B1504F5AE70FFF78FFD2B7DA3
:103D300095F8311004F5B27043EA4101FFF786FDB2
:103D4000E06C0DF0D1F895F854200388ADF80A30F6
:103D500052B995F85320002A00F08E8004E000BF8D
:103D6000A40E0010540000100023ADF80A30606D5E
:103D70000DF0BAF895F854200388ADF80A30002AFF
:103D800040F0F280002B00F0EF8002220DF10A01DA
:103D900002A810F09DFE9DF80830002B00F0E08096
:103DA000013B122B00F2DA80DFE813F0D400E100CF
:103DB000D800E600ED00E100F800020108010E0164
:103DC00016011E0126012B013301F400F600380113
:103DD0003D01974B297D586801F0C0F9014615E671
:103DE000934B297DD86801F0B9F901461BE6904B49
:103DF000297D586901F0B2F9014621E68D4ED6EDD4
:103E0000007AFCEEE77ACDED017A9DF80410FFF719
:103E100028FDD6ED007AFCEEE77A4046CDED017A3A
:103E20009DF80410FFF71DFDD6ED007AFCEEE77A51
:103E3000CDED017A9DF8041045E695F870730026E3
:103E400007F00107334651E695F87063002706F046
:103E500001063B464AE600263746F3E795F87073BD
:103E6000C7F340074FE695F87063C6F340064AE68D
:103E7000002176E600218BE6002B3FF478AF02228A
:103E80000DF10A0102A810F023FE9DF8083073B16D
:103E9000013B092B0BD8DFE803F01927050A13199A
:103EA0002737323D9DF809102046FFF75DFD0123BD
:103EB0006370236D002B3FF45AAF00221A8056E73F
:103EC0009DF809102046FFF7FBFCF0E79DF809601C
:103ED00020463146FFF734FB0028E8D04FF07C51F4
:103EE000304607F011FCE2E79DF8096020463146B4
:103EF000FFF726FB0028DAD04FF03F41F0E79DF8AE
:103F000009102046FFF7DCFC9DF809102046FFF75A
:103F1000FFFCCCE79DF809102046FFF711FB0028B5
:103F2000C5D095F86D34002BC1D0434B039303A843
:103F3000002312210593FFF78DFA049A3F4B0C21C1
:103F400001FB023303A89B68197881F00101FFF798
:103F5000B2FCACE79DF8090002F09AFF0123637000
:103F6000A36D0BB100221A8007B0BDE8F0839DF865
:103F7000090002F097FFF1E701229DF809102046A1
:103F8000FFF704FBEAE701229DF809102046FFF73E
:103F90001BFBE3E70522F0E70522F5E79DF80900A2
:103FA00002F08AFF4D219DF8090002F08FFFD5E74E
:103FB0009DF8090002F080FF8021F4E79DF80900D8
:103FC00002F07AFFFF21EEE79DF809000138C0B248
:103FD00002F072FF3E21E6E79DF809000138C0B209
:103FE00002F06AFF5F21DEE79DF809000138C0B2E8
:103FF00002F062FFAB21D6E79DF809000138C0B29C
:10400000D8E79DF809000138C0B202F055FFE3215E
:10401000C9E79DF809000138C0B2D1E79DF8090051
:1040200002F066FF9AE79DF8090002F06BFF95E742
:104030001C090010C814001048BA031A5CA2031A25
:1040400008B50448FFF7D4FCBDE808400248FFF774
:10405000CFBC00BFE01F00105C1E001008B500219F
:104060000448FFF717FABDE8084003480121FFF7AD
:1040700011BA00BFE01F00105C1E001043881E2B09
:1040800083BF00234380038801338ABF0133438009
:104090000380704743881E2B83BF0023438003881F
:1040A00001338ABF0133438003807047F0B566480F
:1040B0008BB007F04DFE654B044618B100221A7014
:1040C0000BB0F0BD1B78002BFAD0614D2E1D3FE0E8
:1040D000013291424ED01F2C11D95E4D00242E1D6D
:1040E0002868AA8801884388914260D1EA889A4268
:1040F00053D91F2CE4D8062240685A435FE0426837
:10410000D25C8DF80F200139A980EB803046FFF793
:10411000C1FF40F2013301220DF10F01ADF818305B
:104120000DF11F0002238DF81E308DF81C3010F0A9
:10413000CFFC09F061FFBDF82430D0F800C0ADF825
:10414000003006AF97E80E00DCF87070B847013415
:104150002868AA88018843889142B9D1EA889342A5
:10416000B9D3991A89B28C42B7D29342D1D043685D
:104170009B5C09E0EA889A4209D81F2CADD84268B6
:10418000E8889842BCD3135C8DF80F30BEE79A1ACA
:10419000203292B2A242F2D89FE7991A89B28C4299
:1041A0008ED29A4217D0062143684A433FE001323B
:1041B0008A4230D01F2C83D84268062058431718F3
:1041C00010580490BA88ADF814200139A980EB800A
:1041D0003046FFF753FF40F20133ADF818300123AA
:1041E000062204A98DF81E300DF11F0007238DF85B
:1041F0001C3010F06DFC09F0FFFEBDF82430D0F843
:1042000000C0ADF8003006AF97E80E00DCF8707023
:10421000B847013464E7EA889A420FD81F2C3FF66A
:104220004FAF4268E8889842C7D306234343985863
:10423000049099188B88ADF81430C9E79A1A203287
:1042400092B2A242EDD83BE7642100107821001021
:1042500070210010682100100A4B1A786AB90122F7
:104260001A70094B1A6811885288DA809980074BB6
:104270001A6811885288DA80998005481E2107F053
:1042800043BD00BF7821001070210010682100108C
:1042900064210010014B00221A7070477821001031
:1042A000054B064A1A6012685A60054B054A1A60A7
:1042B00012685A60704700BF70210010402F001034
:1042C00068210010382F0010034B0C2202FB003332
:1042D0009B681878704700BF5CA2031A70B54668E7
:1042E0000D460446FCF73CF8AE4205D0A3681BB16E
:1042F0006068FFF7E9FF207370BD704710B509F0E3
:104300007BFE0368BDE810405B6A5F211847FFFF32
:10431000F8B52A4D95F8733013F0020F08BF95F8E1
:10432000E875274B13BF95F8DC755E78DC781E784E
:1043300018BF9C7847B104F0EFFF0123BB4003F0A6
:104340000E031843C0B205E002F0DCF803281CD0CD
:1043500004F0E2FF95F82B300BB3D6B140F020000B
:10436000C0B2CCB140F08000164B93F8712082426D
:1043700022D083F871003D2102200CF0C7FABDE87D
:10438000F8403D2104200CF0B5BA04F0C5FF012728
:10439000D3E740F01000E3E740F04000E4E795F891
:1043A000383023B92CB160F07F00C0B2DCE7002EBA
:1043B000F9D140F04000F8E7F8BD00BFA40E0010AE
:1043C000501D00101C09001010B52DED028B84B09B
:1043D000264B816801930446002301A80393FBF751
:1043E000AFFF029A224B0C2101FB02339B6893ED35
:1043F000008A01F0EFFF1F4B90B3D3ED0F5A93EDFE
:10440000066AD3ED077A626876EE086A37EE887A34
:10441000C2ED016A82ED007A93F9D01500291BDA0A
:1044200093F82E10022917D0D3F858351B0713D450
:1044300036EE256A77EEE57AF4EE466AF1EE10FA8A
:10444000B4EEE77A48BFF0EE466AF1EE10FAC2ED3C
:10445000016AC8BFC2ED007A04B0BDEC028B10BD8A
:1044600003F20C52D2ED005AC9E700BFC074031A20
:104470005CA2031AA40E0010FFF7A6BF4A6910B58C
:104480000C6AC0E90142104A02600A6802614A6887
:1044900042618A688261CA68C2610A6902628A6985
:1044A0004262CA6982628A8CC286CA8C02870A8D7D
:1044B000428791F82A2080F83C200022C0E90B2294
:1044C00080F8342010BD00BF64BC031A10B5044648
:1044D00009F092FD0368A18ADB6D984709F08CFD15
:1044E0000368218BDB6D984709F086FD0368A18B7B
:1044F000DB6D984709F080FD0368BDE81040DB6D77
:104500003A211847002280F83420FFF7DFBFFFFF71
:104510002C4B2DE9F3410546B3F8744009F06CFDCE
:10452000EA8E03680092270AE4B2A98A9E6D3A4691
:104530002346B04709F060FD2A8F03680092298B5B
:104540009E6D3A462346B04709F056FD6A8F0368D0
:104550000092A98B9E6D3A462346B04709F04CFD68
:104560004FF49C66036800963A46D3F858803A2187
:104570002346C04709F040FD0368E98ED3F8608008
:104580003A462346C04709F037FD0368298FD3F820
:1045900060803A462346C04709F02EFD0368698FC4
:1045A000D3F860803A462346C04709F025FD0368EA
:1045B0001D6E3A4623463146AC4602B0BDE8F04196
:1045C000604700BFA40E001010B5044609F014FDAA
:1045D00003685F211B6A984738B12046FFF776FFD2
:1045E0002046BDE81040FFF793BF10BD10B5012372
:1045F000044680F83430FFF769FF2046BDE81040DC
:10460000FFF786BFC3684068D3ED027AD0ED016A38
:10461000F4EEE67AF1EE10FA10B541DB454A92F875
:104620002B1011B992F83810D1BB92ED087AF0EE48
:10463000085A87EE256A00229A7036EE266AF4EE52
:10464000C67AF1EE10FA28DA77EEE67AF5EEC07A5D
:10465000F1EE10FA4FF0010248D49FED376A67EE91
:10466000865AC5EE876AF4EE466AF1EE10FAC8BFC4
:10467000F0EE466AFCEEE66A16EE901AC17299797F
:10468000012952D1002484722AB1B4EEE77AF1EE06
:1046900010FA2ED803221A7047E00122DA70D3E70D
:1046A000D0ED006AF4EEE67AF1EE10FA1AD8214A5B
:1046B00092F82B1011B992F8381099B192ED097A4D
:1046C000F0EE085A87EE256A0022DA7036EEC66AE6
:1046D000F4EEC67AF1EE10FA01D801229A7076EE65
:1046E000E77AB3E700225A80B7EE087ADFED137A53
:1046F000B3E777EE075AF0EE086A85EEA66A1A78F5
:10470000B4EEE76AF1EE10FA03D8012A0DD80222BE
:10471000C1E787EE266AB4EEE76AF1EE10FA05D833
:104720000AB9197001E0022AF1D810BD012AF8D89F
:10473000FBE700BFA40E00100000C842000000000C
:10474000F8B54368284D00221A72C3685A88044697
:1047500000F1300600F12C079ABB9A79012A03D0A8
:1047600095F9D025002A2CDA00225A703046B5F887
:10477000501007F0C9FA384607F0EAFA20B9E268A3
:104780000123537062689372E1684B7843B995F8DE
:104790002F2063680AB95A7A12B101224A709A72BC
:1047A00094F83C00FDF718FF18B1E36800225A7036
:1047B0005A8095F86F341BB1E3685A8802B95A7071
:1047C000F8BD1A785A703846B5F84E1007F09CFAC2
:1047D000304607F0BDFA0028D6D1E3685870636808
:1047E00001229A721A72CFE7A40E0010074B10B57F
:1047F0000360002304468360FBF7B2FD044B60684E
:104800002360FFF761FD2073204610BDD474031AA6
:1048100044BC031A08B50173FCF7A6F808BDFFFFF6
:1048200070B5044692B000254E4E0169039603A868
:104830000595FBF795FD6169069606A80895FBF7B7
:104840008FFDA169099609A80B95FBF789FDE16920
:104850000C960CA80E95FBF783FD0498C4F80CD0B9
:10486000FFF732FD8DF800000798FFF72DFD8DF85A
:1048700001000A98FFF728FD8DF802000D98FFF758
:1048800023FD61688DF80300CB685868FFF71CFDB5
:104890000B698DF804005868FFF716FD216A8DF842
:1048A00005000FA80F961195FBF75AFD1098FFF71A
:1048B0000BFD2D4B616A8DF806000FA80F93119523
:1048C000FEF7C8FD109A294BA56A0C2101FB0233A3
:1048D00028469B681B788DF807300CF005FB2846AE
:1048E000E6680CF001FB0368B3602046FFF76CFD3F
:1048F000E368DB79CBB9E36800225A705A80E36839
:1049000003A81978FCF735F8E36806A85978FCF78E
:1049100030F8E36809A89978FCF72BF8E3680CA84D
:10492000D978FCF726F812B070BD114B93F9D02559
:10493000002A06DA93F82E201AB9D3F85825120760
:10494000D9D593F85330002BD5D1A16A40200CF073
:1049500039F80028CFD12046FFF754FE2046FFF754
:10496000EFFECCE7D474031A48BA031A5CA2031A08
:10497000A40E001010B5436801229A720E4B93F8F2
:104980007330134090F83420044682B123B120469E
:10499000BDE81040FFF718BEFFF7B4FD94F83430BF
:1049A000002BF4D12046BDE81040FFF739BF002BA3
:1049B000F8D0FFF71BFEF1E7A40E001008B506487B
:1049C000FFF7D8FF0548FFF7D5FF0548FFF7FCFCC8
:1049D000BDE80840FFF79CBCC821001088210010EA
:1049E0007C21001008B50173FBF7C3FF08BDFFFF72
:1049F00008B54FF4C5711148FFF7F8FE40F2AD114C
:104A00000F48FFF7F3FE4FF4D6710E48FFF7EEFEA6
:104A10004FF4D7710C48FFF7E9FE0C490C480D4BD9
:104A2000FFF72CFD0C490D48FFF728FD0C4A1A60D2
:104A30000C4A5A6030229A6008BD00BF4C22001018
:104A40003C2200102C2200101C22001094BC031ADF
:104A5000C82100107C21001068BC031A88210010B6
:104A600058BC031A08220010014B1878704700BF89
:104A70005D220010014B1878704700BF5C220010C7
:104A800010B5184991F8DE3591F8DD0591F8EA2561
:104A900091F8E945034342EA040211D1E2B191F8E9
:104AA0003524134413F0FF0318D0772B18D9C82BE3
:104AB00034BF022203220C490B700C4B1A7010BD3C
:104AC00091F83434002AECD091F835249918FF2954
:104AD000E7D9FF230322EEE71346ECE71A46EAE79D
:104AE0000122E8E7A40E00105D2200105C220010F5
:104AF000024A01235370024A537070477C2200100F
:104B00006C220010024A02235370024A537070470D
:104B10007C2200106C2200107047FFFF014B002226
:104B20001A707047B0220010436823B119800168E1
:104B300002200BF0EBBE704737B50446806800904A
:104B40000CF0D2F925780190012D09D0022D49D021
:104B500025B94FF4807363800123237003B030BD07
:104B600060680CF0B3F90028F8D0A378032B37D88D
:104B7000E27843EA0211022A217318D0032A22D0D4
:104B8000012AEBD1264903EBC303CA18CB5C63733C
:104B90005378A3739378E37302256268E570042168
:104BA00004F10C0003B0BDE830400CF075B91C4AAC
:104BB00003EBC30313440325DA7862731A79A273F3
:104BC0005B79E373E9E7164A03EBC3010A44013357
:104BD00091796173D179A173127AE273A370DCE7E2
:104BE0000223BAE76378012B04D0022BB6D14FF42D
:104BF000807109E00B4B93F83F34012B0AD0022B54
:104C00000BD023B940F201116846FFF78DFF002356
:104C10006370A3E74FF48171F6E740F20311F3E705
:104C20008C220010A40E001008B50348FFF784FF83
:104C30000248FFF781FF08BD7C2200106C220010A3
:104C400010B51D4C2378012B1CD0022B08D01BB9AA
:104C5000FFF758FF02232370BDE81040FFF7E4BFC1
:104C6000164B1B78002BF7D0FFF742FF14480123A7
:104C70001E21237007F048F812484FF4E16107F055
:104C800043F8E9E70D4B1B78002BE1D10C4807F006
:104C90005FF80028DCD10B4807F05AF80028D7D17C
:104CA000094BB3F8A422162AD6D8084BD340DB0709
:104CB000D2D503481E21E2E768220010B02200107E
:104CC00064220010602200101C090010B242400053
:104CD0001A4A1B4B116819605168127A1A72194AE4
:104CE00059601168C3F809105168127A5A74164A4B
:104CF000C3F80D101168C3F812105168127A9A7631
:104D0000124AC3F816101168C3F81B105168127AC2
:104D1000C3F81F1083F823200D4B002240F24D11E1
:104D2000C3E9002140F2511199600A4B4FF4A77179
:104D30001A604FF4A972C3E9011270479B0000107A
:104D40008C220010920000108900001080000010DA
:104D50007C2200106C220010034B0C2202FB00335B
:104D60009B681878704700BF5CA2031A10B509F061
:104D700043F903681D215B6A984709F03DF9036810
:104D8000BDE810405B6A26211847FFFF10B5A64B0F
:104D900093F8C92093F87910C2F34004C1F340009E
:104DA000204360F34101900783F8791041BFC2F3BB
:104DB0000002C9B262F3000183F8791093F8CB20A6
:104DC00093F87B10C2F34004C1F34000204360F32A
:104DD0004101940783F87B1041BFC2F30002C9B2BE
:104DE00062F3000183F87B1093F8CA2093F87A10DD
:104DF000C2F34004C1F34000204360F34101900737
:104E000083F87A1041BFC2F30002C9B262F3000115
:104E100083F87A1093F8CC2093F87C10C2F3400406
:104E2000C1F34000204360F34101940783F87C10F4
:104E300041BFC2F30002C9B262F3000183F87C10E3
:104E400093F8D12093F88110C2F34004C1F34000DD
:104E5000204360F34101900783F8811041BFC2F302
:104E60000002C9B262F3000183F8811093F8DD20DB
:104E700093F88D10C2F34004C1F34000204360F367
:104E80004101940783F88D1041BFC2F30002C9B2FB
:104E900062F3000183F88D1093F8DF2093F88F10F0
:104EA000C2F34004C1F34000204360F34101900786
:104EB00083F88F1041BFC2F30002C9B262F3000150
:104EC00083F88F1093F8DE2093F88E10C2F340041D
:104ED000C1F34000204360F34101940783F88E1032
:104EE00041BFC2F30002C9B262F3000183F88E1021
:104EF00093F8E02093F89010C2F34004C1F340000F
:104F0000204360F34101900783F8901041BFC2F342
:104F10000002C9B262F3000183F8901093F8E52013
:104F200093F89510C2F34004C1F34000204360F3AE
:104F30004101940783F8951041BFC2F30002C9B242
:104F400062F3000183F8951093F8F12093F8A11013
:104F5000C2F34004C1F34000204360F341019007D5
:104F600083F8A11041BFC2F30002C9B262F300018D
:104F700083F8A11093F8F32093F8A310C2F3400430
:104F8000C1F34000204360F34101940783F8A3106C
:104F900041BFC2F30002C9B262F3000183F8A3105B
:104FA00093F8F22093F8A210C2F34004C1F340003A
:104FB000204360F34101900783F8A21041BFC2F380
:104FC0000002C9B262F3000183F8A21093F8F42042
:104FD00093F8A410C2F34004C1F34000204360F3EF
:104FE0004101940783F8A41041BFC2F30002C9B283
:104FF00062F3000183F8A41093F8F92093F8A91044
:10500000C2F34004C1F34000204360F34101900724
:1050100083F8A91041BFC2F30002C9B262F30001D4
:1050200083F8A91010BD00BF1C09001010B5414C39
:10503000B4F87E30B4F8CE209A4209D07321022011
:10504000A4F8CE300BF062FC732104200BF052FC6C
:10505000B4F89230B4F8E2209A4209D074210220C8
:10506000A4F8E2300BF052FC742104200BF042FC57
:10507000B4F8A630B4F8F6209A4209D0752102207F
:10508000A4F8F6300BF042FC752104200BF032FC42
:105090002948502203210BF0D9FE28485122032130
:1050A0000BF0D4FE2648522203210BF0CFFE2548F8
:1050B000492203210BF0CAFE23484A2203210BF0A8
:1050C000C5FE4B22214803210BF0C0FEB4F9843009
:1050D000B4F9D4209A4209D08F210220A4F8D43008
:1050E0000BF014FC8F2104200BF004FCB4F9983071
:1050F000B4F9E8209A4209D090210220A4F8E830BF
:105100000BF004FC902104200BF0F4FBB4F9AC305C
:10511000B4F9FC209A420BD091210220A4F8FC3073
:105120000BF0F4FBBDE81040912104200BF0E2BB32
:1051300010BD00BF1C09001092090010A609001044
:10514000BA0900108F090010A3090010B709001058
:10515000014B1878704700BF4C27001008B507EEC8
:10516000900A89B19FED0C7AF3EE026AA7EEA67A57
:1051700017EE100A10F004FF07EE900AFCEEE77A33
:1051800017EE903A98B208BDB2EE047A67EE877ACD
:1051900017EE900AEEE700BF0000A04390FBF1F38A
:1051A00010B501FB13039AB201EBD1741BB280B2AC
:1051B000B3EB640FA8BF4018801A00B210BDFFFF08
:1051C00008B5FFF7CBFF054B1B7D00B223B10A21C9
:1051D000FFF7E4FF80B208BD0521F9E7A40E001037
:1051E0001049114A82630022C0E91321C0E9162147
:1051F000C0E9192141640121C0E92F12026402674C
:105200008267C0F88020C0F8882080F89420C0F819
:10521000982080F8A01080F8A81080F8B01080F8CE
:10522000B8107047D474031A48BA031A38B50B681B
:1052300003608B688360CB68C3604B6843600B6915
:1052400003610D46044640F235116830FBF788F8DB
:10525000686960670BF048FEA067A869E0670BF01B
:1052600043FEC4F88000E869C4F884000BF03CFEFB
:105270002B6AC4F88C306B6AC4F88800C4F890308C
:1052800038BD38B50B6883614B68C3610D468B68C8
:1052900003620446C9683830FEF7DCF8296904F176
:1052A0004400FBF75DF8696904F15000FBF758F81A
:1052B000A96904F15C00FBF753F82B7F84F82430D4
:1052C00038BDFFFF10B5084B084893F8733013F052
:1052D00002040CBF06490749FFF7D3FF064AB4FA98
:1052E00084F35B09137010BDA40E0010C4250010D8
:1052F000E0BC031AC0BC031AB322001010B5164C50
:10530000164A94F87330127883F00203C3F3400313
:10531000934201D0FFF7D6FF114994F853000B7860
:1053200094F8312083420F4B02D11C78944212D062
:1053300008700D491A700022012381F8942081F829
:10534000BC300A4981F8942081F8BC30084981F8C2
:10535000942081F8BC3010BDA40E0010B3220010C0
:10536000B2220010B122001088260010C4250010BF
:1053700000250010144B154A93F8531070B5144CC7
:10538000144D154E117093F83120144B21462846C8
:105390001A70FFF74BFF31462846114DFFF771FF9A
:1053A00004F128010F48FFF741FFFFF78BFF04F1DD
:1053B00050012846FFF73AFF06F140012846BDE8B4
:1053C0007040FFF75EBF00BFA40E0010B2220010B5
:1053D00020BD031A88260010C0BC031AB122001099
:1053E00000250010C425001010B504469C3006F0BE
:1053F00099FC04F1A40006F095FC04F1B40006F059
:1054000091FC04F1AC00BDE8104006F08BBCFFFF3E
:1054100008B50548FFF7E8FF0448FFF7E5FFBDE8DA
:1054200008400348FFF7E0BF88260010C42500109D
:10543000002500100368C2681B7812780C49C2F37B
:105440004002C3F3400313430A78134342681278BF
:10545000C2F34002134382681278C2F3400213433E
:1054600002691278C2F3400213430B70704700BF09
:105470004C270010F8B5344DDFED347A2B7D002B2E
:1054800083681A782DED028BC2F30003B6EE008A12
:1054900018BFB0EE678A13EA5203044600F1980081
:1054A0003FD0DFED2B7A37EEC88A052106F02CFCC1
:1054B00018EE101A94F8240006F026F994F8240047
:1054C00006F08AF8297DFFF77BFE64260A21B0FBEF
:1054D000F6F3DAB206FB13039BB2B2FBF1F7B3FBB0
:1054E000F1F301FB1722303363F07F03303284F88D
:1054F000313084F83020B0FBF1F301FB130095F854
:10550000313083F001035B00DBB2303084F83200CD
:1055100084F8333084F8343084F83530BDEC028BB5
:10552000F8BD63681A78C2F3000313EA5203BCD1D2
:1055300006F00EFC28B195F8313013B9012384F838
:1055400094309FED038AB3E7A40E001086380E3F17
:105550000000000010B5112921D8DFE801F0092171
:105560002C434F656E818A95A6BA65656509090960
:105570006421B2FBF1F303F1300401FB13239BB26E
:105580000A21B3FBF1F3303380F83130B2FBF1F391
:1055900001FB1322303280F8304080F8322010BDF9
:1055A000002A0CBF3223342380F83030202380F8C7
:1055B000313050230EE0012A08D0022A0DD0002AF3
:1055C000EDD144F24F630386462303E044F62033D3
:1055D0000386322380F83230E1E744F256430386F3
:1055E0005423F7E7D30704D444F64C1303864E2321
:1055F000F0E745F2462303864523EBE7012A07D06F
:10560000022A0AD06AB945F2534303864223E1E7EE
:1056100044F2453303864F23DCE744F656130386F2
:10562000C7E744F64E73E1E722B144F259530386CB
:105630005323CFE744F62063ECE7012A08D0022A7F
:1056400009D0002AABD144F2431303867223C1E789
:1056500044F26453C3E744F2545303864D23B9E73D
:1056600050231AB145F220320286B3E744F6546261
:10567000FAE722B146F2485303866123AAE746F6C9
:10568000437303866F23A5E7012A08D0022A09D0B5
:10569000002A84D143F24913038620239AE746F671
:1056A0004473D2E746F24313CFE7012A07D0022A18
:1056B0000AD0002A7FF473AF43F24923ECE746F6A1
:1056C000571303866E2385E746F64D7303867623CC
:1056D00080E7012A07D0022A7FF471AF46F2521305
:1056E0000386642376E743F24B13D5E711290DD8DF
:1056F000DFE801F0090D1115191D2125292D31357E
:10570000393D4145484C234B9B7913707047224BE0
:1057100093F82B30F9E7204B93F83230F5E71E4B26
:1057200093F82D30F1E71C4B93F82E30EDE71A4B30
:1057300093F82F30E9E7184B93F83030E5E7164B34
:1057400093F83130E1E7144B93F83830DDE7124B32
:1057500093F82930D9E7104B93F82A30D5E70E4B50
:1057600093F82C30D1E70C4B93F85330CDE70A4B2C
:1057700093F85430C9E7084B93F85530C5E7064B0A
:105780005B6EC2E7044B5B6E1B0ABEE7024BB3F8CD
:105790006630BAE7602C0010A40E001010B5044665
:1057A000A43006F0BFFA28B194F8BC301BB9207DB4
:1057B00000F0010010BD0020FCE708B503681B786D
:1057C00003F00303022B06D1A43006F0ABFA80F0FD
:1057D0000100C0B208BD0020FCE7FFFF03681B7892
:1057E00003F00303032B10B5044607D1002380F810
:1057F000BC3040F6B831A43006F07CFAA3681B78C0
:10580000DA0705D44FF4FA6104F1B40006F072FA35
:1058100063681B78DB0705D44FF4FA6104F1AC0030
:1058200006F068FA134B93F85430EBB194F89430C7
:10583000013B012B18D82268137823F0030313705F
:10584000E268137823F0030313706268137823F07F
:1058500003031370A268137823F003031370236902
:105860001A786FF300021A7094F82400BDE8104013
:1058700005F0FEBEA40E0010022380F8943005212E
:10588000983006F041BAFFFFC3691A4A70B5117D1E
:1058900004461868FFF762FC6425B0FBF5F3DAB242
:1058A00005FB13030A219BB2B3FBF1F3303363F022
:1058B0007F03B2FBF1F601FB162284F8313030325F
:1058C000B0FBF1F301FB1300002384F8302084F8CF
:1058D0003330A3866268A368303084F832001B78C6
:1058E000127813439B0704D52046BDE87040FFF7AC
:1058F000C3BF70BDA40E001010B5032380F8943010
:1059000004461E21983006F0FFF9002384F8BD30CC
:1059100010BDFFFF0B4B10B50363002383860446C5
:10592000FFF73CFF20B12046BDE81040FFF7E4BF81
:10593000054B93F8533023B984F89430012384F84D
:10594000BC3010BD202E2000A40E001038B500235E
:1059500080F83330838690F8BE3090F8C15004460A
:10596000012B90F8C00094F8BF1055D0022B76D0D0
:105970000BBB022384F833306368A2681B7803F002
:105980000303032B09D16B1CDBB2AB4238BF0923E5
:10599000092B28BF092384F8C130137803F00303CF
:1059A000032B08D194F8C120531EDBB29A4238BFB2
:1059B000002384F8C13094F8C1300A22B3FBF2F11D
:1059C00002FB1133303384F8303094F8C030B3FB2D
:1059D000F2F102FB1133303384F8313094F8BF30E8
:1059E000B3FBF2F102FB1133303384F8323020463E
:1059F000FFF7E3FE002857D094F8BE30012B50D9B2
:105A0000022B4FF000015AD084F8BE10012384F815
:105A1000941084F8BC3047E0022384F83430636883
:105A2000A2681B7803F00303032B09D1431CDBB2EC
:105A3000834238BF0923092B28BF092384F8C030CB
:105A4000137803F00303032BB5D194F8C020531E41
:105A5000DBB29A4238BF002384F8C030ABE784F849
:105A600035306368A2681B7803F00303032B09D168
:105A70004B1CDBB2994288BF0923092B28BF09239D
:105A800084F8BF30137803F00303032B93D194F809
:105A9000BF20531EDBB29A4238BF002384F8BF30C8
:105AA00089E7013384F8BE302046FFF777FEF0B176
:105AB000002384F89430012384F8BC3038BD94F876
:105AC000C03094F8C10084F8BE1003EB8303642255
:105AD0005B0012FB003394F8BF201344074AB2F86E
